:020000040800F2
:1000000000500020ED2A00082D2A0008352A00089B
:100010003D2A0008452A00084D2A0008000000007B
:10002000000000000000000000000000117F000838
:10003000552A000800000000F180000839810008FE
:10004000352B0008352B0008352B0008352B000810
:10005000352B0008352B0008612A00086F2A00089C
:10006000352B0008352B0008352B0008352B0008F0
:100070007D2A0008912A0008A52A0008B92A00084C
:10008000352B0008352B0008352B0008352B0008D0
:10009000352B0008352B0008352B0008352B0008C0
:1000A000352B0008352B0008352B0008352B0008B0
:1000B000352B0008352B0008CD2A0008352B000809
:1000C000352B0008352B0008352B0008352B000890
:1000D000352B0008352B0008352B0008352B000880
:1000E000352B0008352B0008352B000800000000D8
:1000F0000000000000000000000000000000000000
:0C01000000000000000000005FF808F1A3
:1001100010B5054C237833B9044B13B10448AFF341
:1001200000800123237010BD980000200000000013
:100130001488000808B5034B1BB103490348AFF30B
:10014000008008BD000000009C000020148800080A
:1001500080B489B000AF786039600023FB6130E083
:10016000FB699B003A681A44FB699B0079680B4461
:1001700012781A70FB699B0001333A681A44FB69D4
:100180009B00013379680B4412781A70FB699B005D
:1001900002333A681A44FB699B00023379680B44C6
:1001A00012781A70FB699B0003333A681A44FB69A2
:1001B0009B00033379680B4412781A70FB69013392
:1001C000FB61FB69032BCBD90423FB6181E0FB6955
:1001D000013B9B00BB617A68BB6913441B783B738E
:1001E000BB6901337A6813441B787B73BB690233A4
:1001F0007A6813441B78BB73BB6903337A68134472
:100200001B78FB73FB6903F00303002B25D13B7BB9
:10021000FB757B7B3B73BB7B7B73FB7BBB73FB7D8A
:10022000FB733B7B1A46304B9B5C3B737B7B1A46D4
:100230002D4B9B5C7B73BB7B1A462B4B9B5CBB7330
:10024000FB7B1A46284B9B5CFB733A7BFB699B0844
:100250002649CB5C5340DBB23B73FB699B003B619F
:10026000FB69043B9B00BB617A68BB691344197846
:100270003A7B78683B6903444A40D2B21A70BB6942
:1002800001337A68134419787A7B3B6901337868C3
:1002900003444A40D2B21A70BB6902337A681344ED
:1002A0001978BA7B3B690233786803444A40D2B27A
:1002B0001A70BB6903337A6813441978FA7B3B6977
:1002C0000333786803444A40D2B21A70FB690133A1
:1002D000FB61FB692B2B7FF67AAF00BF00BF243791
:1002E000BD4680BC704700BF5C8900085C8A00087E
:1002F00080B584B000AFF860B9607A60FB68B96817
:100300001846FFF725FFFB68B033102279681846BE
:1003100008F01EFA00BF1037BD4680BD80B582B020
:1003200000AF786039607B68B033102239681846B6
:1003300008F00EFA00BF0837BD4680BD80B487B014
:1003400000AF0346B9607A60FB730023FB7527E0BA
:100350000023BB751EE0FA7DBB7DB96892000A449C
:1003600013441878FB7B9A00FB7D13449A00BB7DF5
:1003700013441A467B6813441978FA7DBB7D4140CB
:10038000C8B2B96892000A44134402461A70BB7D91
:100390000133BB75BB7D032BDDD9FB7D0133FB75C1
:1003A000FB7D032BD4D900BF00BF1C37BD4680BCEA
:1003B0007047000080B485B000AF78600023FB7305
:1003C0001DE00023BB7314E0BA7BFB7B79689200CD
:1003D0000A4413441B781846BA7BFB7B0C49085C23
:1003E000796892000A44134402461A70BB7B0133B9
:1003F000BB73BB7B032BE7D9FB7B0133FB73FB7B1D
:10040000032BDED900BF00BF1437BD4680BC704748
:100410005C89000880B485B000AF78607B685B7849
:10042000FB737B685A797B685A707B685A7A7B6861
:100430005A717B685A7B7B685A727B68FA7B5A7365
:100440007B689B78FB737B689A7A7B689A707B6881
:10045000FA7B9A727B689B79FB737B689A7B7B68DB
:100460009A717B68FA7B9A737B68DB78FB737B6895
:10047000DA7B7B68DA707B68DA7A7B68DA737B68B0
:10048000DA797B68DA727B68FA7BDA7100BF14373D
:10049000BD4680BC704780B483B000AF0346FB719B
:1004A00097F907305B005AB2FB79DB09DBB25BB22C
:1004B000194649000B441946C800194603460B4427
:1004C0005BB253405BB2DBB218460C37BD4680BC12
:1004D000704780B584B000AF78600023FB73A4E060
:1004E000FA7B7B6813F82230BB73FA7B7B6813F8C6
:1004F0002220FB7B79689B000B445B785340DAB287
:10050000FB7B79689B000B449B785340DAB2FB7B02
:1005100079689B000B44DB7853407B73FA7B7B68E4
:1005200013F82220FB7B79689B000B445B785340D7
:100530003B733B7B1846FFF7AEFF03463B73FA7BEA
:100540007B6813F822103A7B7B7B5340DBB2FA7B4B
:100550004B40D9B27B6803F82210FB7B7A689B0082
:1005600013445A78FB7B79689B000B449B7853407B
:100570003B733B7B1846FFF78EFF03463B73FB7BC9
:100580007A689B00134459783A7B7B7B5340DAB2FC
:10059000FB7B4A40D1B27A689B0013440A465A70EA
:1005A000FB7B7A689B0013449A78FB7B79689B00FD
:1005B0000B44DB7853403B733B7B1846FFF76BFFE4
:1005C00003463B73FB7B7A689B00134499783A7B24
:1005D0007B7B5340DAB2FB7B4A40D1B27A689B0006
:1005E00013440A469A70FB7B7A689B001344DA78BE
:1005F000BB7B53403B733B7B1846FFF74CFF0346E6
:100600003B73FB7B7A689B001344D9783A7B7B7BF6
:100610005340DAB2FB7B4A40D1B27A689B00134464
:100620000A46DA70FB7B0133FB73FB7B032B7FF6FF
:1006300057AF00BF00BF1037BD4680BD80B584B046
:1006400000AF786039600023FB733A687968002056
:10065000FFF774FE0123FB737868FFF7ABFE786841
:10066000FFF7D8FEFB7B0A2B0CD07868FFF731FF31
:10067000FB7B3A6879681846FFF760FEFB7B013325
:10068000FB73E9E700BF3A6879680A20FFF756FE76
:1006900000BF1037BD4680BD80B485B000AF786024
:1006A00039600023FB7310E0FB7B7A6813441978F0
:1006B000FB7B3A6813441A78FB7B786803444A4012
:1006C000D2B21A70FB7B0133FB73FB7B0F2BEBD990
:1006D00000BF00BF1437BD4680BC704780B586B0F0
:1006E00000AFF860B9607A60FB68B0333B6100230B
:1006F0007B6110E03969B868FFF7CEFFFB681946E7
:10070000B868FFF79BFFBB683B61BB681033BB60F9
:100710007B6910337B617A697B689A42EAD3FB6814
:10072000B03310223969184608F012F800BF1837A4
:10073000BD4680BD80B586B000AFF860B960134695
:10074000FB80BB68B3F86832FA889A423FD8BB682E
:10075000B3F86822FB88D31ABB82BB8ADBB203F0F2
:100760000F03DBB2C3F11003FB74BB68B3F868324C
:100770001A46FB7C134440F26622934229DC002394
:10078000FB750BE0BB68B3F868321A46FB7D134477
:10079000BA68F97CD154FB7D0133FB75FA7DFB7C93
:1007A0009A42EFD3BB68B3F86822FB7C9BB2134438
:1007B0009AB2BB68A3F86822FB88BA68D118BA8AD3
:1007C000FB7C13441A46F868FFF788FF02E000BF7D
:1007D00000E000BF1837BD4680BD000080B483B084
:1007E00000AF00237B601DE0134A7B6813440022A6
:1007F0001A70124A7B6840F26A2101FB03F313442A
:1008000003F51A7300221A800C4A7B6840F26A21B1
:1008100001FB03F3134403F2662300221A707B6882
:1008200001337B607B68092BDEDD00BF00BF0C3726
:10083000BD4680BC704700BFD8180020B40000201F
:1008400080B582B000AF00237B6007F0F7FB002388
:100850003B6016E0154A3B6813441B78002B0DD112
:10086000124A3B68134401221A703B6840F26A2224
:1008700002FB03F30E4A13447B6005E03B6801333F
:100880003B603B68092BE5DD07F008FC7B68002B2B
:1008900007D07B680022A3F868227B68002283F8D7
:1008A00066227B6818460837BD4680BDD8180020F0
:1008B000B400002080B584B000AF78607B68002B66
:1008C0001DD007F0BBFB0023FB6012E0FB6840F289
:1008D0006A2202FB03F30C4A13447A689A4205D158
:1008E0000A4AFB68134400221A7005E0FB680133D2
:1008F000FB60FB68092BE9DD07F0D0FB00E000BFDF
:100900001037BD4680BD00BFB4000020D8180020BD
:1009100080B584B000AF78600B46FB701346BB70A7
:100920000023FB7397F9023003F01F035AB297F9C3
:10093000033013435BB2DBB2BB737B6858687B68E0
:100940001B890022194602F0DBFD7B68186807F15D
:100950000E010523012203F021FB97F90230002B41
:1009600007DA7B68186807F10F010523012203F0FD
:1009700059FC7B68186807F10F010523012203F079
:1009800051FC7B6858687B681B890122194602F07C
:10099000B7FDFB7B18461037BD4680BD80B584B0DF
:1009A00000AF7860084611461A460346FB700B46B6
:1009B000BB7013467B7097F9023003F01F035AB2E5
:1009C00097F9033013435BB2DBB2FB737B68586863
:1009D0007B681B890022194602F092FD7B6818682B
:1009E00007F10F010523012203F0D8FA7B6818688C
:1009F000791C0523012203F0D1FA7B6858687B68D3
:100A00001B890122194602F07BFD00BF1037BD464D
:100A100080BD80B584B000AF78600B46FB70FB787A
:100A20005B11DBB203F00303FB737B689B7CFA7BF7
:100A30009A420ED003231F22A0217868FFF7AEFF51
:100A4000FB7B1F2280217868FFF7A8FF7B68FA7B79
:100A50009A7400BF1037BD4680BD80B584B000AF2A
:100A600078600B46FB70FB7819467868FFF7D1FF7A
:100A7000FB781A4600217868FFF74AFF0346FB73AC
:100A8000FB7B18461037BD4680BD000080B584B0A2
:100A900000AF78600B46FB707B681B681B681A4AC6
:100AA000934207D1194B1B680521184604F0C2FF79
:100AB000034606E0164B1B680521184604F0BAFFF2
:100AC0000346FB60FB68002B01D0002318E0FB7895
:100AD00019467868FFF7C1FF0346FB727B681B6805
:100AE0001B68094A934205D1084B1B68184604F05D
:100AF000EFFF04E0064B1B68184604F0E9FFFB7AA1
:100B000018461037BD4680BD00300140B837002080
:100B1000BC37002080B582B000AF78600B46FB7018
:100B20001346BB70FB7819467868FFF772FFBB78F5
:100B3000FA7840217868FFF731FF00BF0837BD46DB
:100B400080BD80B584B000AF78600B46FB70134663
:100B50003B80FB781A46D4217868FFF7DBFF3B889F
:100B6000DBB21A46D6217868FFF7D4FF3B881B0A10
:100B70009BB2DBB21A46D7217868FFF7CBFF02F0B1
:100B800003F8F86006E001F0FFFF0246FB68D31AA5
:100B9000142B09D8EA217868FFF75FFF034603F0BA
:100BA0000103002BEFD100E000BF1037BD4680BD30
:100BB00080B586B000AF78600B46FB707B681B6821
:100BC0001B68334A934207D1324B1B6805211846F4
:100BD00004F030FF034606E02F4B1B680521184642
:100BE00004F028FF03467B617B69002B01D00023C2
:100BF00049E0FB781A46D4217868FFF78BFF012281
:100C0000D2217868FFF786FF01F0BEFF386106E069
:100C100001F0BAFF02463B69D31A0A2B09D8EA2130
:100C20007868FFF71AFF034603F00103002BEFD1AA
:100C300000E000BF0022D2217868FFF76BFFD821C7
:100C40007868FFF70AFF0346FB81D9217868FFF730
:100C500004FF03461B021AB2B7F90E3013431BB24E
:100C6000FB817B681B681B68094A934205D1094BCD
:100C70001B68184604F02CFF04E0074B1B6818465D
:100C800004F026FFFB8918461837BD4680BD00BF1B
:100C900000300140B8370020BC37002080B584B058
:100CA00000AF78607B681B681B681D4A934207D1C0
:100CB0001C4B1B680521184604F0BCFE034606E0E9
:100CC000194B1B680521184604F0B4FE0346FB606F
:100CD000FB68002B20D11C217868FFF7BEFE03467D
:100CE00003F00103002B05D001231C22A02178680A
:100CF000FFF754FE7B681B681B68094A934205D1C5
:100D0000084B1B68184604F0E3FE06E0064B1B6820
:100D1000184604F0DDFE00E000BF1037BD4680BD80
:100D200000300140B8370020BC37002080B586B0C5
:100D300000AF786039607B681B681B68884A934203
:100D400007D1884B1B680521184604F073FE034643
:100D500006E0854B1B680521184604F06BFE034630
:100D60007B617B69002B40F0F4807B68D8687B68EE
:100D70001B8A0022194602F0C3FB0A2001F00EFF75
:100D80007B68D8687B681B8A0122194602F0B8FB91
:100D90000A2001F003FF7B6858687B681B890022EA
:100DA000194602F0ADFBFF23FB737B68186807F15F
:100DB0000F010523012203F0F1F87B6858687B6876
:100DC0001B890122194602F09BFB01F0DDFE386110
:100DD00007E001F0D9FE02463B69D31A0A2B00F264
:100DE000BA801D2200217868FFF792FD034603F0C8
:100DF0000103002BEDD07B6800225A8100220821DC
:100E00007868FFF787FE002209217868FFF782FEE5
:100E1000FF220A217868FFF77DFE19220B217868EE
:100E2000FFF778FEFF220C217868FFF773FE192286
:100E30000D217868FFF76EFE0D22C0217868FFF75C
:100E400069FE0022C1217868FFF764FE3223C222C6
:100E500080217868FFF7A2FD5622CA217868FFF743
:100E600059FE0222CB217868FFF754FE1522C421D7
:100E70007868FFF74FFE1222C6217868FFF74AFE16
:100E80000C22C7217868FFF745FE3B681B781A469D
:100E9000E0217868FFF73EFE3B6801331B781A4675
:100EA000E1217868FFF736FE3B6802331B781A466B
:100EB000E2217868FFF72EFE3B6803331B781A4661
:100EC000E3217868FFF726FE3B6804331B781A4657
:100ED000E4217868FFF71EFE3B6805331B781A464D
:100EE000E5217868FFF716FE4FF4807200217868DC
:100EF000FFF727FE4FF4807210217868FFF721FE7C
:100F000043F27A4214217868FFF71BFE2022382131
:100F10007868FFF7FFFD04231F2280217868FFF720
:100F20003DFDC0231B2280217868FFF737FD7B68D9
:100F30001B681B680A4A934205D10A4B1B68184676
:100F400004F0C6FD08E0084B1B68184604F0C0FD1D
:100F500002E000BF00E000BF1837BD4680BD00BF03
:100F600000300140B8370020BC37002080B588B081
:100F700000AFF860B9601346FB80FB681B681B6814
:100F80008F4A934207D18F4B1B680A21184604F001
:100F900051FD034606E08C4B1B680A21184604F0FD
:100FA00049FD0346FB61FB69002B40F0058101F020
:100FB000EBFDB86122E01C21F868FFF74EFD034607
:100FC00003F00203002B06D101F0DEFD0246BB69EF
:100FD000D31A0A2B0CD980231F228021F868FFF72F
:100FE000DDFC80231F22A021F868FFF7D7FC0FE06B
:100FF0000A231C22A021F868FFF7D0FC1F22002141
:10100000F868FFF785FC034603F00803002BD2D1F4
:101010000A231C22A021F868FFF7C0FC002202214D
:10102000F868FFF777FD1A220321F868FFF772FDD1
:10103000FB685868FB681B890022194602F060FAB9
:101040007A237B7500233B75FB68186807F115014F
:101050000523012202F0A2FFFB68186807F11401C2
:101060000523012202F09AFFFB681B681B68544AA3
:10107000934231D100BF554B1B680021184604F044
:101080008FFD0346002BF6D0FB681B68FA88B96811
:10109000184603F089FB4D4B1B680521184604F0E8
:1010A0007FFD0346002B49D0FB681B68184603F000
:1010B000D1FEFB681B68184603F0E8FDFB68586822
:1010C000FB681B890122194602F01AFA3D4B1B6886
:1010D000184604F0FDFC70E000BF3D4B1B6800218A
:1010E000184604F05DFD0346002BF6D0FB681B6834
:1010F000FA88B968184603F057FB354B1B68052181
:10110000184604F04DFD0346002B17D0FB681B6802
:10111000184603F09FFEFB681B68184603F0B6FDF7
:10112000FB685868FB681B890122194602F0E8F940
:10113000254B1B68184604F0CBFC3EE0FB68586862
:10114000FB681B890122194602F0DAF9002204210A
:10115000F868FFF7DFFC1A220521F868FFF7DAFCD0
:10116000FB8803F5D053FB82FB8ADBB21A460621CB
:10117000F868FFF7CFFCFB8A1B0A9BB2DBB21A466A
:101180000721F868FFF7C6FC08231F228021F868B2
:10119000FFF704FCFB681B681B68094A934205D1F2
:1011A000084B1B68184604F093FC06E0064B1B68CE
:1011B000184604F08DFC00E000BF2037BD4680BD1E
:1011C00000300140B8370020BC370020A83700208D
:1011D000AC37002080B58CB000AFF860B960134622
:1011E000FB80FB681B681B689F4A934207D19F4B9B
:1011F0001B680A21184604F01DFC034606E09C4BC0
:101200001B680A21184604F015FC0346BB62BB6A42
:10121000002B01D00023A4E13921F868FFF71DFC61
:101220000346002B12D1FB681B681B688E4A934251
:1012300005D18E4B1B68184604F04AFC04E08C4B29
:101240001B68184604F044FC00238AE1FB685B89B4
:10125000DBB21A460021F868FFF75CFCFB685B898B
:101260001B0A9BB2DBB21A460121F868FFF752FC59
:10127000FB685868FB681B890022194602F040F998
:101280003A23FB76FB68186807F11B01052301224E
:1012900002F084FEFB68186807F11401052306229A
:1012A00002F0C0FF3B7D1AB27B7D1BB21B021BB25A
:1012B00013431BB2FB84BB7D1AB2FB7D1BB21B0226
:1012C0001BB213431BB29BB2043BBB843B7E1AB2DE
:1012D0007B7E1BB21B021BB213431BB27B847B8C35
:1012E00003F08003002B03D0BA8CFB889A4228D9E4
:1012F000FB685868FB681B890122194602F000F957
:10130000FB8CB3F5D05FC0F0E280FB6800225A810D
:1013100040231E228021F868FFF740FBFB681B6812
:101320001B68514A934205D1504B1B68184604F084
:10133000CFFB04E04E4B1B68184604F0C9FB0023AA
:101340000FE1FB681B681B68474A934256D100BFF8
:10135000484B1B680021184604F022FC0346002B72
:10136000F6D0FB681B68BA8CB968184603F0CEFA51
:10137000404B1B680521184604F012FC0346002B65
:1013800000F09C80FB681B68184603F063FDFB6857
:101390001B68184603F07AFCFB685868FB681B89D9
:1013A0000122194602F0ACF8FB68FA8C5A81FB8CDA
:1013B000002B03D0FB8C013B9BB201E041F6FF13F5
:1013C000FB83FB8BDBB21A460C21F868FFF7A2FB0C
:1013D000FB8B1B0A9BB2DBB21A460D21F868FFF7A4
:1013E00099FB40231E228021F868FFF7D7FA1F4B94
:1013F0001B68184604F06CFB0023B2E000BF1E4BD4
:101400001B680021184604F0CBFB0346002BF6D0E6
:10141000FB681B68BA8CB968184603F077FA164B5C
:101420001B680521184604F0BBFB0346002B45D082
:10143000FB681B68184603F00DFDFB681B68184627
:1014400003F024FCFB685868FB681B8901221946DD
:1014500002F056F8FB68FA8C5A81FB8C002B0DD0F9
:10146000FB8C013B9BB20BE000300140B837002001
:10147000BC370020A8370020AC37002041F6FF130E
:101480003B843B8CDBB21A460C21F868FFF742FB29
:101490003B8C1B0A9BB2DBB21A460D21F868FFF7A2
:1014A00039FB40231E228021F868FFF777FA2F4B83
:1014B0001B68184604F00CFB002352E0FB685868D8
:1014C000FB681B890122194602F01AF800E000BFF0
:1014D000FB68FA8C5A81FB8C002B03D0FB8C013B00
:1014E0009BB201E041F6FF13FB85FB8DB3F5D05FA6
:1014F00002D341F6FF13FB85FB8DDBB21A460C21AC
:10150000F868FFF707FBFB8D1B0A9BB2DBB21A469C
:101510000D21F868FFF7FEFA40231E228021F868AB
:10152000FFF73CFA7B8C03F08003002B05D0BA8CCC
:10153000FB889A4201D8BB8C00E00023BB83FB6888
:101540001B681B680A4A934205D10A4B1B68184660
:1015500004F0BEFA04E0054B1B68184604F0B8FA24
:10156000BB8B18463037BD4680BD00BFBC3700205E
:1015700000300140B837002080B586B000AF7860F9
:101580007B681B681B684E4A934207D14D4B1B6812
:101590000521184604F04EFA034606E04A4B1B6844
:1015A0000521184604F046FA03463B613B69002BCF
:1015B00040F081807B685B89DBB21A460021786845
:1015C000FFF7A8FA7B685B891B0A9BB2DBB21A465D
:1015D00001217868FFF79EFA7B6858687B681B8951
:1015E0000022194601F08CFF3A23FB727B681868D1
:1015F00007F10B010523012202F0D0FC7B6818687B
:1016000007F10C010523022202F00CFE3B7B1AB20B
:101610007B7B1BB21B021BB213431BB2FB827B689A
:1016200058687B681B890122194601F069FF41F661
:10163000FF13BB82FB8A002B03D141F6FF13BB8251
:101640000EE0FB8A002B07D0FB8AB3F5D05F03D2F4
:10165000FB8A013BBB8203E00023FB820023BB82A9
:10166000BB8ADBB21A460C217868FFF753FABB8AB3
:101670001B0A9BB2DBB21A460D217868FFF74AFAC3
:1016800040231E2280217868FFF788F97B68FA8A58
:101690005A817B681B681B68094A934205D1094B34
:1016A0001B68184604F014FA06E0074B1B6818463E
:1016B00004F00EFA00E000BF1837BD4680BD00BF41
:1016C00000300140B8370020BC37002080B485B01E
:1016D00000AFF860B9607A60FB68064A1A60BB68C0
:1016E000054A1A607B6880221A6000BF1437BD4625
:1016F00080BC7047E41800209419002080B584B0A5
:1017000000AF0346FB800023FB60FB88012B08D160
:10171000114B1B6807F10C021146184604F048FFF4
:101720000AE0FB88022B07D10C4B1B6807F10C0267
:101730001146184604F03CFFFB68002B07D0084B0D
:101740004FF080521A60BFF34F8FBFF36F8F00BF0F
:101750001037BD4680BD00BFB0370020B437002031
:1017600004ED00E080B584B000AF78600023FB603A
:101770007B681B68134A934208D1134B1B6807F11F
:101780000C021146184604F013FF0CE07B681B683E
:101790000E4A934207D10E4B1B6807F10C0211460B
:1017A000184604F005FFFB68002B07D0094B4FF0EB
:1017B00080521A60BFF34F8FBFF36F8F00BF103797
:1017C000BD4680BD00300140A837002000380040F1
:1017D000AC37002004ED00E080B584B000AF786045
:1017E0000023FB607B681B68134A934208D1134BAC
:1017F0001B6807F10C021146184604F0D9FE0CE0F4
:101800007B681B680E4A934207D10E4B1B6807F199
:101810000C021146184604F0CBFEFB68002B07D0E3
:10182000094B4FF080521A60BFF34F8FBFF36F8F99
:1018300000BF1037BD4680BD00300140A8370020F2
:1018400000380040AC37002004ED00E080B584B0E3
:1018500000AF78600023FB607B681B68134A9342EB
:1018600008D1134B1B6807F10C021146184604F00F
:101870009FFE0CE07B681B680E4A934207D10E4B1B
:101880001B6807F10C021146184604F091FEFB6834
:10189000002B07D0094B4FF080521A60BFF34F8FD7
:1018A000BFF36F8F00BF1037BD4680BD00300140D1
:1018B000A837002000380040AC37002004ED00E0DD
:1018C00080B584B000AF78600B46FB70FEF7B8FFC0
:1018D000F860FB68002B03D17868FFF74DFE25E028
:1018E000FB6840F2662219467868FFF773FC0346EE
:1018F0007B817B89292B03D8F868FEF7DBFF15E095
:10190000FB687A89A3F86822FB68FA7883F8662274
:10191000084B1B68F9680022184604F0B7F9034623
:10192000002B03D0F868FEF7C5FF00BF1037BD4697
:1019300080BD00BFE836002080B489B000AF786079
:101940000B46FB707B68B3F86822FB789BB2D31A16
:101950009BB20E3BFB82FB789BB21233BB82FB8AAD
:101960001B0A9AB2BB8AD1B27A68D154BB8A0133BE
:10197000FA8AD1B27A68D1547B68B3F868320E3BE8
:101980007B827B8A1B0A9BB2DAB27B681A747B8AE1
:10199000DAB27B685A747B6800221A767B68002270
:1019A0005A760023FB61FB789BB20E333B820E23F9
:1019B000BB6110E07A68BB6913441B781B02BA69EB
:1019C000013279688A5C13431A46FB691344FB6150
:1019D000BB690233BB613B8ABA699A42EADB05E024
:1019E000FB699AB2FB691B0C1344FB61FB691B0C7E
:1019F000002BF5D1FB699BB2DB43FB81FB891B0A02
:101A00009BB2DAB27B681A76FB89DAB27B685A76C7
:101A1000FB789BB21433BB81BB897A680021D15417
:101A2000BB8901337A680021D15400BF2437BD46F9
:101A300080BC704780B500AF08490948FFF776F9C8
:101A4000084801F0EBFD08490848FFF76FF9054821
:101A500001F0E4FDFEF7C2FE00BF80BD28000020BB
:101A600000000020941B0020300000201400002003
:101A7000B0B5BEB000AF01F05FF800F01FF900F0A4
:101A800021FA00F0E9F900F07BF900F0AFF900234A
:101A9000C7F8F0300023C7F8F4300023C7F8E83067
:101AA0000023C7F8EC3007F1F003184603F0A9FF54
:101AB00003466C4A136007F1E803184603F0A1FFE0
:101AC0000346694A13600023C7F8E0300023C7F8D3
:101AD000E4300023C7F8D8300023C7F8DC300023F7
:101AE000C7F8D0300023C7F8D4300023C7F8C83077
:101AF0000023C7F8CC3007F1E0030121184604F0B9
:101B00001DF80346594A136007F1D803012118460E
:101B100004F014F80346564A136007F1D00301217C
:101B2000184604F00BF80346524A136007F1C80345
:101B30000121184604F002F803464F4A13604F4B48
:101B400007F1B8040FCB84E80F0007F1B8030021B8
:101B5000184604F073F80346494A1360494B07F1ED
:101B6000A8040FCB84E80F0007F1A8030021184652
:101B700004F064F80346444A1360444B07F18C04B4
:101B80001D460FCD0FC495E8070084E8070007F154
:101B90008C030021184603F0D4FE03463C4A136030
:101BA0003C4B07F170041D460FCD0FC495E80700AC
:101BB00084E8070007F170030021184603F0C1FE16
:101BC0000346354A1360354B07F154041D460FCDCB
:101BD0000FC495E8070084E8070007F154030021CB
:101BE000184603F0AEFE03462D4A13602D4B07F155
:101BF00038041D460FCD0FC495E8070084E80700A0
:101C000007F138030021184603F09BFE0346264ADD
:101C10001360264B07F11C041D460FCD0FC495E839
:101C2000070084E8070007F11C030021184603F0B1
:101C300088FE03461E4A13601E4B3C461D460FCDD0
:101C40000FC495E8070084E807003B4600211846CA
:101C500003F077FE0346184A136003F06BFE00BFE3
:101C6000FDE700BFB8370020BC370020A8370020B0
:101C7000AC370020B0370020B43700202C88000893
:101C8000E83600203C8800084C37002058880008BF
:101C9000601D002084880008641D0020B0880008B2
:101CA00018220020D8880008CC2600200C890008C3
:101CB000802B0020388900083434002080B590B093
:101CC00000AF07F1180328220021184606F0B4FCE3
:101CD0003B1D00221A605A609A60DA601A6109237B
:101CE000BB614FF48033FB6100233B620123BB6285
:101CF00001233B6302237B634FF48033BB634FF4C8
:101D0000E013FB6307F11803184601F097FC034644
:101D1000002B01D000F09CFC0F237B600223BB60F2
:101D20000023FB604FF480633B6100237B613B1D1C
:101D30000221184601F004FF0346002B01D000F0F9
:101D400087FC00BF4037BD4680BD000080B500AFB6
:101D5000094B0A4A1A60084B04225A60064B40F2AB
:101D600052729A60044801F015FC0346002B01D022
:101D700000F06EFC00BF80BD941B002000300040CE
:101D800080B500AF174B184A1A60164B4FF4827299
:101D90005A60144B00229A60124B0022DA60114BF9
:101DA00000221A610F4B00225A610E4B4FF4007251
:101DB0009A610C4B0822DA610A4B00221A62094B25
:101DC00000225A62074B00229A62064B0A22DA620C
:101DD000044802F05FF80346002B01D000F038FC05
:101DE00000BF80BDA01B00200030014080B500AFC7
:101DF000174B184A1A60164B4FF482725A60144BF4
:101E000000229A60124B0022DA60114B00221A6104
:101E10000F4B00225A610E4B4FF400729A610C4B2B
:101E20000022DA610A4B00221A62094B00225A6230
:101E3000074B00229A62064B0A22DA62044802F03B
:101E400029F80346002B01D000F002FC00BF80BD42
:101E5000F81B00200038004080B582B000AF184B5E
:101E60005B69174A43F001035361154B5B6903F04B
:101E700001037B607B68002205210C2000F067FFD6
:101E80000C2000F080FF002206210D2000F05FFFF3
:101E90000D2000F078FF002205210E2000F057FFF2
:101EA0000E2000F070FF002206210F2000F04FFFEF
:101EB0000F2000F068FF00BF0837BD4680BD00BF9F
:101EC0000010024080B588B000AF07F11003002277
:101ED0001A605A609A60DA60464B9B69454A43F043
:101EE00010039361434B9B6903F01003FB60FB6895
:101EF000404B9B693F4A43F0200393613D4B9B69F4
:101F000003F02003BB60BB683A4B9B69394A43F03E
:101F100004039361374B9B6903F004037B607B6888
:101F2000344B9B69334A43F008039361314B9B69FF
:101F300003F008033B603B6801224FF400512E4838
:101F400001F0DEFA01221C212C4801F0D9FA01220D
:101F50004FF480512A4801F0D3FA4FF400533B610B
:101F600001237B610023BB610223FB6107F11003A6
:101F70001946214801F040F903233B61214B7B6165
:101F80000123BB6107F1100319461C4801F034F925
:101F90001C233B6101237B610023BB610223FB61A6
:101FA00007F110031946154801F026F94FF4805344
:101FB0003B6101237B610023BB610223FB6107F1CD
:101FC000100319460E4801F017F9002205210620DA
:101FD00000F0BDFE062000F0D6FE002205210720FD
:101FE00000F0B5FE072000F0CEFE00BF2037BD4652
:101FF00080BD00BF001002400010014000080140F9
:10200000000C01400000211080B582B000AF786064
:10201000012003F0E2FCFBE780B584B000AF7860FC
:1020200002E00A2003F0D9FC184B1B78DBB2002B2E
:10203000F7D006F003F8164B1B78DBB243F0010330
:10204000DAB2134B1A7006F029F8124B1B683221D2
:10205000184603F0A5FD0023FB7306E001210E489E
:10206000FFF72EFCFB7B0133FB7339210A48FEF797
:102070000DFD0346002B02D0FB7B052BEED9064855
:10208000FEF70CFE012003F0A8FCD2E7C1370020C8
:10209000C0370020B03700200000002080B584B099
:1020A00000AF786002E00A2003F097FC184B1B7821
:1020B000DBB2002BF7D005F0C1FF164B1B78DBB26B
:1020C00043F00203DAB2134B1A7005F0E7FF124B2C
:1020D0001B683221184603F063FD0023FB7306E002
:1020E00002210E48FFF7ECFBFB7B0133FB73392128
:1020F0000A48FEF7CBFC0346002B02D0FB7B052BE6
:10210000EED90648FEF7CAFD012003F066FCD2E7CF
:10211000C1370020C0370020B43700201400002051
:1021200080B586B000AF786002E00A2003F055FC6D
:102130001E4B1B78DBB2002BF7D005F07FFF1C4B4A
:102140001B78DBB243F00803DAB2194B1A7005F0C2
:10215000A5FF184B196807F108033222184603F04F
:10216000D5FDBB68102BE8D1FB687B617B6993F8D8
:102170006632012B08D179697B69B3F868321A4657
:102180000D48FEF7F3FE0CE07B6993F86632022BF4
:1021900007D179697B69B3F868321A460748FEF7B8
:1021A000E5FE7869FEF786FBC7E700BFC137002070
:1021B000C03700204C370020140000200000002011
:1021C00080B5F2B000AF07F5E473A3F5E2731860D1
:1021D00002E00A2003F001FCCC4B1B78DBB2002BA1
:1021E000F7D007F5E473A3F5DE731A4600231360F6
:1021F00053609360D360002387F8C7311BE097F8E2
:10220000C72107F11C0113465B0013449B01C8184A
:1022100097F8C72113469B0013449B00BC4A134404
:10222000043307F10C021946FEF762F897F8C7313C
:10223000013387F8C73197F8C731012BDFD905F093
:10224000FDFEB44B1B78DBB243F00403DAB2B14BB2
:102250001A7005F023FFB04B196807F5CE733222D0
:10226000184603F053FDD7F89C31102BE7D1D7F86F
:10227000A031C7F8BC31D7F8BC311B7B1BB21B02A5
:102280001AB2D7F8BC315B7B1BB213431BB2A7F861
:10229000BA31D7F8BC311B7D1BB21B021AB2D7F87A
:1022A000BC315B7D1BB213431BB2A7F8B831D7F822
:1022B000BC31DB7D87F8B731B7F8BA3140F606029A
:1022C000934210D1954B1B68D7F8BC1100221846D9
:1022D00003F0DCFC0346002B00F01381D7F8BC01AF
:1022E000FEF7E8FA0DE1B7F8BA31B3F5006F42D165
:1022F000D7F8BC311B7C1BB21B021AB2D7F8BC3119
:102300005B7C1BB213431BB2A7F8B431B7F8B431EE
:102310000E33D7F8BC21B2F86822934207DAB7F837
:10232000B4310E339AB2D7F8BC31A3F8682297F8CB
:10233000B731012B10D1794B1B68D7F8BC110022A3
:10234000184603F0A3FC0346002B00F0DC80D7F80E
:10235000BC01FEF7AFFAD6E097F8B731112B05D1E3
:10236000B7F8B831C3F30D03002B09D0D7F8BC017F
:10237000FEF7A0FAC8E0D7F8BC01FEF79BFAC3E06D
:10238000D7F8BC319B7B03F00F03DBB29B0087F8CF
:10239000B33197F8B3319BB21633A7F8B031D7F801
:1023A000BC31B3F868321A46B7F8B031D31AB3F576
:1023B000007F07DCD7F8BC31B3F86832B7F8B0213A
:1023C0009A4204D3D7F8BC01FEF774FA9CE0D7F820
:1023D000BC311A33C7F8AC31D7F8BC311E33C7F85B
:1023E000A831FF2387F8C631002387F8C5310023C1
:1023F00087F8C4311AE097F8C42113469B001344B0
:102400009B00434A134404221946D7F8AC0106F056
:1024100003F90346002B04D197F8C43187F8C6317D
:1024200008E097F8C431013387F8C43197F8C43114
:10243000012BE0D9002387F8C33119E097F8C321B5
:1024400013469B0013449B00314A1344042219464F
:10245000D7F8A80106F0E0F80346002B03D10123CA
:1024600087F8C53108E097F8C331013387F8C331E5
:1024700097F8C331012BE1D997F9C631B3F1FF3F8A
:1024800003D097F8C531002B04D1D7F8BC01FEF773
:1024900011FA39E097F9C62107F11C0113465B00D8
:1024A00013449B010B4407F10C0211461846FDF73B
:1024B00035FF97F9C62107F11C0113465B00134451
:1024C0009B010B44B7F8B021D7F8BC111846FEF7B2
:1024D00031F997F8B3311946D7F8BC01FFF72CFA58
:1024E0000E4B1B68D7F8BC110022184603F0CEFB38
:1024F0000346002B3FF4A3AED7F8BC01FEF7DAF990
:102500009DE600BF9BE600BF99E600BFC1370020F3
:10251000688A0008C0370020E83600204C370020C9
:1025200080B584B000AF7860FFF784FAFFF70EFC47
:10253000344801F073F8344B01221A70334B1B7886
:10254000DBB203F00F030F2B09D12E4801F066F820
:1025500005F074FD2D4B00221A7005F09FFD4FF41D
:1025600000512B4800F0E4FF264801F057F8012104
:102570002848FEF71DFB0346FB81FB8903F004039B
:10258000002B14D1244B1B780133DAB2224B1A7082
:10259000214B1B78072B0DD920491E48FEF7C6FB9F
:1025A000184801F03BF81C4B00221A7002E01A4B4D
:1025B00000221A7001211A48FEF7FAFA0346BB817D
:1025C000BB8903F00403002B14D1164B1B78013395
:1025D000DAB2144B1A70134B1B78072B0DD9124922
:1025E0000F48FEF7A3FB074801F018F80D4B002237
:1025F0001A7002E00B4B00221A704FF4FA7003F0CD
:10260000ECF99BE7941B0020C1370020C037002065
:102610000010014000000020C237002028000020E8
:1026200014000020C33700203000002080B582B0A5
:1026300000AF78607B681B68044A934201D100F0C8
:1026400091FA00BF0837BD4680BD00BF00080040BA
:1026500080B400AF72B600BF00BFFDE780B584B0A4
:1026600000AF184B9B69174A43F001039361154B68
:102670009B6903F00103BB60BB68124BDB69114A25
:1026800043F08053D3610F4BDB6903F080537B60D1
:102690007B6800220F216FF0010000F058FB0A4B0D
:1026A0005B68FB60FB6823F0E063FB60FB6843F062
:1026B0000073FB60044AFB68536000BF1037BD46DF
:1026C00080BD00BF001002400000014080B58AB00C
:1026D00000AF786007F1180300221A605A609A6010
:1026E000DA607B681B68854A93427ED1844B9B6984
:1026F000834A43F480539361814B9B6903F4805375
:102700007B617B697E4B9B697D4A43F00403936147
:102710007B4B9B6903F004033B613B69A023BB61D6
:102720000223FB6103237B6207F1180319467548F6
:1027300000F062FD4023BB610023FB6100233B628C
:1027400007F1180319466F4800F056FD6E4B6F4AAB
:102750001A606D4B00225A606B4B00229A606A4BE4
:102760008022DA60684B00221A61674B00225A61AE
:10277000654B00229A61644B4FF44052DA61624823
:1027800000F010FB0346002B01D0FFF761FF7B68D0
:102790005D4ADA645C4A7B6853625D4B5D4A1A604D
:1027A0005B4B10225A605A4B00229A60584B802291
:1027B000DA60574B00221A61554B00225A61544B84
:1027C00000229A61524B4FF40052DA61504800F0F7
:1027D000E9FA0346002B01D0FFF73AFF7B684C4A29
:1027E0009A644B4A7B68536284E07B681B684A4A60
:1027F00093427FD1424BDB69414A43F48043D3612A
:102800003F4BDB6903F48043FB60FB683C4B9B69F7
:102810003B4A43F008039361394B9B6903F008037B
:10282000BB60BB684FF42043BB610223FB61032301
:102830007B6207F118031946384800F0DDFC4FF4BD
:102840008043BB610023FB6100233B6207F1180357
:102850001946324800F0D0FC314B324A1A60304BF6
:1028600000225A602E4B00229A602D4B8022DA60A3
:102870002B4B00221A612A4B00225A61284B00225E
:102880009A61274B4FF44052DA61254800F08AFAEA
:102890000346002B01D0FFF7DBFE7B68204ADA6499
:1028A0001F4A7B685362204B204A1A601E4B10223D
:1028B0005A601D4B00229A601B4B8022DA601A4B33
:1028C00000221A61184B00225A61174B00229A61AC
:1028D000154B4FF40052DA61134800F063FA0346D7
:1028E000002B01D0FFF7B4FE7B680F4A9A640E4AB2
:1028F0007B68536200BF2837BD4680BD0030014071
:102900000010024000080140501C00201C00024042
:10291000941C00203000024000380040000C0140B0
:10292000D81C0020440002401C1D0020580002401A
:1029300080B58EB000AF78600023FB620023BB62DD
:10294000002387F83330344BDB69334A43F0040308
:10295000D361314BDB6903F00403FB60FB6807F1D3
:10296000100207F114031146184601F045FA3B6ABC
:10297000FB62FB6A002B03D101F02AFA786304E0C2
:1029800001F026FA03465B007B637B6B234AA2FBC4
:1029900003239B0C013BBB62214B224A1A60204B54
:1029A00040F2E732DA601E4ABB6A53601C4B0022D9
:1029B0001A611B4B00229A60194B00229A61184839
:1029C00002F051FD034687F8333097F83330002B7F
:1029D0001BD1134802F0A0FD034687F8333097F867
:1029E0003330002B11D11E2000F0CDF97B680F2B66
:1029F00008D8002279681E2000F0A9F90A4A7B68ED
:102A0000136002E0012387F8333097F8333018461B
:102A10003837BD4680BD00BF0010024083DE1B4337
:102A2000C4370020000800403C00002080B400AF04
:102A300000BFFDE780B400AF00BFFDE780B400AF8A
:102A400000BFFDE780B400AF00BFFDE780B400AF7A
:102A500000BFFDE780B400AF00BFBD4680BC70473B
:102A600080B500AF012000F07DFD00BF80BD80B5C6
:102A700000AF022000F076FD00BF80BD80B500AF42
:102A8000024800F085FA00BF80BD00BF501C002046
:102A900080B500AF024800F07BFA00BF80BD00BFE8
:102AA000941C002080B500AF024800F071FA00BF0E
:102AB00080BD00BFD81C002080B500AF024800F0E8
:102AC00067FA00BF80BD00BF1C1D002080B500AFAD
:102AD000024802F073FD00BF80BD00BFC437002074
:102AE00080B400AF00BFBD4680BC7047FFF7F8FF61
:102AF0000B480C490C4A002302E0D458C45004335C
:102B0000C4188C42F9D3094A094C002301E0136030
:102B10000432A242FBD305F0F5FDFEF7A9FF704792
:102B20000000002098000020C48A000898000020BF
:102B3000A43E0020FEE7000080B500AF084B1B68F4
:102B4000074A43F010031360032000F0F5F80F204C
:102B5000FFF7EEFEFFF782FD0023184680BD00BFA1
:102B60000020024080B400AF054B1B781A46054B8D
:102B70001B681344034A136000BFBD4680BC704706
:102B8000400000200C38002080B400AF024B1B68CE
:102B90001846BD4680BC70470C38002080B584B014
:102BA00000AF7860FFF7F0FFB8607B68FB60FB6800
:102BB000B3F1FF3F05D00A4B1B781A46FB6813445C
:102BC000FB6000BFFFF7E0FF0246BB68D31AFA685C
:102BD0009A42F7D800BF00BF1037BD4680BD00BF86
:102BE0004000002080B485B000AF78607B6803F0BF
:102BF0000703FB600C4BDB68BB60BA684FF6FF0352
:102C00001340BB60FB681A02BB68134343F0BF6309
:102C100043F40033BB60044ABB68D36000BF143781
:102C2000BD4680BC704700BF00ED00E080B400AF3F
:102C3000044BDB681B0A03F007031846BD4680BC43
:102C4000704700BF00ED00E080B483B000AF0346E2
:102C5000FB7197F90730002B0BDBFB7903F01F02A8
:102C6000064997F907305B09012000FA02F241F8A2
:102C7000232000BF0C37BD4680BC704700E100E058
:102C800080B483B000AF03463960FB7197F9073019
:102C9000002B0ADB3B68DAB20C4997F907301201C6
:102CA000D2B20B4483F800230AE03B68DAB2084949
:102CB000FB7903F00F03043B1201D2B20B441A76E6
:102CC00000BF0C37BD4680BC704700BF00E100E08C
:102CD00000ED00E080B489B000AFF860B9607A60C0
:102CE000FB6803F00703FB61FB69C3F10703042BD7
:102CF00028BF0423BB61FB690433062B02D9FB699F
:102D0000033B00E000237B614FF0FF32BB6902FA16
:102D100003F3DA43BB681A407B699A404FF0FF31F6
:102D20007B6901FA03F3D9437B680B4013431846D0
:102D30002437BD4680BC704780B582B000AF786054
:102D40007868FFF74FFF00BF0837BD4680BD80B5EC
:102D500086B000AF0346B9607A60FB7300237B61E5
:102D6000FFF764FF78617A68B9687869FFF7B2FFA6
:102D7000024697F90F3011461846FFF781FF00BF52
:102D80001837BD4680BD80B582B000AF0346FB71E9
:102D900097F907301846FFF757FF00BF0837BD46C1
:102DA00080BD000080B485B000AF78600023FB6078
:102DB0007B68002B01D1012343E07B681B681A4626
:102DC000224B1344224AA2FB03231B099A007B686F
:102DD0001A647B681F4ADA637B68022283F8212029
:102DE0007B681B681B68FB60FB6823F47F5323F040
:102DF0003003FB607B685A687B689B681A437B687A
:102E0000DB681A437B681B691A437B685B691A435A
:102E10007B689B691A437B68DB691343FA68134339
:102E2000FB607B681B68FA681A607B6800229A6303
:102E30007B68012283F821207B68002283F8202010
:102E4000002318461437BD4680BC7047F8FFFDBF0D
:102E5000CDCCCCCC0000024080B586B000AFF8608D
:102E6000B9607A603B600023FB75FB6893F8203003
:102E7000012B01D102234BE0FB68012283F82020C3
:102E8000FB6893F82130DBB2012B3AD1FB680222B8
:102E900083F82120FB6800229A63FB681B681A688C
:102EA000FB681B6822F001021A603B687A68B96807
:102EB000F86800F073F9FB68DB6A002B08D0FB6848
:102EC0001B681A68FB681B6842F00E021A600FE06C
:102ED000FB681B681A68FB681B6822F004021A6012
:102EE000FB681B681A68FB681B6842F00A021A60DC
:102EF000FB681B681A68FB681B6842F001021A60D5
:102F000005E0FB68002283F820200223FB75FB7D8F
:102F100018461837BD4680BD80B485B000AF7860D4
:102F20000023FB737B6893F82130DBB2022B08D0BF
:102F30007B6804229A637B68002283F820200123A7
:102F400020E07B681B681A687B681B6822F00E0211
:102F50001A607B681B681A687B681B6822F0010294
:102F60001A607B681A6C7B68DB6B012101FA02F244
:102F70005A607B68012283F821207B68002283F855
:102F80002020FB7B18461437BD4680BC70470000EC
:102F900080B584B000AF78607B68DB6B1B68FB603A
:102FA0007B681B681B68BB607B681B6C04229A40B3
:102FB000FB681340002B4FD0BB6803F00403002BC9
:102FC0004AD07B681B681B6803F02003002B07D1E5
:102FD0007B681B681A687B681B6822F004021A6011
:102FE0007B681B68664A934229D07B681B68654AE8
:102FF000934222D07B681B68634A93421AD07B6855
:103000001B68624A934212D07B681B68604A9342F5
:103010000AD07B681B685F4A934202D14FF4800359
:103020000EE04FF080630BE04FF4802308E04FF494
:10303000804305E04FF4806302E0402300E0042376
:10304000554A53607B68DB6A002B00F094807B68F4
:10305000DB6A786898478EE07B681B6C02229A4096
:10306000FB681340002B56D0BB6803F00203002B13
:1030700051D07B681B681B6803F02003002B0BD129
:103080007B681B681A687B681B6822F00A021A605A
:103090007B68012283F821207B681B68384A9342B1
:1030A00029D07B681B68374A934222D07B681B6813
:1030B000354A93421AD07B681B68344A934212D037
:1030C0007B681B68324A93420AD07B681B68314A8E
:1030D000934202D14FF400130EE04FF000730BE067
:1030E0004FF4003308E04FF4005305E04FF4007351
:1030F00002E0202300E00223274A53607B6800227D
:1031000083F820207B689B6A002B34D07B689B6A05
:10311000786898472FE07B681B6C08229A40FB6810
:103120001340002B28D0BB6803F00803002B23D0EA
:103130007B681B681A687B681B6822F00E021A60A5
:103140007B681A6C7B68DB6B012101FA02F25A6022
:103150007B6801229A637B68012283F821207B68C7
:10316000002283F820207B681B6B002B04D07B6837
:103170001B6B7868984700BF00BF1037BD4680BD05
:10318000080002401C00024030000240440002409F
:10319000580002406C0002400000024080B485B03C
:1031A00000AFF860B9607A603B60FB681A6CFB683E
:1031B000DB6B012101FA02F25A60FB681B683A6876
:1031C0005A60FB685B68102B08D1FB681B687A6843
:1031D0009A60FB681B68BA68DA6007E0FB681B68E6
:1031E000BA689A60FB681B687A68DA6000BF1437B7
:1031F000BD4680BC7047000080B48BB000AF7860E3
:10320000396000237B6200233B6269E101227B6A13
:1032100002FA03F3FB613B681B68FA691340BB6168
:10322000BA69FB699A4240F058813B685B689A4AE8
:1032300093425ED0984A934275D8984A934258D0A8
:10324000964A93426FD8964A934252D0944A9342F8
:1032500069D8944A93424CD0924A934263D8924A96
:10326000934246D0904A93425DD8122B2AD8122B13
:1032700059D801A252F823F0F3320008CD320008E9
:10328000DF32000821330008273300082733000805
:1032900027330008273300082733000827330008A6
:1032A0002733000827330008273300082733000896
:1032B000273300082733000827330008D5320008D9
:1032C000E9320008794A934213D02CE03B68DB686E
:1032D0003B6229E03B68DB6804333B6224E03B68E7
:1032E000DB6808333B621FE03B68DB680C333B6202
:1032F0001AE03B689B68002B02D104233B6213E079
:103300003B689B68012B05D108233B627B68FA6907
:103310001A6109E008233B627B68FA695A6103E09D
:1033200000233B6200E000BFBB69FF2B01D87B6834
:1033300001E07B6804337B61BB69FF2B02D87B6AA9
:103340009B0002E07B6A083B9B003B617B691A683B
:103350000F213B6901FA03F3DB431A40396A3B69E9
:1033600001FA03F31A437B691A603B685B6803F058
:103370008053002B00F0B1804D4B9B694C4A43F0C9
:10338000010393614A4B9B6903F00103BB60BB6877
:10339000484A7B6A9B08023352F82330FB607B6A01
:1033A00003F003039B000F2202FA03F3DB43FA68E6
:1033B0001340FB607B68404A934213D07B683F4ACE
:1033C00093420DD07B683E4A934207D07B683D4ACA
:1033D000934201D1032306E0042304E0022302E028
:1033E000012300E000237A6A02F003029200934076
:1033F000FA681343FB602F497B6A9B080233FA6823
:1034000041F823203B685B6803F48013002B06D04F
:103410002D4B9A682C49BB6913438B6006E02A4BFD
:103420009A68BB69DB43284913408B603B685B6843
:1034300003F40013002B06D0234BDA682249BB6942
:103440001343CB6006E0204BDA68BB69DB431E49BF
:103450001340CB603B685B6803F40033002B06D05D
:10346000194B5A681849BB6913434B6006E0164B69
:103470005A68BB69DB43144913404B603B685B6887
:1034800003F48033002B21D00F4B1A680E49BB691F
:1034900013430B6021E000BF000032100000311028
:1034A0000000221000002110000012100000111076
:1034B000001002400000014000080140000C0140E3
:1034C0000010014000140140000401400B4B1A6839
:1034D000BB69DB43094913400B607B6A01337B62A4
:1034E0003B681A687B6A22FA03F3002B7FF48EAEE6
:1034F00000BF00BF2C37BD4680BC704700040140B0
:1035000080B483B000AF78600B467B8013467B703D
:103510007B78002B03D07A887B681A6103E07B8874
:103520001A047B681A6100BF0C37BD4680BC704727
:1035300080B485B000AF78600B467B807B68DB6829
:10354000FB607A88FB6813401A04FB68D9437B88C8
:103550000B401A437B681A6100BF1437BD4680BC1C
:103560007047000080B582B000AF0346FB80084B77
:103570005A69FB881340002B06D0054AFB8853612B
:10358000FB881846FEF7BAF800BF0837BD4680BD75
:103590000004014080B584B000AF78607B68002BE8
:1035A00001D1012336E07B681B684CF6CC421A60DF
:1035B0007B681B6845F255521A607B681B687A6805
:1035C00052685A607B681B687A6892689A60FFF755
:1035D000DBFAF86011E0FFF7D7FA0246FB68D31A6E
:1035E00041F23C32934208D97B681B68DB6803F0E8
:1035F0000303002B01D003230CE07B681B68DB680E
:1036000003F00303002BE6D17B681B684AF6AA226D
:103610001A60002318461037BD4680BD80B483B0C1
:1036200000AF78607B681B684AF6AA221A60002304
:1036300018460C37BD4680BC7047000080B586B088
:1036400000AF78607B68002B01D1012372E27B68B8
:103650001B6803F00103002B00F08780924B5B682E
:1036600003F00C03042B0CD08F4B5B6803F00C03AE
:10367000082B12D18C4B5B6803F48033B3F5803F89
:103680000BD1894B1B6803F40033002B6CD07B6893
:103690005B68002B68D101234CE27B685B68B3F563
:1036A000803F06D1804B1B687F4A43F48033136010
:1036B0002EE07B685B68002B0CD17B4B1B687A4A41
:1036C00023F480331360784B1B68774A23F48023FC
:1036D00013601DE07B685B68B3F5A02F0CD1724BC3
:1036E0001B68714A43F4802313606F4B1B686E4A5A
:1036F00043F4803313600BE06B4B1B686A4A23F47E
:1037000080331360684B1B68674A23F4802313607F
:103710007B685B68002B13D0FFF736FA386108E04E
:10372000FFF732FA02463B69D31A642B01D903230F
:1037300000E25D4B1B6803F40033002BF0D014E073
:10374000FFF722FA386108E0FFF71EFA02463B69EC
:10375000D31A642B01D90323ECE1534B1B6803F408
:103760000033002BF0D100E000BF7B681B6803F042
:103770000203002B63D04C4B5B6803F00C03002B5F
:103780000BD0494B5B6803F00C03082B1CD1464B54
:103790005B6803F48033002B16D1434B1B6803F0A6
:1037A0000203002B05D07B681B69012B01D001238C
:1037B000C0E13D4B1B6823F0F8027B685B69DB00CE
:1037C000394913430B603AE07B681B69002B20D01A
:1037D000364B01221A60FFF7D7F9386108E0FFF78E
:1037E000D3F902463B69D31A022B01D90323A1E185
:1037F0002D4B1B6803F00203002BF0D02A4B1B68F3
:1038000023F0F8027B685B69DB00274913430B60F8
:1038100015E0264B00221A60FFF7B6F9386108E080
:10382000FFF7B2F902463B69D31A022B01D90323F1
:1038300080E11D4B1B6803F00203002BF0D17B6875
:103840001B6803F00803002B3AD07B689B69002BB0
:1038500019D0174B01221A60FFF796F9386108E07A
:10386000FFF792F902463B69D31A022B01D90323D1
:1038700060E10D4B5B6A03F00203002BF0D00120E6
:1038800000F0EAFA1CE00A4B00221A60FFF77CF90C
:1038900038610FE0FFF778F902463B69D31A022B33
:1038A00008D9032346E100BF001002400000424255
:1038B00080044242924B5B6A03F00203002BE9D181
:1038C0007B681B6803F00403002B00F0A680002334
:1038D000FB758B4BDB6903F08053002B0DD1884BBC
:1038E000DB69874A43F08053D361854BDB6903F082
:1038F0008053BB60BB680123FB75824B1B6803F4DC
:103900008073002B18D17F4B1B687E4A43F4807371
:103910001360FFF739F9386108E0FFF735F902461F
:103920003B69D31A642B01D9032303E1754B1B6850
:1039300003F48073002BF0D07B68DB68012B06D189
:103940006F4B1B6A6E4A43F0010313622DE07B68E4
:10395000DB68002B0CD16A4B1B6A694A23F0010318
:103960001362674B1B6A664A23F0040313621CE070
:103970007B68DB68052B0CD1614B1B6A604A43F006
:10398000040313625E4B1B6A5D4A43F0010313623A
:103990000BE05B4B1B6A5A4A23F001031362584B3E
:1039A0001B6A574A23F0040313627B68DB68002B11
:1039B00015D0FFF7E9F838610AE0FFF7E5F80246AD
:1039C0003B69D31A41F28832934201D90323B1E013
:1039D0004B4B1B6A03F00203002BEED014E0FFF701
:1039E000D3F838610AE0FFF7CFF802463B69D31AF3
:1039F00041F28832934201D903239BE0404B1B6A7A
:103A000003F00203002BEED1FB7D012B05D13C4BD3
:103A1000DB693B4A23F08053D3617B68DB69002B71
:103A200000F08780364B5B6803F00C03082B61D0F5
:103A30007B68DB69022B46D1334B00221A60FFF70B
:103A4000A3F8386108E0FFF79FF802463B69D31AF4
:103A5000022B01D903236DE0294B1B6803F000738F
:103A6000002BF0D17B681B6AB3F5803F08D1244B53
:103A70005B6823F400327B689B68214913434B60E9
:103A80001F4B5B6823F474127B68196A7B685B6A5E
:103A90000B431B4913434B601B4B01221A60FFF77A
:103AA00073F8386108E0FFF76FF802463B69D31AF4
:103AB000022B01D903233DE0114B1B6803F0007377
:103AC000002BF0D035E0104B00221A60FFF75CF8B5
:103AD000386108E0FFF758F802463B69D31A022B19
:103AE00001D9032326E0064B1B6803F00073002B6B
:103AF000F0D11EE07B68DB69012B07D1012319E0BF
:103B00000010024000700040600042420B4B5B68B6
:103B1000FB60FB6803F480327B681B6A9A4206D123
:103B2000FB6803F470127B685B6A9A4201D0012340
:103B300000E0002318461837BD4680BD0010024043
:103B400080B584B000AF786039607B68002B01D10C
:103B50000123D0E06A4B1B6803F007033A689A42DE
:103B600010D9674B1B6823F0070265493B68134374
:103B70000B60634B1B6803F007033A689A4201D05D
:103B80000123B8E07B681B6803F00203002B20D000
:103B90007B681B6803F00403002B05D0594B5B685E
:103BA000584A43F4E06353607B681B6803F00803E2
:103BB000002B05D0534B5B68524A43F4605353606B
:103BC000504B5B6823F0F0027B689B684D491343C0
:103BD0004B607B681B6803F00103002B40D07B68BF
:103BE0005B68012B07D1474B1B6803F40033002BA4
:103BF00015D101237FE07B685B68022B07D1414B25
:103C00001B6803F00073002B09D1012373E03D4BC7
:103C10001B6803F00203002B01D101236BE0394B39
:103C20005B6823F003027B685B68364913434B6093
:103C3000FEF7AAFFF8600AE0FEF7A6FF0246FB685F
:103C4000D31A41F28832934201D9032353E02D4B1A
:103C50005B6803F00C027B685B689B009A42EBD1C7
:103C6000274B1B6803F007033A689A4210D2244B93
:103C70001B6823F0070222493B6813430B60204B6B
:103C80001B6803F007033A689A4201D0012332E02F
:103C90007B681B6803F00403002B08D0194B5B689A
:103CA00023F4E0627B68DB68164913434B607B6852
:103CB0001B6803F00803002B09D0124B5B6823F448
:103CC00060527B681B69DB000E4913434B6000F0B8
:103CD00021F802460B4B5B681B0903F00F030A49EE
:103CE000CB5C22FA03F3094A1360094B1B681846A0
:103CF000FEF71EFE002318461037BD4680BD00BFEC
:103D00000020024000100240908A00083800002085
:103D10003C00002080B487B000AF0023FB6000238C
:103D2000BB6000237B6100237B6000233B611E4B53
:103D30005B68FB60FB6803F00C03042B02D0082BCC
:103D400003D027E0194B3B6127E0FB689B0C03F095
:103D50000F03174AD35C7B60FB6803F48033002BAE
:103D600010D0114B5B685B0C03F00103114AD35C6C
:103D7000BB607B680D4A03FB02F2BB68B2FBF3F346
:103D80007B6104E07B680C4A02FB03F37B617B6987
:103D90003B6102E0054B3B6100BF3B6918461C37A5
:103DA000BD4680BC704700BF0010024000127A0080
:103DB000A88A0008B88A000800093D0080B400AF56
:103DC000024B1B681846BD4680BC70473800002077
:103DD00080B500AFFFF7F2FF0246054B5B681B0A98
:103DE00003F007030349CB5C22FA03F3184680BDB6
:103DF00000100240A08A000880B483B000AF786051
:103E000039607B680F221A60114B5B6803F0030274
:103E10007B685A600E4B5B6803F0F0027B689A6027
:103E20000B4B5B6803F4E0627B68DA60084B5B680D
:103E3000DB0803F4E0627B681A61064B1B6803F041
:103E400007023B681A6000BF0C37BD4680BC704754
:103E5000001002400020024080B485B000AF7860BE
:103E60000A4B1B680A4AA2FB03235B0A7A6802FB1F
:103E700003F3FB6000BFFB685A1EFA60002BF9D108
:103E800000BF00BF1437BD4680BC7047380000201B
:103E9000D34D621080B582B000AF78607B68002B94
:103EA00001D1012376E07B685B6A002B08D17B6837
:103EB0005B68B3F5827F09D07B680022DA6105E098
:103EC0007B6800221A617B6800225A617B680022AD
:103ED0009A627B6893F85130DBB2002B06D17B6885
:103EE000002283F850207868FEF7F0FB7B680222FE
:103EF00083F851207B681B681A687B681B6822F076
:103F000040021A607B685B6803F482727B689B687E
:103F100003F404431A437B68DB6803F400631A4329
:103F20007B681B6903F002031A437B685B6903F03B
:103F300001031A437B689B6903F400731A437B688F
:103F4000DB6903F038031A437B681B6A03F08003C4
:103F500042EA03017B689B6A03F400527B681B689A
:103F60000A431A607B689B691A0C7B681B6802F025
:103F700004025A607B681B68DA697B681B6822F45C
:103F80000062DA617B6800225A657B68012283F84F
:103F90005120002318460837BD4680BD80B588B043
:103FA00000AFF860B9603B601346FB80FEF7ECFDA4
:103FB000F861FB887B83FB6893F85130DBB2012BFF
:103FC00001D002232AE1BB68002B02D0FB88002B22
:103FD00001D1012322E1FB6893F85030012B01D17C
:103FE00002231BE1FB68012283F85020FB680322B7
:103FF00083F85120FB6800225A65FB68BA681A638F
:10400000FB68FA889A86FB68FA88DA86FB680022E1
:104010009A63FB6800229A87FB680022DA87FB68B4
:1040200000225A64FB6800221A64FB689B68B3F59F
:10403000004F0FD1FB681B681A68FB681B6822F0F1
:1040400040021A60FB681B681A68FB681B6842F430
:1040500080421A60FB681B681B6803F04003402B1A
:1040600007D0FB681B681A68FB681B6842F04002B7
:104070001A60FB68DB68B3F5006F52D1FB685B68C0
:10408000002B02D07B8B012B45D1FB681B6B1A8860
:10409000FB681B68DA60FB681B6B9A1CFB681A6381
:1040A000FB68DB8E9BB2013B9AB2FB68DA8632E09A
:1040B000FB681B689B6803F00203022B12D1FB68AC
:1040C0001B6B1A88FB681B68DA60FB681B6B9A1C09
:1040D000FB681A63FB68DB8E9BB2013B9AB2FB68FC
:1040E000DA8618E0FEF750FD0246FB69D31A3A68FB
:1040F0009A4203D83B68B3F1FF3F02D13B68002BE3
:1041000009D1FB68012283F85120FB68002283F863
:104110005020032382E0FB68DB8E9BB2002BC7D1CB
:1041200053E0FB685B68002B02D07B8B012B47D1EF
:10413000FB681A6BFB681B680C3312781A70FB68FB
:104140001B6B5A1CFB681A63FB68DB8E9BB2013B3E
:104150009AB2FB68DA8633E0FB681B689B6803F061
:104160000203022B13D1FB681A6BFB681B680C332C
:1041700012781A70FB681B6B5A1CFB681A63FB6889
:10418000DB8E9BB2013B9AB2FB68DA8618E0FEF741
:10419000FBFC0246FB69D31A3A689A4203D83B6893
:1041A000B3F1FF3F02D13B68002B09D1FB6801222C
:1041B00083F85120FB68002283F8502003232DE070
:1041C000FB68DB8E9BB2002BC6D1FA693968F868B0
:1041D00001F0B4F80346002B02D0FB6820225A6598
:1041E000FB689B68002B0AD100237B61FB681B687E
:1041F000DB687B61FB681B689B687B617B69FB6894
:10420000012283F85120FB68002283F85020FB68CC
:104210005B6D002B01D0012300E0002318462037FE
:10422000BD4680BD80B588B002AFF860B9603B6024
:104230001346FB80FB6893F85130DBB2012B01D0B1
:10424000022304E1FB685B68B3F5827F12D1FB684F
:104250009B68002B0ED1FB68042283F85120FA885A
:104260003B6800931346BA68B968F86800F0F3F841
:104270000346ECE0FEF788FC7861BB68002B02D0B7
:10428000FB88002B01D10123E1E0FB6893F850305B
:10429000012B01D10223DAE0FB68012283F85020D0
:1042A000FB68042283F85120FB6800225A65FB68F2
:1042B000BA689A63FB68FA889A87FB68FA88DA8793
:1042C000FB6800221A63FB6800229A86FB680022C2
:1042D000DA86FB6800221A64FB6800225A64FB68D5
:1042E0009B68B3F5004F0FD1FB681B681A68FB6829
:1042F0001B6822F040021A60FB681B681A68FB68A2
:104300001B6822F480421A60FB681B681B6803F07C
:104310004003402B07D0FB681B681A68FB681B68CA
:1043200042F040021A60FB68DB68002B70D135E078
:10433000FB681B689B6803F00103012B15D1FB6828
:104340001B6803F10C02FB689B6B1278D2B21A70E7
:10435000FB689B6B5A1CFB689A63FB68DB8F9BB204
:10436000013B9AB2FB68DA8718E0FEF70DFC0246C3
:104370007B69D31A3A689A4203D83B68B3F1FF3F8E
:1043800002D13B68002B09D1FB68012283F8512040
:10439000FB68002283F85020032358E0FB68DB8F82
:1043A0009BB2002BC4D138E0FB681B689B6803F00C
:1043B0000103012B13D1FB681B68DA68FB689B6B58
:1043C00092B21A80FB689B6B9A1CFB689A63FB682D
:1043D000DB8F9BB2013B9AB2FB68DA8718E0FEF7ED
:1043E000D3FB02467B69D31A3A689A4203D83B68EA
:1043F000B3F1FF3F02D13B68002B09D1FB680122DA
:1044000083F85120FB68002283F8502003231EE02C
:10441000FB68DB8F9BB2002BC6D17A693968F868DC
:1044200000F03AFF0346002B02D0FB6820225A65B9
:10443000FB68012283F85120FB68002283F850209A
:10444000FB685B6D002B01D0012300E000231846C0
:104450001837BD4680BD80B58AB000AFF860B9603E
:104460007A607B8001237B62FEF78EFB3862FB68FB
:1044700093F85130FB77FB685B68BB617B88FB82FC
:10448000FB7F012B0CD0BB69B3F5827F06D1FB68A3
:104490009B68002B02D1FB7F042B01D002237FE11C
:1044A000BB68002B05D07B68002B02D07B88002BDB
:1044B00001D1012374E1FB6893F85030012B01D145
:1044C00002236DE1FB68012283F85020FB6893F81A
:1044D0005130DBB2042B03D0FB68052283F8512056
:1044E000FB6800225A65FB687A689A63FB687A88E1
:1044F000DA87FB687A889A87FB68BA681A63FB6870
:104500007A88DA86FB687A889A86FB6800221A64C1
:10451000FB6800225A64FB681B681B6803F04003B9
:10452000402B07D0FB681B681A68FB681B6842F0C9
:1045300040021A60FB68DB68B3F5006F7ED1FB6850
:104540005B68002B02D0FB8A012B6CD1FB681B6BD4
:104550001A88FB681B68DA60FB681B6B9A1CFB6897
:104560001A63FB68DB8E9BB2013B9AB2FB68DA866A
:1045700059E0FB681B689B6803F00203022B1BD108
:10458000FB68DB8E9BB2002B16D07B6A012B13D10C
:10459000FB681B6B1A88FB681B68DA60FB681B6B87
:1045A0009A1CFB681A63FB68DB8E9BB2013B9AB2D4
:1045B000FB68DA8600237B62FB681B689B6803F05C
:1045C0000103012B19D1FB68DB8F9BB2002B14D0A8
:1045D000FB681B68DA68FB689B6B92B21A80FB6809
:1045E0009B6B9A1CFB689A63FB68DB8F9BB2013B59
:1045F0009AB2FB68DA8701237B62FEF7C5FA0246AE
:104600003B6AD31A3A6B9A420DD83B6BB3F1FF3F2A
:1046100009D0FB68012283F85120FB68002283F84F
:1046200050200323BCE0FB68DB8E9BB2002BA0D1A3
:10463000FB68DB8F9BB2002B9BD182E0FB685B6841
:10464000002B02D0FB8A012B71D1FB681A6BFB682F
:104650001B680C3312781A70FB681B6B5A1CFB68C2
:104660001A63FB68DB8E9BB2013B9AB2FB68DA8669
:104670005DE0FB681B689B6803F00203022B1CD102
:10468000FB68DB8E9BB2002B17D07B6A012B14D109
:10469000FB681A6BFB681B680C3312781A70FB6896
:1046A0001B6B5A1CFB681A63FB68DB8E9BB2013BD9
:1046B0009AB2FB68DA8600237B62FB681B689B6802
:1046C00003F00103012B19D1FB68DB8F9BB2002B98
:1046D00014D0FB681B68DA68FB689B6BD2B21A7057
:1046E000FB689B6B5A1CFB689A63FB68DB8F9BB271
:1046F000013B9AB2FB68DA8701237B62FEF744FA3A
:1047000002463B6AD31A3A6B9A4203D83B6BB3F129
:10471000FF3F02D13B6B002B09D1FB68012283F8DC
:104720005120FB68002283F85020032338E0FB6807
:10473000DB8E9BB2002B9CD1FB68DB8F9BB2002BE6
:1047400097D13A6A396BF86800F0F8FD0346002B00
:1047500008D0FB6820225A65FB68002283F85020AD
:1047600001231DE0FB689B68002B0AD100233B61FD
:10477000FB681B68DB683B61FB681B689B683B61EF
:104780003B69FB68012283F85120FB68002283F813
:104790005020FB685B6D002B01D0012300E000235B
:1047A00018462837BD4680BD80B584B000AFF8609C
:1047B000B9601346FB80FB6893F85130DBB2012BE4
:1047C00001D0022397E0BB68002B02D0FB88002BAE
:1047D00001D101238FE0FB6893F85030012B01D108
:1047E000022388E0FB68012283F85020FB68032243
:1047F00083F85120FB6800225A65FB68BA681A6387
:10480000FB68FA889A86FB68FA88DA86FB680022D9
:104810009A63FB6800225A64FB6800221A64FB68F2
:1048200000229A87FB680022DA87FB689B68B3F551
:10483000004F0FD1FB681B681A68FB681B6822F0E9
:1048400040021A60FB681B681A68FB681B6842F428
:1048500080421A60FB689B6C294ADA62FB689B6C99
:10486000284A9A62FB689B6C274A1A63FB689B6C18
:1048700000225A63FB68986CFB681B6B1946FB6847
:104880001B680C331A46FB68DB8E9BB2FEF7E4FA1A
:104890000346002B0BD0FB685B6D43F01002FB68F6
:1048A0005A65FB68002283F85020012323E0FB684F
:1048B0001B681B6803F04003402B07D0FB681B6894
:1048C0001A68FB681B6842F040021A60FB6800220D
:1048D00083F85020FB681B685A68FB681B6842F02D
:1048E00020025A60FB681B685A68FB681B6842F02C
:1048F00002025A60002318461037BD4680BD00BF33
:10490000F55000081B4F00084951000880B584B0DD
:1049100000AFF860B9601346FB80FB6893F8513034
:10492000DBB2012B01D00223A9E0FB689B68002BBE
:1049300010D1FB685B68B3F5827F0BD1FB68042262
:1049400083F85120FB88BA68B968F86800F0A2F8CB
:10495000034694E0BB68002B02D0FB88002B01D1FA
:1049600001238CE0FB6893F85030012B01D1022326
:1049700085E0FB68012283F85020FB68042283F85D
:104980005120FB6800225A65FB68BA689A63FB688D
:10499000FA889A87FB68FA88DA87FB6800221A642B
:1049A000FB6800225A64FB6800229A86FB6800229A
:1049B000DA86FB689B68B3F5004F0FD1FB681B6874
:1049C0001A68FB681B6822F040021A60FB681B68CB
:1049D0001A68FB681B6822F480421A60FB68DB6C73
:1049E000294ADA62FB68DB6C284A9A62FB68DB6C56
:1049F000274A1A63FB68DB6C00225A63FB68D86C99
:104A0000FB681B680C331946FB689B6B1A46FB68F6
:104A1000DB8F9BB2FEF720FA0346002B0BD0FB681E
:104A20005B6D43F01002FB685A65FB68002283F857
:104A30005020012323E0FB681B681B6803F0400340
:104A4000402B07D0FB681B681A68FB681B6842F0A4
:104A500040021A60FB68002283F85020FB681B6844
:104A60005A68FB681B6842F020025A60FB681B68AA
:104A70005A68FB681B6842F001025A60002318461E
:104A80001037BD4680BD00BF11510008C14F00085E
:104A90004951000880B586B000AFF860B9607A600F
:104AA0007B80FB6893F85130FB75FB685B683B616A
:104AB000FB7D012B0CD03B69B3F5827F06D1FB68EF
:104AC0009B68002B02D1FB7D042B01D00223CFE099
:104AD000BB68002B05D07B68002B02D07B88002BA5
:104AE00001D10123C4E0FB6893F85030012B01D1C0
:104AF0000223BDE0FB68012283F85020FB6893F895
:104B00005130DBB2042B03D0FB68052283F851201F
:104B1000FB6800225A65FB68BA681A63FB687A88EA
:104B20009A86FB687A88DA86FB687A689A63FB68FB
:104B30007A889A87FB687A88DA87FB6800221A6489
:104B4000FB6800225A64FB6893F85130DBB2042BF7
:104B500008D1FB68DB6C484ADA62FB68DB6C474AC9
:104B60009A6207E0FB68DB6C454ADA62FB68DB6C43
:104B7000444A9A62FB68DB6C434A1A63FB68DB6C4D
:104B800000225A63FB68D86CFB681B680C3319461B
:104B9000FB689B6B1A46FB68DB8F9BB2FEF75CF9E8
:104BA0000346002B0BD0FB685B6D43F01002FB68E3
:104BB0005A65FB68002283F85020012358E0FB6807
:104BC0001B685A68FB681B6842F001025A60FB6868
:104BD0009B6C0022DA62FB689B6C00229A62FB6885
:104BE0009B6C00221A63FB689B6C00225A63FB6873
:104BF000986CFB681B6B1946FB681B680C331A46E4
:104C0000FB68DB8E9BB2FEF727F90346002B0BD027
:104C1000FB685B6D43F01002FB685A65FB6800227D
:104C200083F85020012323E0FB681B681B6803F016
:104C30004003402B07D0FB681B681A68FB681B68A1
:104C400042F040021A60FB68002283F85020FB68A3
:104C50001B685A68FB681B6842F020025A60FB68B8
:104C60001B685A68FB681B6842F002025A60002306
:104C700018461837BD4680BD11510008C14F0008C5
:104C80002D510008675000084951000880B586B0D2
:104C900000AF78600023FB756A4B1B686A4AA2FB71
:104CA00003235B0A642202FB03F3FB60FB683B61A6
:104CB0007B681B685A687B681B6822F020025A6078
:104CC0007B681B685B6803F08003002B17D07B6850
:104CD0005E4A5A643B69002B06D17B685B6D43F0EA
:104CE00040027B685A6508E03B69013B3B617B6899
:104CF00093F85130DBB2072BECD1FB683B617B684A
:104D00001B685B6803F04003002B17D07B68504A98
:104D10001A643B69002B06D17B685B6D43F040024F
:104D20007B685A6508E03B69013B3B617B6893F80F
:104D30005130DBB2072BECD1FB683B617B681B6811
:104D40005B6803F00203002B2ED07B689B6C002B6A
:104D50002AD07B689B6C00225A637B689B6C184648
:104D6000FEF7DAF80346002B02D07B6840225A6532
:104D70007B681B685A687B681B6822F002025A60D5
:104D80003B69002B06D17B685B6D43F040027B687A
:104D90005A6509E03B69013B3B617B681B689B6886
:104DA00003F00203002BEBD07B681B685B6803F009
:104DB0000103002B22D07B68DB6C002B1ED07B68AC
:104DC000DB6C00225A637B68DB6C1846FEF7A4F8A4
:104DD0000346002B02D07B6840225A657B681B6823
:104DE0001A687B681B6822F040021A607B681B68A7
:104DF0005A687B681B6822F001025A607B680022B7
:104E0000DA877B680022DA867B685B6D402B02D1F3
:104E10000123FB7502E07B6800225A650023BB601A
:104E20007B681B68DB68BB607B681B689B68BB603A
:104E3000BB687B68012283F85120FB7D1846183738
:104E4000BD4680BD38000020F11976052D540008BC
:104E5000A153000880B584B000AF78600023FB73D5
:104E60007B689B6C002B0FD07B689B6C1846FEF711
:104E700053F80346002B07D07B685B6D43F01002AC
:104E80007B685A650123FB737B68DB6C002B0FD0BA
:104E90007B68DB6C1846FEF73FF80346002B07D013
:104EA0007B685B6D43F010027B685A650123FB73DE
:104EB0007B681B685A687B681B6822F003025A6093
:104EC0007B68012283F85120FB7B18461037BD46D2
:104ED00080BD80B483B000AF786000BF0C37BD46A2
:104EE00080BC704780B483B000AF786000BF0C37DF
:104EF000BD4680BC704780B483B000AF786000BF0F
:104F00000C37BD4680BC704780B483B000AF78607A
:104F100000BF0C37BD4680BC704780B586B000AF7F
:104F200078607B685B6A7B61FDF72EFE38617B6889
:104F30001B681B6803F02003202B3BD07B691B6898
:104F40005A687B691B6822F020025A607B691B68E3
:104F50005A687B691B6822F002025A603A69642130
:104F6000786900F0EBF90346002B05D07B695B6D97
:104F700043F020027B695A657B699B68002B0AD14C
:104F80000023FB607B691B68DB68FB607B691B6837
:104F90009B68FB60FB687B690022DA867B690122E3
:104FA00083F851207B695B6D002B03D07869FCF797
:104FB0004DFC02E07869FCF70FFC1837BD4680BD58
:104FC00080B584B000AF78607B685B6AFB60FDF7FA
:104FD000DBFDB8607B681B681B6803F02003202B97
:104FE0003BD0FB681B685A68FB681B6822F02002F4
:104FF0005A60FB689B68002B0DD1FB685B68B3F5BA
:10500000827F08D1FB681B685A68FB681B6822F026
:1050100003025A6007E0FB681B685A68FB681B685C
:1050200022F001025A60BA686421F86800F034F98D
:105030000346002B02D0FB6820225A65FB68002241
:10504000DA87FB68012283F85120FB685B6D002B37
:1050500003D0F868FCF7FAFB02E0F868FCF782FB83
:105060001037BD4680BD80B584B000AF78607B68E6
:105070005B6AFB60FDF788FDB8607B681B681B6896
:1050800003F02003202B2FD0FB681B685A68FB68B5
:105090001B6822F020025A60BA686421F86800F0A8
:1050A0004DF90346002B05D0FB685B6D43F02002F1
:1050B000FB685A65FB681B685A68FB681B6822F02E
:1050C00003025A60FB680022DA86FB680022DA8756
:1050D000FB68012283F85120FB685B6D002B03D035
:1050E000F868FCF7B3FB02E0F868FFF7F2FE103750
:1050F000BD4680BD80B584B000AF78607B685B6AD8
:10510000FB60F868FFF7EEFE00BF1037BD4680BDBC
:1051100080B584B000AF78607B685B6AFB60F8683C
:10512000FFF7E9FE00BF1037BD4680BD80B584B0F3
:1051300000AF78607B685B6AFB60F868FFF7E4FEAD
:1051400000BF1037BD4680BD80B584B000AF786029
:105150007B685B6AFB60FB681B685A68FB681B68BE
:1051600022F003025A60FB685B6D43F01002FB689B
:105170005A65FB68012283F85120F868FCF766FB4A
:1051800000BF1037BD4680BD80B588B000AFF86065
:10519000B9603B601346FB71FDF7F6FC0246BB6A43
:1051A0009B1A3A681344FB61FDF7EEFCB861394B7A
:1051B0001B685B011B0DFA6902FB03F37B6154E082
:1051C0003B68B3F1FF3F50D0FDF7DEFC0246BB6900
:1051D000D31AFA699A4202D9FB69002B3DD1FB68C8
:1051E0001B685A68FB681B6822F0E0025A60FB6883
:1051F0005B68B3F5827F11D1FB689B68B3F5004F04
:1052000004D0FB689B68B3F5806F07D1FB681B680F
:105210001A68FB681B6822F040021A60FB689B6AF0
:10522000B3F5005F0FD1FB681B681A68FB681B6849
:1052300022F400521A60FB681B681A68FB681B683E
:1052400042F400521A60FB68012283F85120FB6887
:10525000002283F85020032317E07B69002B01D143
:105260000023FB617B69013B7B61FB681B689A68DB
:10527000BB681340BA689A420CBF01230023DBB21B
:105280001A46FB799A429BD1002318462037BD4627
:1052900080BD00BF3800002080B586B002AFF86046
:1052A000B9607A60FB685B68B3F5827F11D1FB68F7
:1052B0009B68B3F5004F04D0FB689B68B3F5806F23
:1052C00007D1FB681B681A68FB681B6822F0400264
:1052D0001A60FB685B68B3F5827F17D1FB689B6837
:1052E000B3F5806F12D17B680093BB680022012167
:1052F000F868FFF749FF0346002B1AD0FB685B6D87
:1053000043F02002FB685A65032313E07B68009397
:10531000BB6800228021F868FFF736FF0346002BA8
:1053200007D0FB685B6D43F02002FB685A650323DE
:1053300000E0002318461037BD4680BD80B586B01A
:1053400002AFF860B9607A607B680093BB680122A5
:105350000221F868FFF718FF0346002B07D0FB680F
:105360005B6D43F02002FB685A65032313E07B6802
:105370000093BB6800228021F868FFF705FF034611
:10538000002B07D0FB685B6D43F02002FB685A6579
:10539000032300E0002318461037BD4680BD0000FF
:1053A00080B485B000AF78600023FB601D4B1B68A4
:1053B0001D4AA2FB03235B0A642202FB03F3BB60CA
:1053C000BB68002B06D17B685B6D43F040027B68B5
:1053D0005A6509E0BB68013BBB607B681B689B6842
:1053E00003F00203002BEBD07B681B681A687B6814
:1053F0001B6822F040021A607B681B685A687B6851
:105400001B6822F0E0025A607B681B68DB68FB6067
:10541000FB687B68072283F8512000BF1437BD4624
:1054200080BC704738000020F119760580B483B045
:1054300000AF78607B681B685A687B681B6822F045
:1054400080025A607B681B681A687B681B6822F0C0
:1054500040021A607B68072283F8512000BF0C3796
:10546000BD4680BC704780B582B000AF78607B6875
:10547000002B01D1012341E07B6893F83D30DBB282
:10548000002B06D17B68002283F83C20786800F06E
:1054900039F87B68022283F83D207B681A687B68B4
:1054A00004331946104600F09DF97B68012283F809
:1054B00046207B68012283F83E207B68012283F826
:1054C0003F207B68012283F840207B68012283F81B
:1054D00041207B68012283F842207B68012283F807
:1054E00043207B68012283F844207B68012283F8F3
:1054F00045207B68012283F83D20002318460837A9
:10550000BD4680BD80B483B000AF786000BF0C376B
:10551000BD4680BC7047000080B485B000AF7860A5
:105520007B6893F83D30DBB2012B01D001233AE0D8
:105530007B68022283F83D207B681B68DA687B6801
:105540001B6842F00102DA607B681B68184A9342CC
:105550000ED07B681B68B3F1804F09D07B681B6855
:10556000144A934204D07B681B68134A934211D1BA
:105570007B681B689B6803F00703FB60FB68062BD6
:1055800010D07B681B681A687B681B6842F00102B8
:105590001A6007E07B681B681A687B681B6842F02A
:1055A00001021A60002318461437BD4680BC7047BC
:1055B000002C0140000400400008004080B584B089
:1055C00000AF78607B681B68DB68FB607B681B68EA
:1055D0001B69BB60BB6803F00203002B20D0FB6893
:1055E00003F00203002B1BD07B681B686FF00202E4
:1055F0001A617B6801221A777B681B689B6903F03C
:105600000303002B03D0786800F0D1F805E0786838
:1056100000F0C4F8786800F0D3F87B6800221A77AD
:10562000BB6803F00403002B20D0FB6803F00403E5
:10563000002B1BD07B681B686FF004021A617B682B
:1056400002221A777B681B689B6903F44073002B66
:1056500003D0786800F0ABF805E0786800F09EF8B9
:10566000786800F0ADF87B6800221A77BB6803F019
:105670000803002B20D0FB6803F00803002B1BD08D
:105680007B681B686FF008021A617B6804221A7736
:105690007B681B68DB6903F00303002B03D0786889
:1056A00000F085F805E0786800F078F8786800F098
:1056B00087F87B6800221A77BB6803F01003002B81
:1056C00020D0FB6803F01003002B1BD07B681B6805
:1056D0006FF010021A617B6808221A777B681B68DA
:1056E000DB6903F44073002B03D0786800F05FF8A7
:1056F00005E0786800F052F8786800F061F87B689F
:1057000000221A77BB6803F00103002B0CD0FB6862
:1057100003F00103002B07D07B681B686FF00102C8
:105720001A617868FCF782FFBB6803F08003002BE6
:105730000CD0FB6803F08003002B07D07B681B684C
:105740006FF080021A61786800F0C3F8BB6803F05C
:105750004003002B0CD0FB6803F04003002B07D064
:105760007B681B686FF040021A61786800F031F8BE
:10577000BB6803F02003002B0CD0FB6803F0200370
:10578000002B07D07B681B686FF020021A617868D5
:1057900000F096F800BF1037BD4680BD80B483B0DE
:1057A00000AF786000BF0C37BD4680BC704780B446
:1057B00083B000AF786000BF0C37BD4680BC704737
:1057C00080B483B000AF786000BF0C37BD4680BCAA
:1057D000704780B483B000AF786000BF0C37BD461F
:1057E00080BC704780B485B000AF786039607B685A
:1057F0001B68FB607B682F4A93420BD07B68B3F138
:10580000804F07D07B682C4A934203D07B682B4A99
:10581000934208D1FB6823F07003FB603B685B6830
:10582000FA681343FB607B68224A93420BD07B6883
:10583000B3F1804F07D07B681F4A934203D07B6847
:105840001E4A934208D1FB6823F44073FB603B6817
:10585000DB68FA681343FB60FB6823F080023B6857
:105860005B691343FB607B68FA681A603B689A685F
:105870007B68DA623B681A687B689A627B680D4ACB
:10588000934203D13B681A697B681A637B680122E3
:105890005A617B681B6903F00103002B05D07B680C
:1058A0001B6923F001027B681A6100BF1437BD46F3
:1058B00080BC7047002C01400004004000080040FC
:1058C00080B483B000AF786000BF0C37BD4680BCA9
:1058D000704780B483B000AF786000BF0C37BD461E
:1058E00080BC704780B485B000AF0346FB800023C6
:1058F000FB60B7F90630842B05D0B7F90620FB68AA
:1059000013440333FB60FB6818461437BD4680BC64
:10591000704780B483B000AFEFF305837B607B6892
:10592000002B14BF01230023DBB218460C37BD4601
:1059300080BC704780B500AF01F04AFC00231846D8
:1059400080BDF0B589B004AF786039607B685B6971
:10595000002B20D07B689B69002B1CD07B685C6887
:105960007B681D687B681E697B68B3F90830184640
:10597000FFF7B8FF01467B685B697A68926902921B
:10598000019300913B6832462946204601F03BFADC
:105990000346FB601CE07B685C687B681D687B6875
:1059A0001B699EB27B68B3F908301846FFF79AFF6F
:1059B000024607F10C03019300923B6832462946E8
:1059C000204601F080FA0346012B01D0002300E0BD
:1059D000FB6818461437BD46F0BD80B584B000AFF3
:1059E00078607B68FB60FB68002B01D0FB6800E0FF
:1059F0000123184601F0B6FB002318461037BD46B8
:105A000080BD80B582B000AF78607B685B68002B9A
:105A100007D07B685B681946012000F00EFC034646
:105A200003E0012000F0F1FB034618460837BD46AD
:105A300080BD000080B584B000AF7860396000237D
:105A4000BB607B68002B01D180233AE00023FB6020
:105A50003B68B3F1FF3F03D14FF0FF33FB6009E038
:105A60003B68002B06D03B68FB60FB68002B01D134
:105A70000123FB60FFF74DFF0346002B17D007F112
:105A800008031A460021786801F014F80346012B38
:105A900001D0FF2315E0BB68002B11D00B4B4FF05A
:105AA00080521A60BFF34F8FBFF36F8F08E0F96821
:105AB000786800F0EFFE0346012B01D0FF2300E0E1
:105AC000002318461037BD4680BD00BF04ED00E03E
:105AD00080B584B000AF78600023FB600023BB601A
