:020000040800F2
:100000000050002015250008552400085D24000834
:10001000652400086D240008752400080000000015
:100020000000000000000000000000000176000851
:100030007D24000800000000E1770008297800080E
:100040005D2500085D2500085D2500085D25000888
:100050005D2500085D250008892400089724000814
:100060005D2500085D2500085D2500085D25000868
:10007000A5240008B9240008CD240008E1240008C4
:100080005D2500085D2500085D2500085D25000848
:100090005D2500085D2500085D2500085D25000838
:1000A0005D2500085D2500085D2500085D25000828
:1000B0005D2500085D250008F52400085D25000881
:1000C0005D2500085D2500085D2500085D25000808
:1000D0005D2500085D2500085D2500085D250008F8
:1000E0005D2500085D2500085D2500080000000072
:1000F0000000000000000000000000000000000000
:0C01000000000000000000005FF808F1A3
:1001100010B5054C237833B9044B13B10448AFF341
:1001200000800123237010BD980000200000000013
:10013000047F000808B5034B1BB103490348AFF324
:10014000008008BD000000009C000020047F000823
:1001500080B489B000AF786039600023FB6130E083
:10016000FB699B003A681A44FB699B0079680B4461
:1001700012781A70FB699B0001333A681A44FB69D4
:100180009B00013379680B4412781A70FB699B005D
:1001900002333A681A44FB699B00023379680B44C6
:1001A00012781A70FB699B0003333A681A44FB69A2
:1001B0009B00033379680B4412781A70FB69013392
:1001C000FB61FB69032BCBD90423FB6181E0FB6955
:1001D000013B9B00BB617A68BB6913441B783B738E
:1001E000BB6901337A6813441B787B73BB690233A4
:1001F0007A6813441B78BB73BB6903337A68134472
:100200001B78FB73FB6903F00303002B25D13B7BB9
:10021000FB757B7B3B73BB7B7B73FB7BBB73FB7D8A
:10022000FB733B7B1A46304B9B5C3B737B7B1A46D4
:100230002D4B9B5C7B73BB7B1A462B4B9B5CBB7330
:10024000FB7B1A46284B9B5CFB733A7BFB699B0844
:100250002649CB5C5340DBB23B73FB699B003B619F
:10026000FB69043B9B00BB617A68BB691344197846
:100270003A7B78683B6903444A40D2B21A70BB6942
:1002800001337A68134419787A7B3B6901337868C3
:1002900003444A40D2B21A70BB6902337A681344ED
:1002A0001978BA7B3B690233786803444A40D2B27A
:1002B0001A70BB6903337A6813441978FA7B3B6977
:1002C0000333786803444A40D2B21A70FB690133A1
:1002D000FB61FB692B2B7FF67AAF00BF00BF243791
:1002E000BD4680BC704700BF4C8000084C810008B0
:1002F00080B584B000AFF860B9607A60FB68B96817
:100300001846FFF725FFFB68B033102279681846BE
:1003100007F096FD00BF1037BD4680BD80B487B0A2
:1003200000AF0346B9607A60FB730023FB7527E0DA
:100330000023BB751EE0FA7DBB7DB96892000A44BC
:1003400013441878FB7B9A00FB7D13449A00BB7D15
:1003500013441A467B6813441978FA7DBB7D4140EB
:10036000C8B2B96892000A44134402461A70BB7DB1
:100370000133BB75BB7D032BDDD9FB7D0133FB75E1
:10038000FB7D032BD4D900BF00BF1C37BD4680BC0A
:100390007047000080B485B000AF78600023FB7325
:1003A0001DE00023BB7314E0BA7BFB7B79689200ED
:1003B0000A4413441B781846BA7BFB7B0C49085C43
:1003C000796892000A44134402461A70BB7B0133D9
:1003D000BB73BB7B032BE7D9FB7B0133FB73FB7B3D
:1003E000032BDED900BF00BF1437BD4680BC704769
:1003F0004C80000880B485B000AF78607B685B7883
:10040000FB737B685A797B685A707B685A7A7B6881
:100410005A717B685A7B7B685A727B68FA7B5A7385
:100420007B689B78FB737B689A7A7B689A707B68A1
:10043000FA7B9A727B689B79FB737B689A7B7B68FB
:100440009A717B68FA7B9A737B68DB78FB737B68B5
:10045000DA7B7B68DA707B68DA7A7B68DA737B68D0
:10046000DA797B68DA727B68FA7BDA7100BF14375D
:10047000BD4680BC704780B483B000AF0346FB71BB
:1004800097F907305B005AB2FB79DB09DBB25BB24C
:10049000194649000B441946C800194603460B4447
:1004A0005BB253405BB2DBB218460C37BD4680BC32
:1004B000704780B584B000AF78600023FB73A4E080
:1004C000FA7B7B6813F82230BB73FA7B7B6813F8E6
:1004D0002220FB7B79689B000B445B785340DAB2A7
:1004E000FB7B79689B000B449B785340DAB2FB7B23
:1004F00079689B000B44DB7853407B73FA7B7B6805
:1005000013F82220FB7B79689B000B445B785340F7
:100510003B733B7B1846FFF7AEFF03463B73FA7B0A
:100520007B6813F822103A7B7B7B5340DBB2FA7B6B
:100530004B40D9B27B6803F82210FB7B7A689B00A2
:1005400013445A78FB7B79689B000B449B7853409B
:100550003B733B7B1846FFF78EFF03463B73FB7BE9
:100560007A689B00134459783A7B7B7B5340DAB21C
:10057000FB7B4A40D1B27A689B0013440A465A700A
:10058000FB7B7A689B0013449A78FB7B79689B001D
:100590000B44DB7853403B733B7B1846FFF76BFF04
:1005A00003463B73FB7B7A689B00134499783A7B44
:1005B0007B7B5340DAB2FB7B4A40D1B27A689B0026
:1005C00013440A469A70FB7B7A689B001344DA78DE
:1005D000BB7B53403B733B7B1846FFF74CFF034606
:1005E0003B73FB7B7A689B001344D9783A7B7B7B17
:1005F0005340DAB2FB7B4A40D1B27A689B00134485
:100600000A46DA70FB7B0133FB73FB7B032B7FF61F
:1006100057AF00BF00BF1037BD4680BD80B584B066
:1006200000AF786039600023FB733A687968002076
:10063000FFF774FE0123FB737868FFF7ABFE786861
:10064000FFF7D8FEFB7B0A2B0CD07868FFF731FF51
:10065000FB7B3A6879681846FFF760FEFB7B013345
:10066000FB73E9E700BF3A6879680A20FFF756FE96
:1006700000BF1037BD4680BD80B485B000AF786044
:1006800039600023FB7310E0FB7B7A681344197810
:10069000FB7B3A6813441A78FB7B786803444A4032
:1006A000D2B21A70FB7B0133FB73FB7B0F2BEBD9B0
:1006B00000BF00BF1437BD4680BC704780B586B010
:1006C00000AFF860B9607A60FB68B0333B6100232B
:1006D0007B6110E03969B868FFF7CEFFFB68194607
:1006E000B868FFF79BFFBB683B61BB681033BB601A
:1006F0007B6910337B617A697B689A42EAD3FB6835
:10070000B03310223969184607F09AFB00BF18373A
:10071000BD4680BD80B586B000AFF860B9601346B5
:10072000FB80BB68B3F86832FA889A423FD8BB684E
:10073000B3F86822FB88D31ABB82BB8ADBB203F012
:100740000F03DBB2C3F11003FB74BB68B3F868326C
:100750001A46FB7C134440F26622934229DC0023B4
:10076000FB750BE0BB68B3F868321A46FB7D134497
:10077000BA68F97CD154FB7D0133FB75FA7DFB7CB3
:100780009A42EFD3BB68B3F86822FB7C9BB2134458
:100790009AB2BB68A3F86822FB88BA68D118BA8AF3
:1007A000FB7C13441A46F868FFF788FF02E000BF9D
:1007B00000E000BF1837BD4680BD000080B483B0A4
:1007C00000AF00237B601DE0134A7B6813440022C6
:1007D0001A70124A7B6840F26A2101FB03F313444A
:1007E00003F51A7300221A800C4A7B6840F26A21D2
:1007F00001FB03F3134403F2662300221A707B68A3
:1008000001337B607B68092BDEDD00BF00BF0C3746
:10081000BD4680BC704700BFD8180020B40000203F
:1008200080B582B000AF00237B60234B1B680A2198
:10083000184604F077FC0346002B37D100233B60B9
:100840002CE01E4A3B6813441B78002B23D11B4A23
:100850003B68134401221A70194A3B6840F26A212E
:1008600001FB03F3134403F51A7300221A80144AA0
:100870003B6840F26A2101FB03F3134403F2662351
:1008800000221A703B6840F26A2202FB03F30C4A12
:1008900013447B6005E03B6801333B603B68092BF8
:1008A000CFDD054B1B68184604F08AFC7B681846B0
:1008B0000837BD4680BD00BFB4370020D8180020DF
:1008C000B400002080B584B000AF78607B68002B56
:1008D00025D0154B1B684FF0FF31184604F022FC61
:1008E0000023FB6012E0FB6840F26A2202FB03F384
:1008F0000E4A13447A689A4205D10D4AFB681344A4
:1009000000221A7005E0FB680133FB60FB68092BCD
:10091000E9DD054B1B68184604F052FC00E000BFFF
:100920001037BD4680BD00BFB4370020B4000020A2
:10093000D818002080B584B000AF78600B46FB70FB
:100940001346BB700023FB7397F9023003F01F03BB
:100950005AB297F9033013435BB2DBB2BB737B68C7
:1009600058687B681B890022194602F0DDFA7B6813
:10097000186807F10E016423012202F0CFFF97F9F6
:100980000230002B07DA7B68186807F10F01642337
:10099000012203F007F97B68186807F10F0164234F
:1009A000012203F0FFF87B6858687B681B890122ED
:1009B000194602F0B9FAFB7B18461037BD4680BDD8
:1009C00080B584B000AF7860084611461A460346E9
:1009D000FB700B46BB7013467B7097F9023003F037
:1009E0001F035AB297F9033013435BB2DBB2FB73B8
:1009F0007B6858687B681B890022194602F094FACC
:100A00007B68186807F10F016423012202F086FF5A
:100A10007B681868791C6423012202F07FFF7B68E1
:100A200058687B681B890122194602F07DFA00BFD5
:100A30001037BD4680BD80B584B000AF78600B46EE
:100A4000FB70FB785B11DBB203F00303FB737B6885
:100A50009B7CFA7B9A420ED003231F22A021786848
:100A6000FFF7AEFFFB7B1F2280217868FFF7A8FF0E
:100A70007B68FA7B9A7400BF1037BD4680BD80B595
:100A800084B000AF78600B46FB70FB78194678683D
:100A9000FFF7D1FFFB781A4600217868FFF74AFF7D
:100AA0000346FB73FB7B18461037BD4680BD000034
:100AB00080B584B000AF78600B46FB707B681B6824
:100AC0001B68164A934206D1154B1B683221184603
:100AD00004F028FB05E0134B1B683221184604F094
:100AE00021FBFB7819467868FFF7C9FF0346FB73C3
:100AF0007B681B681B68094A934205D1084B1B6839
:100B0000184604F05DFB04E0064B1B68184604F031
:100B100057FBFB7B18461037BD4680BD00300140B7
:100B2000AC370020B037002080B582B000AF7860CD
:100B30000B46FB701346BB70FB7819467868FFF7CD
:100B40007AFFBB78FA7840217868FFF739FF00BF59
:100B50000837BD4680BD80B584B000AF78600B46D5
:100B6000FB7013463B80FB781A46D4217868FFF768
:100B7000DBFF3B88DBB21A46D6217868FFF7D4FF4B
:100B80003B881B0A9BB2DBB21A46D7217868FFF775
:100B9000CBFF01F00DFDF86006E001F009FD024613
:100BA000FB68D31A142B09D8EA217868FFF767FF8E
:100BB000034603F00103002BEFD100E000BF103724
:100BC000BD4680BD80B584B000AF786039607B6879
:100BD000D8687B681B8A0022194602F0A5F90A2012
:100BE00001F0F0FC7B68D8687B681B8A01221946FB
:100BF00002F09AF90A2001F0E5FC7B6858687B68EE
:100C00001B890022194602F08FF9FF23FB727B68D3
:100C1000186807F10B016423012202F07FFE7B6854
:100C200058687B681B890122194602F07DF901F0A2
:100C3000BFFCF86007E001F0BBFC0246FB68D31A7A
:100C4000142B00F2A7801D2200217868FFF772FEA6
:100C5000034603F00103002BEDD07B6800225A818C
:100C6000002208217868FFF75FFF002209217868D9
:100C7000FFF75AFFFF220A217868FFF755FF192274
:100C80000B217868FFF750FFFF220C217868FFF7EF
:100C90004BFF19220D217868FFF746FF0D22C02176
:100CA0007868FFF741FF0022C1217868FFF73CFF19
:100CB0003223C22280217868FFF782FE5622CA21A1
:100CC0007868FFF731FF0222CB217868FFF72CFF0D
:100CD0001522C4217868FFF727FF1222C621786801
:100CE000FFF722FF0C22C7217868FFF71DFF3B6842
:100CF0001B781A46E0217868FFF716FF3B6801333E
:100D00001B781A46E1217868FFF70EFF3B68023333
:100D10001B781A46E2217868FFF706FF3B68033329
:100D20001B781A46E3217868FFF7FEFE3B68043320
:100D30001B781A46E4217868FFF7F6FE3B68053316
:100D40001B781A46E5217868FFF7EEFE4FF48072B3
:100D500000217868FFF7FFFE4FF480721021786859
:100D6000FFF7F9FE43F27A4214217868FFF7F3FEA9
:100D7000202238217868FFF7D7FE04231F22802124
:100D80007868FFF71DFEC0231B2280217868FFF7DB
:100D900017FE00E000BF1037BD4680BD80B586B0AD
:100DA00000AFF860B9601346FB80FB681B681B68E6
:100DB000844A934206D1844B1B68C821184604F02C
:100DC000B1F905E0814B1B68C821184604F0AAF967
:100DD00001F0EEFB78611CE01C21F868FFF74FFE84
:100DE000034603F00203002B0CD080231F22802136
:100DF000F868FFF7E5FD80231F22A021F868FFF7C0
:100E0000DFFD12E001F0D4FB02467B69D31A0A2B06
:100E10000AD81F220021F868FFF78CFD034603F073
:100E20000803002BD8D100E000BF0A231C22A02118
:100E3000F868FFF7C5FD00220221F868FFF774FE8D
:100E40001A220321F868FFF76FFEFB685868FB68F9
:100E50001B890022194602F067F87A237B7400236D
:100E60003B74FB68186807F111016423012202F04A
:100E700055FDFB68186807F110016423012202F098
:100E80004DFDFB681B681B684E4A93422CD100BF86
:100E90004F4B1B680021184604F0FAF90346002B5B
:100EA000F6D0FB681B68FA88B968184603F03CF96D
:100EB000474B1B683221184604F0EAF90346002B21
:100EC0003FD0FB681B68184603F0A0FBFB6858681E
:100ED000FB681B890122194602F026F83A4B1B6871
:100EE000184604F06DF969E000BF3A4B1B68002119
:100EF000184604F0CDF90346002BF6D0FB681B68BA
:100F0000FA88B968184603F00FF9324B1B68322192
:100F1000184604F0BDF90346002B12D0FB681B688D
:100F2000184603F073FBFB685868FB681B890122B5
:100F3000194601F0F9FF254B1B68184604F040F9EB
:100F40003CE0FB685868FB681B890122194601F0E8
:100F5000EBFF00220421F868FFF7E6FD1A220521C5
:100F6000F868FFF7E1FDFB8803F5D0537B827B8AAD
:100F7000DBB21A460621F868FFF7D6FD7B8A1B0A0A
:100F80009BB2DBB21A460721F868FFF7CDFD0823B4
:100F90001F228021F868FFF713FDFB681B681B68A0
:100FA000084A934205D1084B1B68184604F008F91B
:100FB00004E0064B1B68184604F002F91837BD46DA
:100FC00080BD00BF00300140AC370020B0370020AA
:100FD0009C370020A037002080B58AB000AFF860B1
:100FE000B9601346FB80FB681B681B68A64A9342E6
:100FF00006D1A64B1B68C821184604F093F805E0FB
:10100000A34B1B68C821184604F08CF83921F868F6
:10101000FFF735FD0346002B12D1FB681B681B68E8
:10102000994A934205D1994B1B68184604F0C8F8B9
:1010300004E0974B1B68184604F0C2F8002380E1D7
:10104000FB685B89DBB21A460021F868FFF76CFD8C
:10105000FB685B891B0A9BB2DBB21A460121F86868
:10106000FFF762FDFB685868FB681B890022194680
:1010700001F05AFF3A237B76FB68186807F11901E3
:101080006423012202F04AFCFB68186807F1100192
:101090006423062202F086FD3B7C1AB27B7C1BB2E5
:1010A0001B021BB213431BB2BB84BB7C1AB2FB7C7A
:1010B0001BB21B021BB213431BB29BB2043B7B84CB
:1010C0003B7D1AB27B7D1BB21B021BB213431BB2CA
:1010D0003B843B8C03F08003002B03D07A8CFB888D
:1010E0009A4228D9FB685868FB681B890122194677
:1010F00001F01AFFBB8CB3F5D05FC0F0D880FB685D
:1011000000225A8140231E228021F868FFF758FCF4
:10111000FB681B681B685C4A934205D15B4B1B68EC
:10112000184604F04DF804E0594B1B68184604F0CB
:1011300047F8002305E1FB681B681B68524A93428D
:1011400051D100BF534B1B680021184604F0A0F892
:101150000346002BF6D0FB681B687A8CB9681846EA
:1011600003F094F84B4B1B683221184604F090F8BA
:101170000346002B00F09280FB681B68184603F0C2
:1011800045FAFB685868FB681B890122194601F083
:10119000CBFEFB68BA8C5A81BB8C002B03D0BB8C76
:1011A000013B9BB201E041F6FF13BB83BB8BDBB27B
:1011B0001A460C21F868FFF7B7FCBB8B1B0A9BB2E1
:1011C000DBB21A460D21F868FFF7AEFC40231E2261
:1011D0008021F868FFF7F4FB2C4B1B68184603F0DE
:1011E000EFFF0023ADE000BF2B4B1B68002118462A
:1011F00004F04EF80346002BF6D0FB681B687A8C8F
:10120000B968184603F042F8234B1B683221184690
:1012100004F03EF80346002B40D0FB681B681846DC
:1012200003F0F4F9FB685868FB681B890122194632
:1012300001F07AFEFB68BA8C5A81BB8C002B03D07C
:10124000BB8C013B9BB201E041F6FF13FB83FB8BA0
:10125000DBB21A460C21F868FFF766FCFB8B1B0A11
:101260009BB2DBB21A460D21F868FFF75DFC402304
:101270001E228021F868FFF7A3FB054B1B68184668
:1012800003F09EFF00235CE000300140AC370020FB
:10129000B03700209C370020A0370020FB6858683A
:1012A000FB681B890122194601F03EFE00E000BFE9
:1012B000FB68BA8C5A81BB8C002B03D0BB8C013BE2
:1012C0009BB201E041F6FF13FB84FB8CB3F5D05FCA
:1012D00002D341F6FF13FB84FB8CDBB21A460C21D0
:1012E000F868FFF721FCFB8C1B0A9BB2DBB21A46A5
:1012F0000D21F868FFF718FC40231E228021F868B2
:10130000FFF75EFB3B8C03F08003002B05D07A8C4B
:10131000FB889A4201D87B8C00E000237B83FB682A
:101320001B681B68094A934205D1094B1B68184684
:1013300003F046FF04E0074B1B68184603F040FF2C
:101340007B8B18462837BD4680BD00BF003001406A
:10135000AC370020B037002080B485B000AFF86013
:10136000B9607A60FB68064A1A60BB68054A1A6071
:101370007B6880221A6000BF1437BD4680BC70476E
:10138000E41800209419002080B584B000AF034613
:10139000FB800023FB60FB88012B08D1114B1B68ED
:1013A00007F10C021146184604F07AFC0AE0FB88AB
:1013B000022B07D10C4B1B6807F10C021146184693
:1013C00004F06EFCFB68002B07D0084B4FF08052F6
:1013D0001A60BFF34F8FBFF36F8F00BF1037BD464A
:1013E00080BD00BFA4370020A837002004ED00E036
:1013F00080B584B000AF78600023FB607B681B6819
:10140000134A934208D1134B1B6807F10C02114693
:10141000184604F045FC0CE07B681B680E4A9342BA
:1014200007D10E4B1B6807F10C021146184604F059
:1014300037FCFB68002B07D0094B4FF080521A6035
:10144000BFF34F8FBFF36F8F00BF1037BD4680BD16
:10145000003001409C37002000380040A0370020B9
:1014600004ED00E080B584B000AF78600023FB603D
:101470007B681B68134A934208D1134B1B6807F122
:101480000C021146184604F00BFC0CE07B681B684C
:101490000E4A934207D10E4B1B6807F10C0211460E
:1014A000184604F0FDFBFB68002B07D0094B4FF0FA
:1014B00080521A60BFF34F8FBFF36F8F00BF10379A
:1014C000BD4680BD003001409C3700200038004000
:1014D000A037002004ED00E080B584B000AF786054
:1014E0000023FB607B681B68134A934208D1134BAF
:1014F0001B6807F10C021146184604F0D1FB0CE002
:101500007B681B680E4A934207D10E4B1B6807F19C
:101510000C021146184604F0C3FBFB68002B07D0F1
:10152000094B4FF080521A60BFF34F8FBFF36F8F9C
:1015300000BF1037BD4680BD003001409C37002001
:1015400000380040A037002004ED00E080B584B0F2
:1015500000AF78600B46FB70FFF762F9F860FB683C
:10156000002B06D140F2662216497868FFF734FD59
:1015700025E0FB6840F2662219467868FFF72CFDEB
:1015800003467B817B89042B03D8F868FFF79AF91F
:1015900015E0FB687A89A3F86822FB68FA7883F87B
:1015A0006622094B1B68F9680022184603F0E6FE24
:1015B0000346002B03D0F868FFF784F900BF10370B
:1015C000BD4680BDBC370020DC36002080B487B02B
:1015D00000AF78600B46FB707B68B3F868320E3B57
:1015E000FB81FB891B0A9BB2DAB27B681A74FB8908
:1015F000DAB27B685A747B6800221A767B68002214
:101600005A7600237B61FB789BB20E33BB810E239D
:101610003B6110E07A683B6913441B781B023A690E
:10162000013279688A5C13431A467B6913447B61F3
:101630003B6902333B61BB893A699A42EADB05E0C8
:101640007B699AB27B691B0C13447B617B691B0C21
:10165000002BF5D17B699BB2DB437B817B891B0A25
:101660009BB2DAB27B681A767B89DAB27B685A76EB
:1016700000BF1C37BD4680BC7047000080B500AF7E
:1016800005490648FFF79EFA05490648FFF79AFA0A
:10169000FFF794F800BF80BD280000200000002064
:1016A0003000002014000020B0B5C0B000AF00F042
:1016B00057FF00F033F900F01BFA00F0E3F900F0F7
:1016C00075F900F0A9F90023C7F8F8300023C7F82E
:1016D000FC300023C7F8F0300023C7F8F4300023B3
:1016E000C7F8E8300023C7F8EC3007F1F8031846D4
:1016F00003F0FFFC0346724A136007F1F00318463B
:1017000003F0F7FC03466F4A136007F1E80318463D
:1017100003F0EFFC03466C4A13600023C7F8E03087
:101720000023C7F8E4300023C7F8D8300023C7F8F7
:10173000DC300023C7F8D0300023C7F8D4300023B2
:10174000C7F8C8300023C7F8CC3007F1E003012107
:10175000184603F06BFD03465C4A136007F1D8039B
:101760000121184603F062FD0346594A136007F150
:10177000D0030121184603F059FD0346554A136072
:1017800007F1C8030121184603F050FD0346524AF1
:101790001360524B07F1B8040FCB84E80F0007F138
:1017A000B8030021184603F0C1FD03464C4A1360FC
:1017B0004C4B07F1A8040FCB84E80F0007F1A803F6
:1017C0000021184603F0B2FD0346474A1360474B19
:1017D00007F18C041D460FCD0FC495E8070084E87F
:1017E000070007F18C030021184603F022FC034692
:1017F0003F4A13603F4B07F170041D460FCD0FC4E5
:1018000095E8070084E8070007F1700300211846F7
:1018100003F00FFC0346384A1360384B07F15404B9
:101820001D460FCD0FC495E8070084E8070007F1B7
:1018300054030021184603F0FCFB0346304A1360B2
:10184000304B07F138041D460FCD0FC495E8070053
:1018500084E8070007F138030021184603F0E9FB8C
:101860000346294A1360294B07F11C041D460FCD7E
:101870000FC495E8070084E8070007F11C03002166
:10188000184603F0D6FB0346214A136007F5807320
:10189000A3F580731F4A1C4615460FCD0FC495E86B
:1018A000070084E807003B460021184603F0C1FB0F
:1018B0000346194A136003F0B5FB00BFFDE700BF04
:1018C000AC370020B0370020B43700209C37002010
:1018D000A0370020A4370020A83700201C7F000874
:1018E000DC3600202C7F000840370020487F0008AD
:1018F000541D0020747F0008581D0020A07F0008A0
:101900000C220020C87F0008C0260020FC7F0008B1
:10191000742B0020288000082834002080B590B067
:1019200000AF07F1180328220021184606F0FCF941
:101930003B1D00221A605A609A60DA601A6109231E
:10194000BB614FF48033FB6100233B620123BB6228
:1019500001233B6302237B634FF48033BB634FF46B
:10196000E013FB6307F11803184601F027FB034659
:10197000002B01D000F080FB0F237B600223BB60B3
:101980000023FB604FF480633B6100237B613B1DC0
:101990000221184601F094FD0346002B01D000F00F
:1019A0006BFB00BF4037BD4680BD000080B500AF77
:1019B000174B184A1A60164B4FF482725A60144B38
:1019C00000229A60124B0022DA60114B00221A6149
:1019D0000F4B00225A610E4B4FF400729A610C4B70
:1019E0000822DA610A4B00221A62094B00225A626D
:1019F000074B00229A62064B0A22DA62044801F081
:101A000009FF0346002B01D000F036FB00BF80BD6C
:101A1000941B00200030014080B500AF174B184ADE
:101A20001A60164B4FF482725A60144B00229A606F
:101A3000124B0022DA60114B00221A610F4B002278
:101A40005A610E4B4FF400729A610C4B0022DA611E
:101A50000A4B00221A62094B00225A62074B0022ED
:101A60009A62064B0A22DA62044801F0D3FE03466A
:101A7000002B01D000F000FB00BF80BDEC1B00205C
:101A80000038004080B582B000AF184B5B69174A40
:101A900043F001035361154B5B6903F001037B6065
:101AA0007B68002205210C2000F065FE0C2000F070
:101AB0007EFE002206210D2000F05DFE0D2000F0CC
:101AC00076FE002205210E2000F055FE0E2000F0CB
:101AD0006EFE002206210F2000F04DFE0F2000F0C8
:101AE00066FE00BF0837BD4680BD00BF0010024043
:101AF00080B588B000AF07F1100300221A605A6069
:101B00009A60DA60494B9B69484A43F0100393613D
:101B1000464B9B6903F01003FB60FB68434B9B69DA
:101B2000424A43F020039361404B9B6903F020033A
:101B3000BB60BB683D4B9B693C4A43F00403936127
:101B40003A4B9B6903F004037B607B68374B9B69CE
:101B5000364A43F008039361344B9B6903F0080352
:101B60003B603B6801224FF40051314801F0DCF941
:101B700001221C212F4801F0D7F901224FF4805196
:101B80002D4801F0D1F900224FF48061294801F07D
:101B9000CBF94FF400533B6101237B610023BB6110
:101BA0000223FB6107F110031946214801F038F8C0
:101BB00003233B61214B7B610123BB6107F11003D0
:101BC00019461C4801F02CF840F21C433B610123EC
:101BD0007B610023BB610223FB6107F110031946FF
:101BE000144801F01DF84FF480533B6101237B61E1
:101BF0000023BB610223FB6107F1100319460E4865
:101C000001F00EF800220521062000F0B4FD0620A8
:101C100000F0CDFD00220521072000F0ACFD0720DB
:101C200000F0C5FD00BF2037BD4680BD001002405A
:101C30000010014000080140000C0140000021108C
:101C400080B582B000AF7860012003F03EFAFBE778
:101C500080B584B000AF786002E00A2003F035FA66
:101C6000114B1B78DBB2002BF7D0104B1B683221D5
:101C7000184603F00DFB0023FB7306E001210C481E
:101C8000FFF764FCFB7B0133FB7339210848FEF747
:101C90000FFF0346002B02D0FB7B052BEED9012062
:101CA00003F013FAE1E700BFB8370020A4370020A3
:101CB0000000002080B584B000AF786002E00A2008
:101CC00003F003FA114B1B78DBB2002BF7D0104B5B
:101CD0001B683221184603F0DBFA0023FB7306E091
:101CE00002210C48FFF732FCFB7B0133FB733921E7
:101CF0000848FEF7DDFE0346002B02D0FB7B052BD8
:101D0000EED9012003F0E1F9E1E700BFB837002088
:101D1000A83700201400002080B586B000AF78609E
:101D200002E00A2003F0D1F9184B1B78DBB2002B3C
:101D3000F7D0174B196807F108033222184603F051
:101D40005DFBBB68102BF4D1FB687B617B6993F86A
:101D50006632012B08D179697B69B3F868321A467B
:101D60000C48FFF71BF80CE07B6993F86632022BF6
:101D700007D179697B69B3F868321A460648FFF7DC
:101D80000DF87869FEF79EFDD3E700BFB837002055
:101D900040370020140000200000002080B592B0E1
:101DA00000AF786002E00A2003F08FF9974B1B78B0
:101DB000DBB2002BF7D0964B196807F118033222DB
:101DC000184603F01BFBBB69102BF4D1FB69FB63C6
:101DD000FB6B1B7B1BB21B021AB2FB6B5B7B1BB248
:101DE00013431BB27B87FB6B1B7D1BB21B021AB21A
:101DF000FB6B5B7D1BB213431BB23B87FB6BDB7D35
:101E000087F837307B8F40F6060293420ED1814B24
:101E10001B68F96B0A22184603F0B0FA0346002B40
:101E200000F0F080F86BFEF74DFDEBE07B8FB3F533
:101E3000006F37D1FB6B1B7C1BB21B021AB2FB6B12
:101E40005B7C1BB213431BB2BB86BB8E0E33FA6B9B
:101E5000B2F86822934205DABB8E0E339AB2FB6B5E
:101E6000A3F8682297F83730012B0ED1694B1B6815
:101E7000F96B0A22184603F081FA0346002B00F0A2
:101E8000C380F86BFEF71EFDBEE097F83730112BCC
:101E900004D13B8FC3F30D03002B07D0F86BFEF783
:101EA00011FDB2E0F86BFEF70DFDAEE0FB6B9B7B26
:101EB00003F00F03DBB29B0087F8333097F8333021
:101EC0009BB216333B86FB6BB3F868321A463B8EE7
:101ED000D31AB3F5007F05DCFB6BB3F868323A8E9A
:101EE0009A4203D3F86BFEF7EDFC8EE0FB6B1A33DE
:101EF000FB6200237B64002387F843301FE097F8E0
:101F0000432013469B0013449B00434A134404227E
:101F10001946F86A05F0F8FE0346002B0AD197F837
:101F2000432013469B0013449B003B4A1344043355
:101F30007B6408E097F84330013387F8433097F823
:101F40004330012BDBD97B6C002B03D1F86BFEF700
:101F5000B9FC5AE007F1080300221A605A609A603F
:101F6000DA6007F108031A46796C2C48FEF7C0F9CD
:101F70003B8E1A46F96B2948FEF7CCFB4FF4806183
:101F8000274800F0E9FFFB6BB3F8682297F833307D
:101F90009BB2D31A9BB20E3B7B8597F833309BB232
:101FA00012333B857B8D1B0A9AB23B8DD1B2FA6B03
:101FB000D1543B8D01337A8DD1B2FA6BD15497F85D
:101FC00033301946F86BFFF701FB97F833309BB2BB
:101FD0001433FB84FB8CFA6B0021D154FB8C01334E
:101FE000FA6B0021D1540B4B1B68F96B0A2218467F
:101FF00003F0C4F90346002B3FF4DDAEF86BFEF7A7
:1020000061FCD8E600BFD6E600BFD4E6B8370020B2
:10201000DC3600204037002058810008243A002098
:102020000008014080B582B000AF7860FFF726FB62
:10203000064B01221A704FF40051054800F08CFF46
:102040004FF4FA7003F041F800BFF4E7B83700200E
:102050000010014080B582B000AF78607B681B68DB
:10206000044A934201D100F091FA00BF0837BD46FF
:1020700080BD00BF0008004080B400AF72B600BF52
:1020800000BFFDE780B584B000AF184B9B69174ACD
:1020900043F001039361154B9B6903F00103BB609F
:1020A000BB68124BDB69114A43F08053D3610F4B7D
:1020B000DB6903F080537B607B6800220F216FF0A7
:1020C000010000F058FB0A4B5B68FB60FB6823F0E3
:1020D000E063FB60FB6843F00073FB60044AFB684D
:1020E000536000BF1037BD4680BD00BF00100240E6
:1020F0000000014080B58AB000AF786007F1180396
:1021000000221A605A609A60DA607B681B68854A10
:1021100093427ED1844B9B69834A43F480539361FD
:10212000814B9B6903F480537B617B697E4B9B6988
:102130007D4A43F0040393617B4B9B6903F00403E6
:102140003B613B69A023BB610223FB6103237B62EC
:1021500007F118031946754800F062FD4023BB6182
:102160000023FB6100233B6207F1180319466F4807
:1021700000F056FD6E4B6F4A1A606D4B00225A609C
:102180006B4B00229A606A4B8022DA60684B002217
:102190001A61674B00225A61654B00229A61644BB9
:1021A0004FF44052DA61624800F010FB0346002B06
:1021B00001D0FFF761FF7B685D4ADA645C4A7B68A7
:1021C00053625D4B5D4A1A605B4B10225A605A4B5A
:1021D00000229A60584B8022DA60574B00221A6125
:1021E000554B00225A61544B00229A61524B4FF4D6
:1021F0000052DA61504800F0E9FA0346002B01D0A2
:10220000FFF73AFF7B684C4A9A644B4A7B685362FB
:1022100084E07B681B684A4A93427FD1424BDB696A
:10222000414A43F48043D3613F4BDB6903F480436D
:10223000FB60FB683C4B9B693B4A43F0080393619E
:10224000394B9B6903F00803BB60BB684FF4204324
:10225000BB610223FB6103237B6207F1180319466C
:10226000384800F0DDFC4FF48043BB610023FB6184
:1022700000233B6207F118031946324800F0D0FCF6
:10228000314B324A1A60304B00225A602E4B0022EA
:102290009A602D4B8022DA602B4B00221A612A4B68
:1022A00000225A61284B00229A61274B4FF440527A
:1022B000DA61254800F08AFA0346002B01D0FFF7C7
:1022C000DBFE7B68204ADA641F4A7B685362204B3E
:1022D000204A1A601E4B10225A601D4B00229A6041
:1022E0001B4B8022DA601A4B00221A61184B002225
:1022F0005A61174B00229A61154B4FF40052DA6174
:10230000134800F063FA0346002B01D0FFF7B4FE38
:102310007B680F4A9A640E4A7B68536200BF283775
:10232000BD4680BD00300140001002400008014061
:10233000441C00201C000240881C00203000024089
:1023400000380040000C0140CC1C0020440002403A
:10235000101D00205800024080B58EB000AF78609C
:102360000023FB620023BB62002387F83330344B29
:10237000DB69334A43F00403D361314BDB6903F07B
:102380000403FB60FB6807F1100207F11403114618
:10239000184601F0F1F93B6AFB62FB6A002B03D19E
:1023A00001F0D6F9786304E001F0D2F903465B004E
:1023B0007B637B6B234AA2FB03239B0C013BBB6229
:1023C000214B224A1A60204B40F2E732DA601E4A63
:1023D000BB6A53601C4B00221A611B4B00229A609F
:1023E000194B00229A61184802F0B5FB034687F8A2
:1023F000333097F83330002B1BD1134802F004FC24
:10240000034687F8333097F83330002B11D11E2064
:1024100000F0CDF97B680F2B08D8002279681E20C8
:1024200000F0A9F90A4A7B68136002E0012387F8EB
:10243000333097F8333018463837BD4680BD00BF7B
:102440000010024083DE1B43E43A002000080040F5
:102450003C00002080B400AF00BFFDE780B400AFB7
:1024600000BFFDE780B400AF00BFFDE780B400AF60
:1024700000BFFDE780B400AF00BFFDE780B400AF50
:1024800000BFBD4680BC704780B500AF012000F0A2
:102490007DFD00BF80BD80B500AF022000F076FD5D
:1024A00000BF80BD80B500AF024800F085FA00BFD4
:1024B00080BD00BF441C002080B500AF024800F082
:1024C0007BFA00BF80BD00BF881C002080B500AF34
:1024D000024800F071FA00BF80BD00BFCC1C002094
:1024E00080B500AF024800F067FA00BF80BD00BFB2
:1024F000101D002080B500AF024802F0D7FB00BFDE
:1025000080BD00BFE43A002080B400AF00BFBD46EC
:1025100080BC7047FFF7F8FF0B480C490C4A0023BA
:1025200002E0D458C4500433C4188C42F9D3094A89
:10253000094C002301E013600432A242FBD305F0F2
:1025400059FCFFF7B1F87047000000209800002008
:10255000B481000898000020C4410020FEE700007C
:1025600080B500AF084B1B68074A43F010031360A7
:10257000032000F0F5F80F20FFF7EEFEFFF782FDD5
:102580000023184680BD00BF0020024080B400AF89
:10259000054B1B781A46054B1B681344034A13600E
:1025A00000BFBD4680BC7047400000202C3B00208F
:1025B00080B400AF024B1B681846BD4680BC704714
:1025C0002C3B002080B584B000AF7860FFF7F0FFAF
:1025D000B8607B68FB60FB68B3F1FF3F05D00A4B36
:1025E0001B781A46FB681344FB6000BFFFF7E0FF4F
:1025F0000246BB68D31AFA689A42F7D800BF00BFF8
:102600001037BD4680BD00BF4000002080B485B0BB
:1026100000AF78607B6803F00703FB600C4BDB685E
:10262000BB60BA684FF6FF031340BB60FB681A0239
:10263000BB68134343F0BF6343F40033BB60044AF9
:10264000BB68D36000BF1437BD4680BC704700BF75
:1026500000ED00E080B400AF044BDB681B0A03F020
:1026600007031846BD4680BC704700BF00ED00E080
:1026700080B483B000AF0346FB7197F90730002B9D
:102680000BDBFB7903F01F02064997F907305B0962
:10269000012000FA02F241F8232000BF0C37BD46AA
:1026A00080BC704700E100E080B483B000AF034617
:1026B0003960FB7197F90730002B0ADB3B68DAB20F
:1026C0000C4997F907301201D2B20B4483F800236A
:1026D0000AE03B68DAB20849FB7903F00F03043BD8
:1026E0001201D2B20B441A7600BF0C37BD4680BC33
:1026F000704700BF00E100E000ED00E080B489B069
:1027000000AFF860B9607A60FB6803F00703FB6113
:10271000FB69C3F10703042B28BF0423BB61FB69DA
:102720000433062B02D9FB69033B00E000237B61E5
:102730004FF0FF32BB6902FA03F3DA43BB681A4079
:102740007B699A404FF0FF317B6901FA03F3D9436B
:102750007B680B40134318462437BD4680BC704746
:1027600080B582B000AF78607868FFF74FFF00BF98
:102770000837BD4680BD80B586B000AF0346B9605E
:102780007A60FB7300237B61FFF764FF78617A68EE
:10279000B9687869FFF7B2FF024697F90F30114622
:1027A0001846FFF781FF00BF1837BD4680BD80B5D2
:1027B00082B000AF0346FB7197F907301846FFF768
:1027C00057FF00BF0837BD4680BD000080B485B00C
:1027D00000AF78600023FB607B68002B01D10123F0
:1027E00043E07B681B681A46224B1344224AA2FB33
:1027F00003231B099A007B681A647B681F4ADA630B
:102800007B68022283F821207B681B681B68FB60C1
:10281000FB6823F47F5323F03003FB607B685A6826
:102820007B689B681A437B68DB681A437B681B697B
:102830001A437B685B691A437B689B691A437B6810
:10284000DB691343FA681343FB607B681B68FA6813
:102850001A607B6800229A637B68012283F821203A
:102860007B68002283F82020002318461437BD46D9
:1028700080BC7047F8FFFDBFCDCCCCCC000002403F
:1028800080B586B000AFF860B9607A603B60002325
:10289000FB75FB6893F82030012B01D102234BE03C
:1028A000FB68012283F82020FB6893F82130DBB21B
:1028B000012B3AD1FB68022283F82120FB68002219
:1028C0009A63FB681B681A68FB681B6822F00102A8
:1028D0001A603B687A68B968F86800F073F9FB68B9
:1028E000DB6A002B08D0FB681B681A68FB681B6852
:1028F00042F00E021A600FE0FB681B681A68FB6862
:102900001B6822F004021A60FB681B681A68FB68E7
:102910001B6842F00A021A60FB681B681A68FB68B1
:102920001B6842F001021A6005E0FB68002283F890
:1029300020200223FB75FB7D18461837BD4680BD5D
:1029400080B485B000AF78600023FB737B6893F898
:102950002130DBB2022B08D07B6804229A637B68AB
:10296000002283F82020012320E07B681B681A687E
:102970007B681B6822F00E021A607B681B681A686D
:102980007B681B6822F001021A607B681A6C7B6806
:10299000DB6B012101FA02F25A607B68012283F8A5
:1029A00021207B68002283F82020FB7B1846143707
:1029B000BD4680BC7047000080B584B000AF786031
:1029C0007B68DB6B1B68FB607B681B681B68BB60FC
:1029D0007B681B6C04229A40FB681340002B4FD08D
:1029E000BB6803F00403002B4AD07B681B681B689C
:1029F00003F02003002B07D17B681B681A687B68F3
:102A00001B6822F004021A607B681B68664A9342C6
:102A100029D07B681B68654A934222D07B681B687B
:102A2000634A93421AD07B681B68624A934212D071
:102A30007B681B68604A93420AD07B681B685F4AC8
:102A4000934202D14FF480030EE04FF080630BE01D
:102A50004FF4802308E04FF4804305E04FF4806397
:102A600002E0402300E00423554A53607B68DB6AA0
:102A7000002B00F094807B68DB6A786898478EE0D2
:102A80007B681B6C02229A40FB681340002B56D0D7
:102A9000BB6803F00203002B51D07B681B681B68E6
:102AA00003F02003002B0BD17B681B681A687B683E
:102AB0001B6822F00A021A607B68012283F8212039
:102AC0007B681B68384A934229D07B681B68374A69
:102AD000934222D07B681B68354A93421AD07B68A8
:102AE0001B68344A934212D07B681B68324A934277
:102AF0000AD07B681B68314A934202D14FF400131D
:102B00000EE04FF000730BE04FF4003308E04FF499
:102B1000005305E04FF4007302E0202300E002239D
:102B2000274A53607B68002283F820207B689B6AD9
:102B3000002B34D07B689B6A786898472FE07B68CD
:102B40001B6C08229A40FB681340002B28D0BB68FE
:102B500003F00803002B23D07B681B681A687B688E
:102B60001B6822F00E021A607B681A6C7B68DB6BB4
:102B7000012101FA02F25A607B6801229A637B68A4
:102B8000012283F821207B68002283F820207B68C3
:102B90001B6B002B04D07B681B6B7868984700BFC9
:102BA00000BF1037BD4680BD080002401C00024037
:102BB0003000024044000240580002406C000240D5
:102BC0000000024080B485B000AFF860B9607A6060
:102BD0003B60FB681A6CFB68DB6B012101FA02F2B7
:102BE0005A60FB681B683A685A60FB685B68102B88
:102BF00008D1FB681B687A689A60FB681B68BA6832
:102C0000DA6007E0FB681B68BA689A60FB681B68BB
:102C10007A68DA6000BF1437BD4680BC7047000098
:102C200080B48BB000AF7860396000237B620023F2
:102C30003B6269E101227B6A02FA03F3FB613B68B4
:102C40001B68FA691340BB61BA69FB699A4240F09C
:102C500058813B685B689A4A93425ED0984A934297
:102C600075D8984A934258D0964A93426FD8964A5C
:102C7000934252D0944A934269D8944A93424CD09A
:102C8000924A934263D8924A934246D0904A9342E2
:102C90005DD8122B2AD8122B59D801A252F823F052
:102CA0001B2D0008F52C0008072D0008492D0008F1
:102CB0004F2D00084F2D00084F2D00084F2D000804
:102CC0004F2D00084F2D00084F2D00084F2D0008F4
:102CD0004F2D00084F2D00084F2D00084F2D0008E4
:102CE0004F2D0008FD2C0008112D0008794A934251
:102CF00013D02CE03B68DB683B6229E03B68DB6873
:102D000004333B6224E03B68DB6808333B621FE02E
:102D10003B68DB680C333B621AE03B689B68002B26
:102D200002D104233B6213E03B689B68012B05D171
:102D300008233B627B68FA691A6109E008233B6259
:102D40007B68FA695A6103E000233B6200E000BF40
:102D5000BB69FF2B01D87B6801E07B6804337B6192
:102D6000BB69FF2B02D87B6A9B0002E07B6A083BB1
:102D70009B003B617B691A680F213B6901FA03F3F1
:102D8000DB431A40396A3B6901FA03F31A437B6952
:102D90001A603B685B6803F08053002B00F0B18041
:102DA0004D4B9B694C4A43F0010393614A4B9B692D
:102DB00003F00103BB60BB68484A7B6A9B0802338F
:102DC00052F82330FB607B6A03F003039B000F2261
:102DD00002FA03F3DB43FA681340FB607B68404A66
:102DE000934213D07B683F4A93420DD07B683E4AA2
:102DF000934207D07B683D4A934201D1032306E00A
:102E0000042304E0022302E0012300E000237A6AA5
:102E100002F0030292009340FA681343FB602F49CB
:102E20007B6A9B080233FA6841F823203B685B68A1
:102E300003F48013002B06D02D4B9A682C49BB69F4
:102E400013438B6006E02A4B9A68BB69DB43284931
:102E500013408B603B685B6803F40013002B06D0C3
:102E6000234BDA682249BB691343CB6006E0204B51
:102E7000DA68BB69DB431E491340CB603B685B6883
:102E800003F40033002B06D0194B5A681849BB696C
:102E900013434B6006E0164B5A68BB69DB43144989
:102EA00013404B603B685B6803F48033002B21D0F8
:102EB0000F4B1A680E49BB6913430B6021E000BF3A
:102EC000000032100000311000002210000021101C
:102ED000000012100000111000100240000001401C
:102EE00000080140000C01400010014000140140A6
:102EF000000401400B4B1A68BB69DB4309491340CE
:102F00000B607B6A01337B623B681A687B6A22FA3A
:102F100003F3002B7FF48EAE00BF00BF2C37BD46FD
:102F200080BC70470004014080B483B000AF78607B
:102F30000B467B8013467B707B78002B03D07A880E
:102F40007B681A6103E07B881A047B681A6100BF02
:102F50000C37BD4680BC704780B485B000AF786048
:102F60000B467B807B68DB68FB607A88FB681340DC
:102F70001A04FB68D9437B880B401A437B681A61AB
:102F800000BF1437BD4680BC7047000080B582B0DA
:102F900000AF0346FB80084B5A69FB881340002BA7
:102FA00006D0054AFB885361FB881846FEF7ECF90A
:102FB00000BF0837BD4680BD0004014080B586B023
:102FC00000AF78607B68002B01D1012372E27B683F
:102FD0001B6803F00103002B00F08780924B5B68B5
:102FE00003F00C03042B0CD08F4B5B6803F00C0335
:102FF000082B12D18C4B5B6803F48033B3F5803F10
:103000000BD1894B1B6803F40033002B6CD07B6819
:103010005B68002B68D101234CE27B685B68B3F5E9
:10302000803F06D1804B1B687F4A43F48033136096
:103030002EE07B685B68002B0CD17B4B1B687A4AC7
:1030400023F480331360784B1B68774A23F4802382
:1030500013601DE07B685B68B3F5A02F0CD1724B49
:103060001B68714A43F4802313606F4B1B686E4AE0
:1030700043F4803313600BE06B4B1B686A4A23F404
:1030800080331360684B1B68674A23F48023136006
:103090007B685B68002B13D0FFF78AFA386108E081
:1030A000FFF786FA02463B69D31A642B01D9032342
:1030B00000E25D4B1B6803F40033002BF0D014E0FA
:1030C000FFF776FA386108E0FFF772FA02463B69CB
:1030D000D31A642B01D90323ECE1534B1B6803F48F
:1030E0000033002BF0D100E000BF7B681B6803F0C9
:1030F0000203002B63D04C4B5B6803F00C03002BE6
:103100000BD0494B5B6803F00C03082B1CD1464BDA
:103110005B6803F48033002B16D1434B1B6803F02C
:103120000203002B05D07B681B69012B01D0012312
:10313000C0E13D4B1B6823F0F8027B685B69DB0054
:10314000394913430B603AE07B681B69002B20D0A0
:10315000364B01221A60FFF72BFA386108E0FFF7BF
:1031600027FA02463B69D31A022B01D90323A1E1B6
:103170002D4B1B6803F00203002BF0D02A4B1B6879
:1031800023F0F8027B685B69DB00274913430B607F
:1031900015E0264B00221A60FFF70AFA386108E0B2
:1031A000FFF706FA02463B69D31A022B01D9032323
:1031B00080E11D4B1B6803F00203002BF0D17B68FC
:1031C0001B6803F00803002B3AD07B689B69002B37
:1031D00019D0174B01221A60FFF7EAF9386108E0AD
:1031E000FFF7E6F902463B69D31A022B01D9032304
:1031F00060E10D4B5B6A03F00203002BF0D001206D
:1032000000F0EAFA1CE00A4B00221A60FFF7D0F93E
:1032100038610FE0FFF7CCF902463B69D31A022B65
:1032200008D9032346E100BF0010024000004242DB
:1032300080044242924B5B6A03F00203002BE9D107
:103240007B681B6803F00403002B00F0A6800023BA
:10325000FB758B4BDB6903F08053002B0DD1884B42
:10326000DB69874A43F08053D361854BDB6903F008
:103270008053BB60BB680123FB75824B1B6803F462
:103280008073002B18D17F4B1B687E4A43F48073F8
:103290001360FFF78DF9386108E0FFF789F90246FE
:1032A0003B69D31A642B01D9032303E1754B1B68D7
:1032B00003F48073002BF0D07B68DB68012B06D110
:1032C0006F4B1B6A6E4A43F0010313622DE07B686B
:1032D000DB68002B0CD16A4B1B6A694A23F001039F
:1032E0001362674B1B6A664A23F0040313621CE0F7
:1032F0007B68DB68052B0CD1614B1B6A604A43F08D
:10330000040313625E4B1B6A5D4A43F001031362C0
:103310000BE05B4B1B6A5A4A23F001031362584BC4
:103320001B6A574A23F0040313627B68DB68002B97
:1033300015D0FFF73DF938610AE0FFF739F9024689
:103340003B69D31A41F28832934201D90323B1E099
:103350004B4B1B6A03F00203002BEED014E0FFF787
:1033600027F938610AE0FFF723F902463B69D31ACF
:1033700041F28832934201D903239BE0404B1B6A00
:1033800003F00203002BEED1FB7D012B05D13C4B5A
:10339000DB693B4A23F08053D3617B68DB69002BF8
:1033A00000F08780364B5B6803F00C03082B61D07C
:1033B0007B68DB69022B46D1334B00221A60FFF792
:1033C000F7F8386108E0FFF7F3F802463B69D31AD3
:1033D000022B01D903236DE0294B1B6803F0007316
:1033E000002BF0D17B681B6AB3F5803F08D1244BDA
:1033F0005B6823F400327B689B68214913434B6070
:103400001F4B5B6823F474127B68196A7B685B6AE4
:103410000B431B4913434B601B4B01221A60FFF700
:10342000C7F8386108E0FFF7C3F802463B69D31AD2
:10343000022B01D903233DE0114B1B6803F00073FD
:10344000002BF0D035E0104B00221A60FFF7B0F8E7
:10345000386108E0FFF7ACF802463B69D31A022B4B
:1034600001D9032326E0064B1B6803F00073002BF1
:10347000F0D11EE07B68DB69012B07D1012319E045
:103480000010024000700040600042420B4B5B683D
:10349000FB60FB6803F480327B681B6A9A4206D1AA
:1034A000FB6803F470127B685B6A9A4201D00123C7
:1034B00000E0002318461837BD4680BD00100240CA
:1034C00080B584B000AF786039607B68002B01D193
:1034D0000123D0E06A4B1B6803F007033A689A4265
:1034E00010D9674B1B6823F0070265493B681343FB
:1034F0000B60634B1B6803F007033A689A4201D0E4
:103500000123B8E07B681B6803F00203002B20D086
:103510007B681B6803F00403002B05D0594B5B68E4
:10352000584A43F4E06353607B681B6803F0080368
:10353000002B05D0534B5B68524A43F460535360F1
:10354000504B5B6823F0F0027B689B684D49134346
:103550004B607B681B6803F00103002B40D07B6845
:103560005B68012B07D1474B1B6803F40033002B2A
:1035700015D101237FE07B685B68022B07D1414BAB
:103580001B6803F00073002B09D1012373E03D4B4E
:103590001B6803F00203002B01D101236BE0394BC0
:1035A0005B6823F003027B685B68364913434B601A
:1035B000FEF7FEFFF8600AE0FEF7FAFF0246FB683E
:1035C000D31A41F28832934201D9032353E02D4BA1
:1035D0005B6803F00C027B685B689B009A42EBD14E
:1035E000274B1B6803F007033A689A4210D2244B1A
:1035F0001B6823F0070222493B6813430B60204BF2
:103600001B6803F007033A689A4201D0012332E0B5
:103610007B681B6803F00403002B08D0194B5B6820
:1036200023F4E0627B68DB68164913434B607B68D8
:103630001B6803F00803002B09D0124B5B6823F4CE
:1036400060527B681B69DB000E4913434B6000F03E
:1036500021F802460B4B5B681B0903F00F030A4974
:10366000CB5C22FA03F3094A1360094B1B68184626
:10367000FEF772FE002318461037BD4680BD00BF1E
:103680000020024000100240808100083800002025
:103690003C00002080B487B000AF0023FB60002313
:1036A000BB6000237B6100237B6000233B611E4BDA
:1036B0005B68FB60FB6803F00C03042B02D0082B53
:1036C00003D027E0194B3B6127E0FB689B0C03F01C
:1036D0000F03174AD35C7B60FB6803F48033002B35
:1036E00010D0114B5B685B0C03F00103114AD35CF3
:1036F000BB607B680D4A03FB02F2BB68B2FBF3F3CD
:103700007B6104E07B680C4A02FB03F37B617B690D
:103710003B6102E0054B3B6100BF3B6918461C372B
:10372000BD4680BC704700BF0010024000127A0006
:1037300098810008A881000800093D0080B400AF0E
:10374000024B1B681846BD4680BC704738000020FD
:1037500080B500AFFFF7F2FF0246054B5B681B0A1E
:1037600003F007030349CB5C22FA03F3184680BD3C
:10377000001002409081000880B483B000AF7860F0
:1037800039607B680F221A60114B5B6803F00302FB
:103790007B685A600E4B5B6803F0F0027B689A60AE
:1037A0000B4B5B6803F4E0627B68DA60084B5B6894
:1037B000DB0803F4E0627B681A61064B1B6803F0C8
:1037C00007023B681A6000BF0C37BD4680BC7047DB
:1037D000001002400020024080B485B000AF786045
:1037E0000A4B1B680A4AA2FB03235B0A7A6802FBA6
:1037F00003F3FB6000BFFB685A1EFA60002BF9D18F
:1038000000BF00BF1437BD4680BC704738000020A1
:10381000D34D621080B582B000AF78607B68002B1A
:1038200001D1012376E07B685B6A002B08D17B68BD
:103830005B68B3F5827F09D07B680022DA6105E01E
:103840007B6800221A617B6800225A617B68002233
:103850009A627B6893F85130DBB2002B06D17B680B
:10386000002283F850207868FEF744FC7B6802222F
:1038700083F851207B681B681A687B681B6822F0FC
:1038800040021A607B685B6803F482727B689B6805
:1038900003F404431A437B68DB6803F400631A43B0
:1038A0007B681B6903F002031A437B685B6903F0C2
:1038B00001031A437B689B6903F400731A437B6816
:1038C000DB6903F038031A437B681B6A03F080034B
:1038D00042EA03017B689B6A03F400527B681B6821
:1038E0000A431A607B689B691A0C7B681B6802F0AC
:1038F00004025A607B681B68DA697B681B6822F4E3
:103900000062DA617B6800225A657B68012283F8D5
:103910005120002318460837BD4680BD80B588B0C9
:1039200000AFF860B9603B601346FB80FEF740FED5
:10393000F861FB887B83FB6893F85130DBB2012B85
:1039400001D002232AE1BB68002B02D0FB88002BA8
:1039500001D1012322E1FB6893F85030012B01D102
:1039600002231BE1FB68012283F85020FB6803223D
:1039700083F85120FB6800225A65FB68BA681A6315
:10398000FB68FA889A86FB68FA88DA86FB68002268
:103990009A63FB6800229A87FB680022DA87FB683B
:1039A00000225A64FB6800221A64FB689B68B3F526
:1039B000004F0FD1FB681B681A68FB681B6822F078
:1039C00040021A60FB681B681A68FB681B6842F4B7
:1039D00080421A60FB681B681B6803F04003402BA1
:1039E00007D0FB681B681A68FB681B6842F040023E
:1039F0001A60FB68DB68B3F5006F52D1FB685B6847
:103A0000002B02D07B8B012B45D1FB681B6B1A88E6
:103A1000FB681B68DA60FB681B6B9A1CFB681A6307
:103A2000FB68DB8E9BB2013B9AB2FB68DA8632E020
:103A3000FB681B689B6803F00203022B12D1FB6832
:103A40001B6B1A88FB681B68DA60FB681B6B9A1C8F
:103A5000FB681A63FB68DB8E9BB2013B9AB2FB6882
:103A6000DA8618E0FEF7A4FD0246FB69D31A3A682D
:103A70009A4203D83B68B3F1FF3F02D13B68002B69
:103A800009D1FB68012283F85120FB68002283F8EA
:103A90005020032382E0FB68DB8E9BB2002BC7D152
:103AA00053E0FB685B68002B02D07B8B012B47D176
:103AB000FB681A6BFB681B680C3312781A70FB6882
:103AC0001B6B5A1CFB681A63FB68DB8E9BB2013BC5
:103AD0009AB2FB68DA8633E0FB681B689B6803F0E8
:103AE0000203022B13D1FB681A6BFB681B680C33B3
:103AF00012781A70FB681B6B5A1CFB681A63FB6810
:103B0000DB8E9BB2013B9AB2FB68DA8618E0FEF7C7
:103B10004FFD0246FB69D31A3A689A4203D83B68C4
:103B2000B3F1FF3F02D13B68002B09D1FB680122B2
:103B300083F85120FB68002283F8502003232DE0F6
:103B4000FB68DB8E9BB2002BC6D1FA693968F86836
:103B500000F0D0FF0346002B02D0FB6820225A65FC
:103B6000FB689B68002B0AD100237B61FB681B6804
:103B7000DB687B61FB681B689B687B617B69FB681A
:103B8000012283F85120FB68002283F85020FB6853
:103B90005B6D002B01D0012300E000231846203785
:103BA000BD4680BD80B588B002AFF860B9603B60AB
:103BB0001346FB80FB6893F85130DBB2012B01D038
:103BC000022304E1FB685B68B3F5827F12D1FB68D6
:103BD0009B68002B0ED1FB68042283F85120FA88E1
:103BE0003B6800931346BA68B968F86800F0F3F8C8
:103BF0000346ECE0FEF7DCFC7861BB68002B02D0EA
:103C0000FB88002B01D10123E1E0FB6893F85030E1
:103C1000012B01D10223DAE0FB68012283F8502056
:103C2000FB68042283F85120FB6800225A65FB6878
:103C3000BA689A63FB68FA889A87FB68FA88DA8719
:103C4000FB6800221A63FB6800229A86FB68002248
:103C5000DA86FB6800221A64FB6800225A64FB685B
:103C60009B68B3F5004F0FD1FB681B681A68FB68AF
:103C70001B6822F040021A60FB681B681A68FB6828
:103C80001B6822F480421A60FB681B681B6803F003
:103C90004003402B07D0FB681B681A68FB681B6851
:103CA00042F040021A60FB68DB68002B70D135E0FF
:103CB000FB681B689B6803F00103012B15D1FB68AF
:103CC0001B6803F10C02FB689B6B1278D2B21A706E
:103CD000FB689B6B5A1CFB689A63FB68DB8F9BB28B
:103CE000013B9AB2FB68DA8718E0FEF761FC0246F6
:103CF0007B69D31A3A689A4203D83B68B3F1FF3F15
:103D000002D13B68002B09D1FB68012283F85120C6
:103D1000FB68002283F85020032358E0FB68DB8F08
:103D20009BB2002BC4D138E0FB681B689B6803F092
:103D30000103012B13D1FB681B68DA68FB689B6BDE
:103D400092B21A80FB689B6B9A1CFB689A63FB68B3
:103D5000DB8F9BB2013B9AB2FB68DA8718E0FEF773
:103D600027FC02467B69D31A3A689A4203D83B681B
:103D7000B3F1FF3F02D13B68002B09D1FB68012260
:103D800083F85120FB68002283F8502003231EE0B3
:103D9000FB68DB8F9BB2002BC6D17A693968F86863
:103DA00000F056FE0346002B02D0FB6820225A6525
:103DB000FB68012283F85120FB68002283F8502021
:103DC000FB685B6D002B01D0012300E00023184647
:103DD0001837BD4680BD80B58AB000AFF860B960C5
:103DE0007A607B8001237B62FEF7E2FB3862FB682E
:103DF00093F85130FB77FB685B68BB617B88FB8283
:103E0000FB7F012B0CD0BB69B3F5827F06D1FB6829
:103E10009B68002B02D1FB7F042B01D002237FE1A2
:103E2000BB68002B05D07B68002B02D07B88002B61
:103E300001D1012374E1FB6893F85030012B01D1CB
:103E400002236DE1FB68012283F85020FB6893F8A0
:103E50005130DBB2042B03D0FB68052283F85120DC
:103E6000FB6800225A65FB687A689A63FB687A8867
:103E7000DA87FB687A889A87FB68BA681A63FB68F6
:103E80007A88DA86FB687A889A86FB6800221A6448
:103E9000FB6800225A64FB681B681B6803F0400340
:103EA000402B07D0FB681B681A68FB681B6842F050
:103EB00040021A60FB68DB68B3F5006F7ED1FB68D7
:103EC0005B68002B02D0FB8A012B6CD1FB681B6B5B
:103ED0001A88FB681B68DA60FB681B6B9A1CFB681E
:103EE0001A63FB68DB8E9BB2013B9AB2FB68DA86F1
:103EF00059E0FB681B689B6803F00203022B1BD18F
:103F0000FB68DB8E9BB2002B16D07B6A012B13D192
:103F1000FB681B6B1A88FB681B68DA60FB681B6B0D
:103F20009A1CFB681A63FB68DB8E9BB2013B9AB25A
:103F3000FB68DA8600237B62FB681B689B6803F0E2
:103F40000103012B19D1FB68DB8F9BB2002B14D02E
:103F5000FB681B68DA68FB689B6B92B21A80FB688F
:103F60009B6B9A1CFB689A63FB68DB8F9BB2013BDF
:103F70009AB2FB68DA8701237B62FEF719FB0246DF
:103F80003B6AD31A3A6B9A420DD83B6BB3F1FF3FB1
:103F900009D0FB68012283F85120FB68002283F8D6
:103FA00050200323BCE0FB68DB8E9BB2002BA0D12A
:103FB000FB68DB8F9BB2002B9BD182E0FB685B68C8
:103FC000002B02D0FB8A012B71D1FB681A6BFB68B6
:103FD0001B680C3312781A70FB681B6B5A1CFB6849
:103FE0001A63FB68DB8E9BB2013B9AB2FB68DA86F0
:103FF0005DE0FB681B689B6803F00203022B1CD189
:10400000FB68DB8E9BB2002B17D07B6A012B14D18F
:10401000FB681A6BFB681B680C3312781A70FB681C
:104020001B6B5A1CFB681A63FB68DB8E9BB2013B5F
:104030009AB2FB68DA8600237B62FB681B689B6888
:1040400003F00103012B19D1FB68DB8F9BB2002B1E
:1040500014D0FB681B68DA68FB689B6BD2B21A70DD
:10406000FB689B6B5A1CFB689A63FB68DB8F9BB2F7
:10407000013B9AB2FB68DA8701237B62FEF798FA6C
:1040800002463B6AD31A3A6B9A4203D83B6BB3F1B0
:10409000FF3F02D13B6B002B09D1FB68012283F863
:1040A0005120FB68002283F85020032338E0FB688E
:1040B000DB8E9BB2002B9CD1FB68DB8F9BB2002B6D
:1040C00097D13A6A396BF86800F014FD0346002B6B
:1040D00008D0FB6820225A65FB68002283F8502034
:1040E00001231DE0FB689B68002B0AD100233B6184
:1040F000FB681B68DB683B61FB681B689B683B6176
:104100003B69FB68012283F85120FB68002283F899
:104110005020FB685B6D002B01D0012300E00023E1
:1041200018462837BD4680BD80B584B000AFF86022
:10413000B9601346FB80FB6893F85130DBB2012B6A
:1041400001D0022397E0BB68002B02D0FB88002B34
:1041500001D101238FE0FB6893F85030012B01D18E
:10416000022388E0FB68012283F85020FB680322C9
:1041700083F85120FB6800225A65FB68BA681A630D
:10418000FB68FA889A86FB68FA88DA86FB68002260
:104190009A63FB6800225A64FB6800221A64FB6879
:1041A00000229A87FB680022DA87FB689B68B3F5D8
:1041B000004F0FD1FB681B681A68FB681B6822F070
:1041C00040021A60FB681B681A68FB681B6842F4AF
:1041D00080421A60FB689B6C294ADA62FB689B6C20
:1041E000284A9A62FB689B6C274A1A63FB689B6C9F
:1041F00000225A63FB68986CFB681B6B1946FB68CE
:104200001B680C331A46FB68DB8E9BB2FEF738FB4B
:104210000346002B0BD0FB685B6D43F01002FB687C
:104220005A65FB68002283F85020012323E0FB68D5
:104230001B681B6803F04003402B07D0FB681B681A
:104240001A68FB681B6842F040021A60FB68002293
:1042500083F85020FB681B685A68FB681B6842F0B3
:1042600020025A60FB681B685A68FB681B6842F0B2
:1042700002025A60002318461037BD4680BD00BFB9
:10428000AD480008D34600080149000880B584B055
:1042900000AFF860B9601346FB80FB6893F85130BB
:1042A000DBB2012B01D00223A9E0FB689B68002B45
:1042B00010D1FB685B68B3F5827F0BD1FB680422E9
:1042C00083F85120FB88BA68B968F86800F0A2F852
:1042D000034694E0BB68002B02D0FB88002B01D181
:1042E00001238CE0FB6893F85030012B01D10223AD
:1042F00085E0FB68012283F85020FB68042283F8E4
:104300005120FB6800225A65FB68BA689A63FB6813
:10431000FA889A87FB68FA88DA87FB6800221A64B1
:10432000FB6800225A64FB6800229A86FB68002220
:10433000DA86FB689B68B3F5004F0FD1FB681B68FA
:104340001A68FB681B6822F040021A60FB681B6851
:104350001A68FB681B6822F480421A60FB68DB6CF9
:10436000294ADA62FB68DB6C284A9A62FB68DB6CDC
:10437000274A1A63FB68DB6C00225A63FB68D86C1F
:10438000FB681B680C331946FB689B6B1A46FB687D
:10439000DB8F9BB2FEF774FA0346002B0BD0FB6851
:1043A0005B6D43F01002FB685A65FB68002283F8DE
:1043B0005020012323E0FB681B681B6803F04003C7
:1043C000402B07D0FB681B681A68FB681B6842F02B
:1043D00040021A60FB68002283F85020FB681B68CB
:1043E0005A68FB681B6842F020025A60FB681B6831
:1043F0005A68FB681B6842F001025A6000231846A5
:104400001037BD4680BD00BFC94800087947000885
:104410000149000880B586B000AFF860B9607A60E5
:104420007B80FB6893F85130FB75FB685B683B61F0
:10443000FB7D012B0CD03B69B3F5827F06D1FB6875
:104440009B68002B02D1FB7D042B01D00223CFE01F
:10445000BB68002B05D07B68002B02D07B88002B2B
:1044600001D10123C4E0FB6893F85030012B01D146
:104470000223BDE0FB68012283F85020FB6893F81B
:104480005130DBB2042B03D0FB68052283F85120A6
:10449000FB6800225A65FB68BA681A63FB687A8871
:1044A0009A86FB687A88DA86FB687A689A63FB6882
:1044B0007A889A87FB687A88DA87FB6800221A6410
:1044C000FB6800225A64FB6893F85130DBB2042B7E
:1044D00008D1FB68DB6C484ADA62FB68DB6C474A50
:1044E0009A6207E0FB68DB6C454ADA62FB68DB6CCA
:1044F000444A9A62FB68DB6C434A1A63FB68DB6CD4
:1045000000225A63FB68D86CFB681B680C331946A1
:10451000FB689B6B1A46FB68DB8F9BB2FEF7B0F91A
:104520000346002B0BD0FB685B6D43F01002FB6869
:104530005A65FB68002283F85020012358E0FB688D
:104540001B685A68FB681B6842F001025A60FB68EE
:104550009B6C0022DA62FB689B6C00229A62FB680B
:104560009B6C00221A63FB689B6C00225A63FB68F9
:10457000986CFB681B6B1946FB681B680C331A466A
:10458000FB68DB8E9BB2FEF77BF90346002B0BD05A
:10459000FB685B6D43F01002FB685A65FB68002204
:1045A00083F85020012323E0FB681B681B6803F09D
:1045B0004003402B07D0FB681B681A68FB681B6828
:1045C00042F040021A60FB68002283F85020FB682A
:1045D0001B685A68FB681B6842F020025A60FB683F
:1045E0001B685A68FB681B6842F002025A6000238D
:1045F00018461837BD4680BDC948000879470008ED
:10460000E54800081F4800080149000880B584B04B
:1046100000AF78600023FB737B689B6C002B0FD08E
:104620007B689B6C1846FEF78BF90346002B07D07E
:104630007B685B6D43F010027B685A650123FB7356
:104640007B68DB6C002B0FD07B68DB6C1846FEF7B9
:1046500077F90346002B07D07B685B6D43F01002AF
:104660007B685A650123FB737B681B685A687B680B
:104670001B6822F003025A607B68012283F85120F4
:10468000FB7B18461037BD4680BD80B483B000AFB9
:10469000786000BF0C37BD4680BC704780B483B0E3
:1046A00000AF786000BF0C37BD4680BC704780B457
:1046B00083B000AF786000BF0C37BD4680BC704748
:1046C00080B483B000AF786000BF0C37BD4680BCBB
:1046D000704780B586B000AF78607B685B6A7B61AD
:1046E000FDF766FF38617B681B681B6803F02003D9
:1046F000202B3BD07B691B685A687B691B6822F0C2
:1047000020025A607B691B685A687B691B6822F02B
:1047100002025A603A696421786900F0EBF90346B5
:10472000002B05D07B695B6D43F020027B695A65E5
:104730007B699B68002B0AD10023FB607B691B68A7
:10474000DB68FB607B691B689B68FB60FB687B69BF
:104750000022DA867B69012283F851207B695B6D38
:10476000002B03D07869FCF7B7FE02E07869FCF70C
:1047700079FE1837BD4680BD80B584B000AF786043
:104780007B685B6AFB60FDF713FFB8607B681B68A2
:104790001B6803F02003202B3BD0FB681B685A6882
:1047A000FB681B6822F020025A60FB689B68002BA4
:1047B0000DD1FB685B68B3F5827F08D1FB681B688D
:1047C0005A68FB681B6822F003025A6007E0FB6826
:1047D0001B685A68FB681B6822F001025A60BA68BD
:1047E0006421F86800F034F90346002B02D0FB681E
:1047F00020225A65FB680022DA87FB68012283F8D1
:104800005120FB685B6D002B03D0F868FCF764FE59
:1048100002E0F868FCF7ECFD1037BD4680BD80B5BE
:1048200084B000AF78607B685B6AFB60FDF7C0FE18
:10483000B8607B681B681B6803F02003202B2FD017
:10484000FB681B685A68FB681B6822F020025A60EC
:10485000BA686421F86800F04DF90346002B05D0D2
:10486000FB685B6D43F02002FB685A65FB681B68C0
:104870005A68FB681B6822F003025A60FB6800223A
:10488000DA86FB680022DA87FB68012283F8512070
:10489000FB685B6D002B03D0F868FCF71DFE02E09F
:1048A000F868FFF7F2FE1037BD4680BD80B584B0D2
:1048B00000AF78607B685B6AFB60F868FFF7EEFE2C
:1048C00000BF1037BD4680BD80B584B000AF7860B2
:1048D0007B685B6AFB60F868FFF7E9FE00BF103792
:1048E000BD4680BD80B584B000AF78607B685B6AF0
:1048F000FB60F868FFF7E4FE00BF1037BD4680BDDF
:1049000080B584B000AF78607B685B6AFB60FB6851
:104910001B685A68FB681B6822F003025A60FB6838
:104920005B6D43F01002FB685A65FB68012283F857
:104930005120F868FCF7D0FD00BF1037BD4680BDA0
:1049400080B588B000AFF860B9603B601346FB717A
:10495000FDF72EFE0246BB6A9B1A3A681344FB61C0
:10496000FDF726FEB861394B1B685B011B0DFA6928
:1049700002FB03F37B6154E03B68B3F1FF3F50D08F
:10498000FDF716FE0246BB69D31AFA699A4202D9AC
:10499000FB69002B3DD1FB681B685A68FB681B68EC
:1049A00022F0E0025A60FB685B68B3F5827F11D1A8
:1049B000FB689B68B3F5004F04D0FB689B68B3F5B8
:1049C000806F07D1FB681B681A68FB681B6822F0C0
:1049D00040021A60FB689B6AB3F5005F0FD1FB6869
:1049E0001B681A68FB681B6822F400521A60FB6897
:1049F0001B681A68FB681B6842F400521A60FB6867
:104A0000012283F85120FB68002283F85020032301
:104A100017E07B69002B01D10023FB617B69013B1F
:104A20007B61FB681B689A68BB681340BA689A424E
:104A30000CBF01230023DBB21A46FB799A429BD1BB
:104A4000002318462037BD4680BD00BF3800002037
:104A500080B586B002AFF860B9607A60FB685B68C9
:104A6000B3F5827F11D1FB689B68B3F5004F04D08A
:104A7000FB689B68B3F5806F07D1FB681B681A68F9
:104A8000FB681B6822F040021A60FB685B68B3F5A4
:104A9000827F17D1FB689B68B3F5806F12D17B686A
:104AA0000093BB6800220121F868FFF749FF034625
:104AB000002B1AD0FB685B6D43F02002FB685A653F
:104AC000032313E07B680093BB6800228021F86811
:104AD000FFF736FF0346002B07D0FB685B6D43F002
:104AE0002002FB685A65032300E0002318461037B4
:104AF000BD4680BD80B586B002AFF860B9607A600F
:104B00007B680093BB6801220221F868FFF718FF59
:104B10000346002B07D0FB685B6D43F02002FB6867
:104B20005A65032313E07B680093BB680022802151
:104B3000F868FFF705FF0346002B07D0FB685B6DA5
:104B400043F02002FB685A65032300E00023184667
:104B50001037BD4680BD80B582B000AF78607B68FD
:104B6000002B01D1012341E07B6893F83D30DBB29B
:104B7000002B06D17B68002283F83C20786800F087
:104B800039F87B68022283F83D207B681A687B68CD
:104B900004331946104600F09DF97B68012283F822
:104BA00046207B68012283F83E207B68012283F83F
:104BB0003F207B68012283F840207B68012283F834
:104BC00041207B68012283F842207B68012283F820
:104BD00043207B68012283F844207B68012283F80C
:104BE00045207B68012283F83D20002318460837C2
:104BF000BD4680BD80B483B000AF786000BF0C3785
:104C0000BD4680BC7047000080B485B000AF7860BE
:104C10007B6893F83D30DBB2012B01D001233AE0F1
:104C20007B68022283F83D207B681B68DA687B681A
:104C30001B6842F00102DA607B681B68184A9342E5
:104C40000ED07B681B68B3F1804F09D07B681B686E
:104C5000144A934204D07B681B68134A934211D1D3
:104C60007B681B689B6803F00703FB60FB68062BEF
:104C700010D07B681B681A687B681B6842F00102D1
:104C80001A6007E07B681B681A687B681B6842F043
:104C900001021A60002318461437BD4680BC7047D5
:104CA000002C0140000400400008004080B584B0A2
:104CB00000AF78607B681B68DB68FB607B681B6803
:104CC0001B69BB60BB6803F00203002B20D0FB68AC
:104CD00003F00203002B1BD07B681B686FF00202FD
:104CE0001A617B6801221A777B681B689B6903F055
:104CF0000303002B03D0786800F0D1F805E0786852
:104D000000F0C4F8786800F0D3F87B6800221A77C6
:104D1000BB6803F00403002B20D0FB6803F00403FE
:104D2000002B1BD07B681B686FF004021A617B6844
:104D300002221A777B681B689B6903F44073002B7F
:104D400003D0786800F0ABF805E0786800F09EF8D2
:104D5000786800F0ADF87B6800221A77BB6803F032
:104D60000803002B20D0FB6803F00803002B1BD0A6
:104D70007B681B686FF008021A617B6804221A774F
:104D80007B681B68DB6903F00303002B03D07868A2
:104D900000F085F805E0786800F078F8786800F0B1
:104DA00087F87B6800221A77BB6803F01003002B9A
:104DB00020D0FB6803F01003002B1BD07B681B681E
:104DC0006FF010021A617B6808221A777B681B68F3
:104DD000DB6903F44073002B03D0786800F05FF8C0
:104DE00005E0786800F052F8786800F061F87B68B8
:104DF00000221A77BB6803F00103002B0CD0FB687C
:104E000003F00103002B07D07B681B686FF00102E1
:104E10001A617868FDF71EF9BB6803F08003002B68
:104E20000CD0FB6803F08003002B07D07B681B6865
:104E30006FF080021A61786800F0C3F8BB6803F075
:104E40004003002B0CD0FB6803F04003002B07D07D
:104E50007B681B686FF040021A61786800F031F8D7
:104E6000BB6803F02003002B0CD0FB6803F0200389
:104E7000002B07D07B681B686FF020021A617868EE
:104E800000F096F800BF1037BD4680BD80B483B0F7
:104E900000AF786000BF0C37BD4680BC704780B45F
:104EA00083B000AF786000BF0C37BD4680BC704750
:104EB00080B483B000AF786000BF0C37BD4680BCC3
:104EC000704780B483B000AF786000BF0C37BD4638
:104ED00080BC704780B485B000AF786039607B6873
:104EE0001B68FB607B682F4A93420BD07B68B3F151
:104EF000804F07D07B682C4A934203D07B682B4AB3
:104F0000934208D1FB6823F07003FB603B685B6849
:104F1000FA681343FB607B68224A93420BD07B689C
:104F2000B3F1804F07D07B681F4A934203D07B6860
:104F30001E4A934208D1FB6823F44073FB603B6830
:104F4000DB68FA681343FB60FB6823F080023B6870
:104F50005B691343FB607B68FA681A603B689A6878
:104F60007B68DA623B681A687B689A627B680D4AE4
:104F7000934203D13B681A697B681A637B680122FC
:104F80005A617B681B6903F00103002B05D07B6825
:104F90001B6923F001027B681A6100BF1437BD460C
:104FA00080BC7047002C0140000400400008004015
:104FB00080B483B000AF786000BF0C37BD4680BCC2
:104FC000704780B483B000AF786000BF0C37BD4637
:104FD00080BC704780B485B000AF0346FB800023DF
:104FE000FB60B7F90630842B05D0B7F90620FB68C3
:104FF00013440333FB60FB6818461437BD4680BC7E
:10500000704780B483B000AFEFF305837B607B68AB
:10501000002B14BF01230023DBB218460C37BD461A
:1050200080BC704780B500AF01F04AFC00231846F1
:1050300080BDF0B589B004AF786039607B685B698A
:10504000002B20D07B689B69002B1CD07B685C68A0
:105050007B681D687B681E697B68B3F90830184659
:10506000FFF7B8FF01467B685B697A689269029234
:10507000019300913B6832462946204601F03BFAF5
:105080000346FB601CE07B685C687B681D687B688E
:105090001B699EB27B68B3F908301846FFF79AFF88
:1050A000024607F10C03019300923B683246294601
:1050B000204601F080FA0346012B01D0002300E0D6
:1050C000FB6818461437BD46F0BD80B584B000AF0C
:1050D00078607B68FB60FB68002B01D0FB6800E018
:1050E0000123184601F0B6FB002318461037BD46D1
:1050F00080BD80B582B000AF78607B685B68002BB4
:1051000007D07B685B681946012000F00EFC03465F
:1051100003E0012000F0F1FB034618460837BD46C6
:1051200080BD000080B584B000AF78603960002396
:10513000BB607B68002B01D180233AE00023FB6039
:105140003B68B3F1FF3F03D14FF0FF33FB6009E051
:105150003B68002B06D03B68FB60FB68002B01D14D
:105160000123FB60FFF74DFF0346002B17D007F12B
:1051700008031A460021786801F014F80346012B51
:1051800001D0FF2315E0BB68002B11D00B4B4FF073
:1051900080521A60BFF34F8FBFF36F8F08E0F9683A
:1051A000786800F0EFFE0346012B01D0FF2300E0FA
:1051B000002318461037BD4680BD00BF04ED00E057
:1051C00080B584B000AF78600023FB600023BB6033
:1051D000FFF717FF0346002B16D007F10803194607
:1051E000786800F05DFD0346012B01D0FF2317E036
:1051F000BB68002B13D00C4B4FF080521A60BFF3EA
:105200004F8FBFF36F8F0AE00023002200217868E0
:1052100000F0A6FB0346012B01D0FF23FB60FB68D7
:1052200018461037BD4680BD04ED00E080B586B05D
:1052300002AF786039607B685B68002B0FD03B68F9
:10524000012B0AD17B685B680322009200220021B7
:10525000012000F061FA034616E0002314E03B68E9
:10526000012B10D103220021012000F0D2FAF860B6
:10527000FB68002B05D0002300220021F86800F015
:105280006FFBFB6800E0002318461037BD4680BD69
:1052900080B584B000AF786039600023BB607B6864
:1052A000002B01D180233AE00023FB603B68B3F17F
:1052B000FF3F03D14FF0FF33FB6009E03B68002B59
:1052C00006D03B68FB60FB68002B01D10123FB602B
:1052D000FFF797FE0346002B17D007F108031A4685
:1052E0000021786800F05EFF0346012B01D0FF2308
:1052F00015E0BB68002B11D00B4B4FF080521A60A9
:10530000BFF34F8FBFF36F8F08E0F968786800F044
:1053100039FE0346012B01D0FF2300E0002318468D
:105320001037BD4680BD00BF04ED00E090B585B0EC
:1053300002AF786039607B689B68002B11D07B6876
:10534000DB68002B0DD07B6818687B6859687B6828
:105350009A687B68DB680024009400F0DDF903465E
:1053600008E07B6818687B685B680022194600F0DB
:1053700050FA034618460C37BD4690BD80B586B03E
:1053800000AFF860B9607A6000233B617B687B61A5
:105390007B69002B01D101237B61FFF732FE0346BD
:1053A000002B18D007F1100207F108010023F8685C
:1053B00000F0D8FB0346012B01D0FF2318E03B6926
:1053C000002B14D00C4B4FF080521A60BFF34F8F5C
:1053D000BFF36F8F0BE007F1080100237A69F868CB
:1053E00000F0BEFA0346012B01D0FF2300E00023AA
:1053F00018461837BD4680BD04ED00E090B58BB06F
:1054000000AFF860B9607A60BB68FB610023BB61E4
:10541000BB68002B0AD180237B61FB681C4607F127
:10542000140393E8070084E8070054E000233B627C
:1054300000237B627B68B3F1FF3F03D14FF0FF3362
:105440007B6209E07B68002B06D07B687B627B6A0D
:10545000002B01D101237B62FFF7D3FD0346002B14
:105460001CD007F1200207F1140304331946B86871
:1054700000F098FE0346012B02D110237B6101E06E
:1054800000237B613B6A002B1DD0154B4FF08052EF
:105490001A60BFF34F8FBFF36F8F14E007F114034F
:1054A00004337A6A1946B86800F08AFC0346012B77
:1054B00002D110237B6106E07B6A002B01D100231F
:1054C00000E040237B61FB681C4607F1140393E86E
:1054D000070084E80700F8682C37BD4690BD00BF80
:1054E00004ED00E080B483B000AF78607B6803F126
:1054F00008027B685A607B684FF0FF329A607B68D5
:1055000003F108027B68DA607B6803F108027B68BC
:105510001A617B6800221A6000BF0C37BD4680BC50
:10552000704780B483B000AF78607B6800221A6156
:1055300000BF0C37BD4680BC704780B485B000AF5B
:10554000786039607B685B68FB603B68FA685A602A
:10555000FB689A683B689A60FB689B683A685A6087
:10556000FB683A689A603B687A681A617B681B68D6
:105570005A1C7B681A6000BF1437BD4680BC704758
:1055800080B485B000AF786039603B681B68BB6051
:10559000BB68B3F1FF3F03D17B681B69FB600CE084
:1055A0007B680833FB6002E0FB685B68FB60FB68BC
:1055B0005B681B68BA689A42F6D2FB685A683B6817
:1055C0005A603B685B683A689A603B68FA689A6020
:1055D000FB683A685A603B687A681A617B681B68A6
:1055E0005A1C7B681A6000BF1437BD4680BC7047E8
:1055F00080B485B000AF78607B681B69FB607B6816
:105600005B687A6892689A607B689B687A6852687F
:105610005A60FB685B687A689A4203D17B689A6833
:10562000FB685A607B6800221A61FB681B685A1E7F
:10563000FB681A60FB681B6818461437BD4680BCBF
:105640007047000080B584B000AF786039607B6837
:10565000FB60FB68002B0BD14FF0500383F31188E4
:10566000BFF36F8FBFF34F8FBB6000BF00BFFDE77D
:1056700002F05CF8FB681A68FB68DB6BF968096C80
:1056800001FB03F31A44FB689A60FB6800229A63EB
:10569000FB681A68FB685A60FB681A68FB68DB6B7A
:1056A000013BF968096C01FB03F31A44FB68DA60FB
:1056B000FB68FF2283F84420FB68FF2283F8452023
:1056C0003B68002B14D1FB681B69002B1AD0FB68C8
:1056D0001033184601F04CFB0346002B12D00D4B43
:1056E0004FF080521A60BFF34F8FBFF36F8F09E006
:1056F000FB6810331846FFF7F5FEFB6824331846A5
:10570000FFF7F0FE02F042F8012318461037BD46BD
:1057100080BD00BF04ED00E080B58EB002AFF86040
:10572000B9607A603B60FB68002B0BD14FF05003EF
:1057300083F31188BFF36F8FBFF34F8FBB6200BF3E
:1057400000BFFDE73B68002B0BD14FF0500383F304
:105750001188BFF36F8FBFF34F8F7B6200BF00BF15
:10576000FDE77B68002B02D0BB68002B01D0012332
:1057700000E00023002B0BD14FF0500383F311887E
:10578000BFF36F8FBFF34F8F3B6200BF00BFFDE7DA
:105790007B68002B02D1BB68002B01D1012300E004
:1057A0000023002B0BD14FF0500383F31188BFF37C
:1057B0006F8FBFF34F8FFB6100BF00BFFDE7482332
:1057C0007B617B69482B0BD04FF0500383F311882A
:1057D000BFF36F8FBFF34F8FBB6100BF00BFFDE70B
:1057E0007B693B68FB62FB6A002B0DD0FB6A0122E0
:1057F00083F8462097F83820FB6A009313467A68AE
:10580000B968F86800F040F8FB6A18463037BD46C2
:1058100080BD80B58AB002AFF860B9601346FB71F5
:10582000FB68002B0BD14FF0500383F31188BFF3BB
:105830006F8FBFF34F8F3B6100BF00BFFDE7FB6879
:10584000BA6802FB03F3FB61FB694833184602F0B8
:105850006FF8B861BB69002B11D0BB697B617B69B4
:1058600048337B61BB69002283F84620FA79BB6923
:10587000009313467A69B968F86800F005F8BB69C7
:1058800018462037BD4680BD80B584B000AFF860B3
:10589000B9607A60FB70BB68002B03D1BB69BA6941
:1058A0001A6002E0BB697A681A60BB69FA68DA6359
:1058B000BB69BA681A640121B869FFF7C3FE00BF6B
:1058C0001037BD4680BD80B582B000AF78607B6880
:1058D000002B0ED07B6800229A607B6800221A6041
:1058E0007B680022DA60002300220021786800F043
:1058F00037F800BF0837BD4680BD80B586B000AF21
:105900000346FB7101237B6100233B61FB791A464F
:1059100039697869FFF77DFFF860F868FFF7D3FF12
:10592000FB6818461837BD4680BD80B588B002AF09
:1059300003463960FB7101237B6100233B61FB79E6
:1059400000933B68002239697869FFF7E5FEF8604B
:10595000F868FFF7B8FFFB6818461837BD4680BDEA
:1059600080B58EB000AFF860B9607A603B6000230C
:105970007B63FB683B633B6B002B0BD14FF0500309
:1059800083F31188BFF36F8FBFF34F8FBB6200BFEC
:1059900000BFFDE7BB68002B03D13B6B1B6C002BEA
:1059A00001D1012300E00023002B0BD14FF0500365
:1059B00083F31188BFF36F8FBFF34F8F7B6200BFFC
:1059C00000BFFDE73B68022B03D13B6BDB6B012B78
:1059D00001D1012300E00023002B0BD14FF0500335
:1059E00083F31188BFF36F8FBFF34F8F3B6200BF0C
:1059F00000BFFDE701F082FB0346002B02D17B686C
:105A0000002B01D1012300E00023002B0BD14FF02C
:105A1000500383F31188BFF36F8FBFF34F8FFB6188
:105A200000BF00BFFDE701F081FE3B6B9A6B3B6B53
:105A3000DB6B9A4202D33B68022B29D13A68B968E2
:105A4000386B00F048FCF8623B6B5B6A002B10D0AF
:105A50003B6B2433184601F08BF90346002B13D01F
:105A60003F4B4FF080521A60BFF34F8FBFF36F8FE1
:105A70000AE0FB6A002B07D0394B4FF080521A60C6
:105A8000BFF34F8FBFF36F8F01F080FE012363E000
:105A90007B68002B03D101F079FE00235CE07B6B77
:105AA000002B06D107F11403184601F0C5F90123B4
:105AB0007B6301F06BFE00F06DFF01F037FE3B6B86
:105AC00093F844305BB2B3F1FF3F03D13B6B00224C
:105AD00083F844203B6B93F845305BB2B3F1FF3F52
