:020000040800F2
:1000000000500020C922000809220008112200081F
:1000100019220008212200082922000800000000FF
:100020000000000000000000000000005172000805
:1000300031220008000000003174000879740008C3
:1000400011230008112300081123000811230008C0
:1000500011230008112300083D2200084B2200084C
:1000600011230008112300081123000811230008A0
:10007000592200086D2200088122000895220008FC
:100080001123000811230008112300081123000880
:100090001123000811230008112300081123000870
:1000A0001123000811230008112300081123000860
:1000B0001123000811230008A922000811230008B9
:1000C0001123000811230008112300081123000840
:1000D0001123000811230008112300081123000830
:1000E000112300081123000811230008000000005C
:1000F0000000000000000000000000000000000000
:0C01000000000000000000005FF808F1A3
:1001100010B5054C237833B9044B13B10448AFF341
:1001200000800123237010BD980000200000000013
:10013000547B000808B5034B1BB103490348AFF3D8
:10014000008008BD000000009C000020547B0008D7
:1001500080B483B000AF00237B601DE0134A7B684E
:10016000134400221A70124A7B6840F26A2101FB94
:1001700003F3134403F51A7300221A800C4A7B68B8
:1001800040F26A2101FB03F3134403F266230022C9
:100190001A707B6801337B607B68092BDEDD00BF52
:1001A00000BF0C37BD4680BC704700BFD818002088
:1001B000B400002080B582B000AF00237B60234BE9
:1001C0001B680A21184604F09FFD0346002B37D117
:1001D00000233B602CE01E4A3B6813441B78002B35
:1001E00023D11B4A3B68134401221A70194A3B6809
:1001F00040F26A2101FB03F3134403F51A73002252
:100200001A80144A3B6840F26A2101FB03F313444D
:1002100003F2662300221A703B6840F26A2202FB56
:1002200003F30C4A13447B6005E03B6801333B60F9
:100230003B68092BCFDD054B1B68184604F0B2FD67
:100240007B6818460837BD4680BD00BF0C3F0020C4
:10025000D8180020B400002080B584B000AF7860CA
:100260007B68002B35D07B681C4A9B1A5B101C4AAC
:1002700002FB03F3FB60FB68002B2BDBFB68092B05
:1002800028DC184B1B684FF0FF31184604F03CFD8A
:10029000124AFB6840F26A2101FB03F3134403F5A1
:1002A0001A7300221A800D4AFB6840F26A2101FB92
:1002B00003F3134403F2662300221A700A4AFB6810
:1002C000134400221A70074B1B68184604F06AFD9D
:1002D00000E000BF1037BD4680BD00BFB400002065
:1002E0001D09C19B0C3F0020D818002080B586B0A6
:1002F00002AF78600B46FB701346BB700023FB73A4
:1003000097F9023003F01F035AB297F903301343F1
:100310005BB2DBB2BB7300237B737B6858687B687E
:100320001B890022194602F0B5FC7B68186807F1AA
:100330000E016423012203F0A7F997F90230002B84
:100340000ADA7B68186807F10F0207F10D016423D0
:100350000093012303F0F5FB7B68186807F10F0297
:1003600007F10D0164230093012303F0EAFB7B688E
:1003700058687B681B890122194602F08BFCFB7BC5
:1003800018461037BD4680BD80B584B000AF786098
:10039000084611461A460346FB700B46BB701346CF
:1003A0007B7097F9023003F01F035AB297F90330BC
:1003B00013435BB2DBB2FB737B6858687B681B89B5
:1003C0000022194602F066FC7B68186807F10F01ED
:1003D0006423012203F058F97B681868791C6423B0
:1003E000012203F051F97B6858687B681B89012260
:1003F000194602F04FFC00BF1037BD4680BD80B5E6
:1004000084B000AF78600B46FB70FB785B11DBB209
:1004100003F00303FB737B689B7CFA7B9A420ED04C
:1004200003231F22A0217868FFF7AEFFFB7B1F226A
:1004300080217868FFF7A8FF7B68FA7B9A7400BF79
:100440001037BD4680BD80B584B000AF78600B46E4
:10045000FB70FB7819467868FFF7D1FFFB781A46E6
:1004600000217868FFF742FF0346FB73FB7B1846C9
:100470001037BD4680BD80B582B000AF78600B46B6
:10048000FB701346BB70FB7819467868FFF7B7FF1F
:10049000BB78FA7840217868FFF776FF00BF08370D
:1004A000BD4680BD80B584B000AF78600B46FB7060
:1004B00013463B80FB781A46D4217868FFF7DBFFB0
:1004C0003B88DBB21A46D6217868FFF7D4FF3B8819
:1004D0001B0A9BB2DBB21A46D7217868FFF7CBFF25
:1004E00001F040FFF86006E001F03CFF0246FB68C7
:1004F000D31A142B09D8EA217868FFF7A4FF034622
:1005000003F00103002BEFD100E000BF1037BD4620
:1005100080BD80B584B000AF78600B46FB70FB787F
:100520001A46D4217868FFF7A6FF0122D221786805
:10053000FFF7A1FF01F016FFF86006E001F012FFDF
:100540000246FB68D31A0A2B09D8EA217868FFF71C
:100550007AFF034603F00103002BEFD100E000BF58
:100560000022D2217868FFF786FFD8217868FFF74C
:100570006AFF03467B81D9217868FFF764FF034651
:100580001B021AB2B7F90A3013431BB27B817B8975
:1005900018461037BD4680BD80B582B000AF786088
:1005A0001C217868FFF74FFF034603F00103002B7F
:1005B00005D001231C22A0217868FFF7E5FE00BFCB
:1005C0000837BD4680BD80B584B000AF7860396023
:1005D0007B68D8687B681B8A0022194602F05AFBA8
:1005E0000A2004F064FB7B68D8687B681B8A0122C0
:1005F000194602F04FFB0A2004F059FB7B68FF22EA
:100600009A747B6858687B681B890022194602F03F
:1006100041FBFF23FB727B68186807F10B01642321
:10062000012203F031F87B6858687B681B8901223E
:10063000194602F02FFB01F095FEF86008E001F08A
:1006400091FE0246FB68D31A0A2B01D90023A0E0D1
:100650001D2200217868FFF749FE034603F00103DD
:10066000002BECD07B6800225A8100220821786898
:10067000FFF701FF002209217868FFF7FCFEFF2247
:100680000A217868FFF7F7FE19220B217868FFF737
:10069000F2FEFF220C217868FFF7EDFE19220D21F2
:1006A0007868FFF7E8FE0D22C0217868FFF7E3FEC7
:1006B0003322C2217868FFF7DEFE5622CA2178680D
:1006C000FFF7D9FE0222CB217868FFF7D4FE15226E
:1006D000C4217868FFF7CFFE1222C6217868FFF7A1
:1006E000CAFE0C22C7217868FFF7C5FE3B681B785D
:1006F0001A46E0217868FFF7BEFE3B6801331B789D
:100700001A46E1217868FFF7B6FE3B6802331B7892
:100710001A46E2217868FFF7AEFE3B6803331B7888
:100720001A46E3217868FFF7A6FE3B6804331B787E
:100730001A46E4217868FFF79EFE3B6805331B7874
:100740001A46E5217868FFF796FE4FF48072002183
:100750007868FFF7A7FE43F27A4214217868FFF722
:10076000A1FE202238217868FFF785FE04231F228E
:1007700080217868FFF708FEFF231C22A0217868FB
:10078000FFF702FEC0231B2280217868FFF7FCFDE3
:10079000012318461037BD4680BD000080B586B0E5
:1007A00000AFF860B9601346FB8001F0DBFD7861B3
:1007B0001CE01C21F868FFF746FE034603F0020325
:1007C000002B06D101F0CEFD02467B69D31A0A2B1D
:1007D0000CD980231F228021F868FFF7D5FD8023E4
:1007E0001F22A021F868FFF7CFFD09E01F2200219A
:1007F000F868FFF77BFD034603F00803002BD8D110
:100800000A231C22A021F868FFF7BEFD0022022166
:10081000F868FFF730FE1A220321F868FFF72BFE75
:10082000FB685868FB681B890022194602F032FAFF
:100830007A237B7400233B74FB68186807F111016D
:100840006423012202F020FFFB68186807F1100101
:100850006423012202F018FFFB681B681B686E4AC4
:10086000934249D100BF6D4B1B680021184604F02C
:1008700001FB0346002BF6D0FB681B68FA88B968B9
:10088000184603F007FB0346002B09D0FB685868A5
:10089000FB681B890122194602F0FCF90023B7E02E
:1008A0005E4B1B683221184604F0E4FA0346002B25
:1008B0006CD0FB681B68184603F09AFCFB681B6849
:1008C0001B681A68FB681B681B6822F040021A60EC
:1008D000FB681B681B681A68FB681B681B6842F092
:1008E00040021A60FB685868FB681B8901221946A0
:1008F00002F0D0F900238BE000BF494B1B680021B8
:10090000184604F0B7FA0346002BF6D0FB681B68C4
:10091000FA88B968184603F0BDFA0346002B09D0DF
:10092000FB685868FB681B890122194602F0B2F97E
:1009300000236DE03A4B1B683221184604F09AFA06
:100940000346002B22D0FB681B68184603F050FCBE
:10095000FB681B681B681A68FB681B681B6822F031
:1009600040021A60FB681B681B681A68FB681B68FA
:100970001B6842F040021A60FB685868FB681B89DC
:100980000122194602F086F9002341E001F0EAFC59
:10099000786106E001F0E6FC02467B69D31A0A2B77
:1009A00008D8FB681B681B689B6803F08003802BDA
:1009B000F0D000E000BFFB685868FB681B8901228B
:1009C000194602F067F900220421F868FFF753FD89
:1009D0001A220521F868FFF74EFDFB8803F5D05376
:1009E0007B827B8ADBB21A460621F868FFF743FD5B
:1009F0007B8A1B0A9BB2DBB21A460721F868FFF715
:100A00003AFD08231F228021F868FFF7BDFC01236F
:100A100018461837BD4680BD00300140F43E002026
:100A2000F83E002080B58AB000AFF860B960134688
:100A3000FB80F868FFF7B0FD3921F868FFF703FD88
:100A40000346002B01D1002361E1FB685B89DBB227
:100A50001A460021F868FFF70EFDFB685B891B0A48
:100A60009BB2DBB21A460121F868FFF704FDFB6870
:100A70005868FB681B890022194602F00BF93A23DB
:100A8000FB76FB68186807F11B016423012202F062
:100A9000FBFDFB68186807F114016423062202F0CD
:100AA00037FF3B7D1AB27B7D1BB21B021BB2134387
:100AB0001BB27B84BB7D1AB2FB7D1BB21B021BB237
:100AC00013431BB29BB2043BFB843B7E1AB27B7E7A
:100AD0001BB21B021BB213431BB23B847B8CB3F5CE
:100AE000D05F12D3FB685868FB681B890122194646
:100AF00002F0D0F8FB6800225A8140231E22802198
:100B0000F868FFF741FC002301E13B8C03F0800310
:100B1000002B03D0FA8CFB889A420AD9FB685868EC
:100B2000FB681B890122194602F0B4F80023FB84FC
:100B3000BAE0FB681B681B68774A93424BD100BF41
:100B4000764B1B680021184604F094F90346002BED
:100B5000F6D0FB681868FB8CBA68714903F04CFA50
:100B60000346002B0AD0FB685868FB681B890122EA
:100B7000194602F08FF80023FB8495E0674B1B6851
:100B80003221184604F076F90346002B6FD0FB683B
:100B90001B68184603F02CFBFB681B681B681A686F
:100BA000FB681B681B6822F040021A60FB681B6828
:100BB0001B681A68FB681B681B6842F040021A60D9
:100BC000FB685868FB681B890122194602F062F82D
:100BD0000023FB8468E000BF524B1B6800211846CD
:100BE00004F048F90346002BF6D0FB681868FB8C2C
:100BF000BA684B4903F000FA0346002B0AD0FB68A1
:100C00005868FB681B890122194602F043F800234B
:100C1000FB8449E0434B1B683221184604F02AF953
:100C20000346002B23D0FB681B68184603F0E0FA4C
:100C3000FB681B681B681A68FB681B681B6822F04E
:100C400040021A60FB681B681B681A68FB681B6817
:100C50001B6842F040021A60FB685868FB681B89F9
:100C60000122194602F016F80023FB841CE001F073
:100C700079FBF86106E001F075FB0246FB69D31AC7
:100C80000A2B08D8FB681B681B689B6803F080036D
:100C9000802BF0D000E000BFFB685868FB681B8920
:100CA0000122194601F0F6FFFB687A8C5A817B8C91
:100CB000002B03D07B8C013B9BB201E041F6FF137C
:100CC000BB84BB8C03F00103002B09D1BB8C002B30
:100CD00003D0BB8C013B9BB201E041F6FF13BB8408
:100CE000BB8CDBB21A460C21F868FFF7C4FBBB8C47
:100CF0001B0A9BB2DBB21A460D21F868FFF7BBFB5B
:100D000040231E228021F868FFF73EFBFB8C18462B
:100D10002837BD4680BD00BF00300140F43E0020B2
:100D2000E4180020F83E002080B586B000AF78605F
:100D30007B685B89DBB21A4600217868FFF79BFB72
:100D40007B685B891B0A9BB2DBB21A46012178687B
:100D5000FFF791FB7B6858687B681B890022194666
:100D600001F098FF3A23FB737B68186807F10F01C5
:100D70006423012202F088FC7B68186807F11001E7
:100D80006423022202F0C4FD3B7C1AB27B7C1BB2BE
:100D90001B021BB213431BB2FB827B6858687B6843
:100DA0001B890122194601F075FF41F6FF13BB8232
:100DB000FB8A002B03D141F6FF13BB820FE0FB8AB5
:100DC000002B07D0FB8AB3F5D05F03D2FB8A013B2F
:100DD000BB8204E00023FB8241F6FF13BB82BB8A87
:100DE00003F00103002B09D1BB8A002B03D0BB8A7F
:100DF000013B9BB201E041F6FF13BB82BB8ADBB231
:100E00001A460C217868FFF736FBBB8A1B0A9BB297
:100E1000DBB21A460D217868FFF72DFB40231E2216
:100E200080217868FFF7B0FA7B68FA8A5A8100BFA0
:100E30001837BD4680BD000080B485B000AFF860B3
:100E4000B9607A60FB68064A1A60BB68054A1A6096
:100E50007B6880221A6000BF1437BD4680BC704793
:100E60003C1B0020EC1B002080B584B000AF034683
:100E7000FB800023FB60FB88012B0CD1164B1B6809
:100E8000002B17D0144B1B6807F10C0211461846B3
:100E900004F02EFD0EE0FB88022B0BD10F4B1B68DC
:100EA000002B07D00D4B1B6807F10C0211461846AA
:100EB00004F01EFDFB68012B0AD1FB68002B07D054
:100EC000074B4FF080521A60BFF34F8FBFF36F8F05
:100ED00000BF1037BD4680BDFC3E0020003F002013
:100EE00004ED00E080B584B000AF78600023FB60C3
:100EF0007B681B68194A93420CD1194B1B68002B65
:100F000019D0174B1B6807F10C021146184604F064
:100F1000EFFC10E07B681B68124A93420BD1124B26
:100F20001B68002B07D0104B1B6807F10C02114601
:100F3000184604F0DDFCFB68012B0AD1FB68002B8E
:100F400007D00A4B4FF080521A60BFF34F8FBFF3A8
:100F50006F8F00BF1037BD4680BD00BF003001401D
:100F6000F43E002000380040F83E002004ED00E090
:100F700080B584B000AF78600023FB607B681B689D
:100F8000194A93420CD1194B1B68002B19D0174BEF
:100F90001B6807F10C021146184604F0A9FC10E08A
:100FA0007B681B68124A93420BD1124B1B68002BC3
:100FB00007D0104B1B6807F10C021146184604F0CD
:100FC00097FCFB68012B0AD1FB68002B07D00A4B6A
:100FD0004FF080521A60BFF34F8FBFF36F8F00BF87
:100FE0001037BD4680BD00BF00300140F43E0020F8
:100FF00000380040F83E002004ED00E080B584B0E9
:1010000000AF78600023FB60786803F0F1F87B683C
:101010001B681A687B681B6822F040021A607B68B4
:101020001B681A687B681B6842F040021A607B6884
:101030001B68194A93420CD1184B1B68002B19D01E
:10104000164B1B6807F10C021146184604F050FCC1
:1010500010E07B681B68124A93420BD1114B1B684E
:10106000002B07D00F4B1B6807F10C0211461846E6
:1010700004F03EFCFB68012B0AD1FB68002B07D073
:10108000094B4FF080521A60BFF34F8FBFF36F8F41
:1010900000BF1037BD4680BD00300140F43E002047
:1010A00000380040F83E002004ED00E080B584B038
:1010B00000AF78600B46FB70FFF77CF8F860FB68C8
:1010C000002B03D17868FFF72FFE2AE0FB6840F27F
:1010D000562219467868FFF7A5FC03467B817B8979
:1010E0003B2B04D97B8940F26622934203D9F868EE
:1010F000FFF7B2F815E0FB687A89A3F86822FB686D
:10110000FA7883F86622084B1B68F96800221846B3
:1011100003F05CFF0346002B03D0F868FFF79CF850
:1011200000BF1037BD4680BDE83D002080B500AF50
:1011300002E0642003F0BBFD0A490B48FFF743FAC5
:101140000346002BF5D002E0642003F0B0FD074910
:101150000748FFF738FA0346002BF5D0FEF7F8FFF3
:1011600000BF80BD280000200000002030000020CB
:1011700014000020B0B5CCB000AF01F0CBF800F007
:101180005FF900F047FA00F00FFA00F0A1F900F063
:10119000D5F90023C7F828310023C7F82C310023E4
:1011A000C7F820310023C7F824310023C7F81831CD
:1011B0000023C7F81C3107F59473184603F08BFD24
:1011C0000346844A136007F59073184603F083FDC5
:1011D0000346814A136007F58C73184603F07BFDC4
:1011E00003467E4A13600023C7F810310023C7F876
:1011F00014310023C7F808310023C7F80C3100234D
:10120000C7F800310023C7F804310023C7F8F830CD
:101210000023C7F8FC3007F588730121184603F056
:10122000F7FD03466E4A136007F5847301211846E3
:1012300003F0EEFD03466B4A136007F5807301214E
:10124000184603F0E5FD0346674A136007F1F8030B
:101250000121184603F0DCFD0346644A1360644B29
:1012600007F1E8040FCB84E80F0007F1E803002141
:10127000184603F083FE03465E4A13605E4B07F197
:10128000D8040FCB84E80F0007F1D80300211846DB
:1012900003F074FE0346594A1360594B07F1C80422
:1012A0000FCB84E80F0007F1C8030021184603F0B4
:1012B00065FE0346534A1360534B07F1AC041D46C9
:1012C0000FCD0FC495E8070084E8070007F1AC03D1
:1012D0000021184603F09FFC03464C4A13604C4B18
:1012E00007F190041D460FCD0FC495E8070084E870
:1012F000070007F190030021184603F08CFC034619
:10130000444A1360444B07F174041D460FCD0FC4CB
:1013100095E8070084E8070007F1740300211846E8
:1013200003F079FC03463D4A13603D4B07F1580436
:101330001D460FCD0FC495E8070084E8070007F1AC
:1013400058030021184603F066FC0346354A136033
:10135000354B07F13C041D460FCD0FC495E807003F
:1013600084E8070007F13C030021184603F053FC12
:1013700003462E4A136007F59873A3F588732C4A29
:101380001C4615460FCD0FC495E8070084E80700FA
:1013900007F120030021184603F03DFC0346254ACF
:1013A000136007F59873A3F59673234A1C461546F8
:1013B0000FCD0FC495E8070084E807003B1D00210E
:1013C000184603F028FC03461C4A136003F01CFC7B
:1013D00000BFFDE7043F0020083F00200C3F002035
:1013E000F43E0020F83E0020FC3E0020003F00209C
:1013F0006C7B0008E83D00207C7B00084C3E002010
:101400008C7B0008A03E0020A87B0008AC1F0020B9
:10141000D47B0008B01F0020007C0008642400205A
:101420002C7C000818290020607C0008CC2D0020AE
:101430008C7C000880360020B87C000834390020FD
:1014400080B590B000AF07F118032822002118469C
:1014500006F092FA3B1D00221A605A609A60DA6028
:101460001A610923BB614FF48033FB6100233B62A7
:101470000123BB6201233B6302237B634FF4803370
:10148000BB634FF4E013FB6307F11803184601F048
:101490004BFC0346002B01D000F0C8FC0F237B60FF
:1014A0000223BB600023FB604FF480633B61002399
:1014B0007B613B1D0221184601F0B8FE0346002B5C
:1014C00001D000F0B3FC00BF4037BD4680BD000036
:1014D00080B500AF174B184A1A60164B4FF4827252
:1014E0005A60144B00229A60124B0022DA60114BB2
:1014F00000221A610F4B00225A610E4B4FF400720A
:101500009A610C4B2822DA610A4B00221A62094BBD
:1015100000225A62074B00229A62064B0A22DA62C4
:10152000044802F02DF80346002B01D000F07EFCA9
:1015300000BF80BDEC1D00200030014080B500AF31
:10154000174B184A1A60164B4FF482725A60144BAC
:1015500000229A60124B0022DA60114B00221A61BD
:101560000F4B00225A610E4B4FF400729A610C4BE4
:101570002022DA610A4B00221A62094B00225A62C9
:10158000074B00229A62064B0A22DA62044801F0F5
:10159000F7FF0346002B01D000F048FC00BF80BDE0
:1015A000441E00200038004080B582B000AF184BC8
:1015B0005B69174A43F001035361154B5B6903F004
:1015C00001037B607B68002205210C2000F089FF6D
:1015D0000C2000F0A2FF002206210D2000F081FF68
:1015E0000D2000F09AFF002205210E2000F079FF67
:1015F0000E2000F092FF002206210F2000F071FF64
:101600000F2000F08AFF00BF0837BD4680BD00BF35
:101610000010024080B588B000AF07F1100300222F
:101620001A605A609A60DA60464B9B69454A43F0FB
:1016300010039361434B9B6903F01003FB60FB684D
:10164000404B9B693F4A43F0200393613D4B9B69AC
:1016500003F02003BB60BB683A4B9B69394A43F0F7
:1016600004039361374B9B6903F004037B607B6841
:10167000344B9B69334A43F008039361314B9B69B8
:1016800003F008033B603B6801224FF400512E48F1
:1016900001F000FB01221C212C4801F0FBFA012281
:1016A0004FF480512A4801F0F5FA4FF400533B61A2
:1016B00001237B610023BB610223FB6107F110035F
:1016C0001946214801F062F903233B61214B7B61FC
:1016D0000123BB6107F1100319461C4801F056F9BC
:1016E0001C233B6101237B610023BB610223FB615F
:1016F00007F110031946154801F048F94FF48053DB
:101700003B6101237B610023BB610223FB6107F185
:10171000100319460E4801F039F900220521062070
:1017200000F0DFFE062000F0F8FE00220521072071
:1017300000F0D7FE072000F0F0FE00BF2037BD46C6
:1017400080BD00BF001002400010014000080140B1
:10175000000C01400000211080B582B000AF78601D
:101760000A2003F0A4FAFBE780B584B000AF7860EC
:1017700002E00A2003F09BFA2B4B1B78DBB2002B14
:10178000F7D02A4B1B683221184603F073FB002365
:10179000FB7322E0264B1B683221184603F0B4FA93
:1017A0000346002B1DD139212248FEF74CFE03468B
:1017B000002B0CD001211F48FFF778FCFB7B013385
:1017C000FB731B4B1B68184603F0ECFA05E0184B43
:1017D0001B68184603F0E6FA04E0FB7B052BD9D919
:1017E00000E000BFFB7B062B19D1114B1B680A21BF
:1017F000184603F089FA0346002B10D139210D4811
:10180000FEF721FE0346002B04D0084B1B68184648
:1018100003F07EFB064B1B68184603F0C3FA012059
:1018200003F045FAADE700BF103F0020FC3E00206A
:10183000043F00200000002080B584B000AF786035
:1018400002E00A2003F033FA2B4B1B78DBB2002BAB
:10185000F7D02A4B1B683221184603F00BFB0023FC
:10186000FB7322E0264B1B683221184603F04CFA2A
:101870000346002B1DD139212248FEF7E4FD034623
:10188000002B0CD002211F48FFF710FCFB7B01331B
:10189000FB731B4B1B68184603F084FA05E0184BDA
:1018A0001B68184603F07EFA04E0FB7B052BD9D9B0
:1018B00000E000BFFB7B062B19D1114B1B680A21EE
:1018C000184603F021FA0346002B10D139210D48A8
:1018D000FEF7B9FD0346002B04D0084B1B681846E1
:1018E00003F016FB064B1B68184603F05BFA012059
:1018F00003F0DDF9ADE700BF103F0020003F0020FE
:10190000083F00201400002080B586B000AF78604A
:1019100002E00A2003F0CBF9154B1B78DBB2002B59
:10192000F7D0144B196807F108033222184603F068
:101930008DFBBB68102BF4D1FB687B610E4B1B68E1
:101940003221184603F0E0F90346002B0CD17969E7
:101950007B69B3F868321A460848FEF71FFF064B4A
:101960001B68184603F01EFA7869FEF775FCD8E785
:10197000103F00204C3E0020043F002000000020CB
:1019800080B58EB000AF786002E00A2003F08FF9D6
:10199000A64B1B78DBB2002BF7D0A54B196807F1DB
:1019A0000C033222184603F051FBFB68102BF4D1D4
:1019B0003B69FB62FB6A1B7B1BB21B021AB2FB6A10
:1019C0005B7B1BB213431BB27B85FB6A1B7D1BB287
:1019D0001B021AB2FB6A5B7D1BB213431BB23B8531
:1019E000FB6ADB7D87F827307B8D40F60602934249
:1019F0002BD1FB6A93F86632012B0ED18D4B1B68FD
:101A0000F96A0A22184603F0E1FA0346002B00F0B7
:101A10002F81F86AFEF720FC2AE1FB6A93F8663210
:101A2000022B0ED1844B1B68F96A0A22184603F078
:101A3000CDFA0346002B00F01B81F86AFEF70CFC80
:101A400016E1F86AFEF708FC12E17B8DB3F5006F32
:101A500054D1FB6A1B7C1BB21B021AB2FB6A5B7C73
:101A60001BB213431BB2BB84BB8C0E33FA6AB2F8B1
:101A70006822934205DABB8C0E339AB2FB6AA3F854
:101A8000682297F82730012B2BD1FB6A93F8663236
:101A9000012B0ED1674B1B68F96A0A22184603F026
:101AA00095FA0346002B00F0E580F86AFEF7D4FBB8
:101AB000E0E0FB6A93F86632022B0ED15E4B1B68A6
:101AC000F96A0A22184603F081FA0346002B00F057
:101AD000D180F86AFEF7C0FBCCE0F86AFEF7BCFBE9
:101AE000C8E097F82730112B04D13B8DC3F30D03C9
:101AF000002B07D0F86AFEF7AFFBBCE0F86AFEF7F0
:101B0000ABFBB8E0FB6A9B7B9B00DBB203F03C03C2
:101B100087F8233097F823309BB216333B84FB6A57
:101B2000B3F868321A463B8CD31AB3F5007F05DC54
:101B3000FB6AB3F868323A8C9A4203D3F86AFEF72C
:101B40008BFB98E0FB6A1A33FB61FB6A1E33BB61B7
:101B500000237B63002387F83330002387F832307B
:101B60001FE097F8322013469B0013449B00334A32
:101B7000134404221946F86905F0EEFE0346002BD3
:101B80000AD197F8322013469B0013449B002B4A3E
:101B9000134404337B6308E097F83230013387F84D
:101BA000323097F83230012BDBD9002387F83130FF
:101BB00018E097F8312013469B0013449B001F4AFE
:101BC000134404221946B86905F0C6FE0346002BEB
:101BD00003D1012387F8333008E097F8313001331F
:101BE00087F8313097F83130012BE2D97B6B002B2D
:101BF00003D097F83330002B03D1F86AFEF72CFBA3
:101C000039E0FB6A93F86632012B19D1094B1B6846
:101C1000F96A0A22184603F0D9F90346002B3FF46B
:101C2000BCAEF86AFEF718FBB7E600BF103F002015
:101C3000E83D0020A03E00204C3E0020DC7C000857
:101C4000FB6A93F86632022B0ED10B4B1B68F96AC4
:101C50000A22184603F0BAF90346002B3FF49DAE62
:101C6000F86AFEF7F9FA98E6F86AFEF7F5FA94E6EC
:101C700000BF92E600BF90E64C3E002080B584B0E5
:101C800000AF7860FFF752FA374B01221A704FF419
:101C90000051364801F016F8354B1B6832211846C2
:101CA00003F032F80346002B27D101213148FEF71B
:101CB00030FC0346FB81FB8903F00403002B14D1A5
:101CC0002D4B1B780133DAB22B4B1A702A4B1B7841
:101CD000072B0DD929492748FEF775FC0346012B30
:101CE00006D1254B00221A7002E0234B00221A7005
:101CF0001F4B1B68184603F055F8214B1B68322117
:101D0000184603F001F80346002B27D101211D4896
:101D1000FEF7FFFB0346BB81BB8903F00403002BE6
:101D200014D1194B1B780133DAB2174B1A70164BCA
:101D30001B78072B0DD915491248FEF744FC0346C2
:101D4000012B06D1104B00221A7002E00E4B00222C
:101D50001A700B4B1B68184603F024F84FF4FA7006
:101D600002F0A5FF93E700BF103F002000100140E4
:101D7000043F002000000020113F00202800002028
:101D8000083F002014000020123F002030000020F7
:101D900080B586B000AF786002E00A2002F087FFCD
:101DA000154B1B78DBB2002BF7D0144B196807F1E9
:101DB00008033222184603F049F9BB68102BF4D10E
:101DC000FB687B610E4B1B683221184602F09CFFBA
:101DD0000346002B0CD179697B69B3F868321A4647
:101DE0000848FEF7DBFC064B1B68184602F0DAFFDA
:101DF0007869FEF731FAD8E7103F0020A03E0020B6
:101E0000083F00201400002080B582B000AF786049
:101E10007B681B68044A934201D100F091FA00BF2D
:101E20000837BD4680BD00BF0008004080B400AF49
:101E300072B600BF00BFFDE780B584B000AF184B9D
:101E40009B69174A43F001039361154B9B6903F0AB
:101E50000103BB60BB68124BDB69114A43F080533E
:101E6000D3610F4BDB6903F080537B607B680022FA
:101E70000F216FF0010000F034FB0A4B5B68FB6040
:101E8000FB6823F0E063FB60FB6843F00073FB60DA
:101E9000044AFB68536000BF1037BD4680BD00BFD9
:101EA000001002400000014080B58AB000AF7860A9
:101EB00007F1180300221A605A609A60DA607B68A2
:101EC0001B68854A93427ED1844B9B69834A43F4C5
:101ED00080539361814B9B6903F480537B617B69E1
:101EE0007E4B9B697D4A43F0040393617B4B9B6966
:101EF00003F004033B613B69A023BB610223FB6148
:101F000003237B6207F118031946754800F03EFD74
:101F10004023BB610023FB6100233B6207F11803F0
:101F200019466F4800F032FD6E4B6F4A1A606D4BD8
:101F300000225A606B4B00229A606A4B8022DA6062
:101F4000684B00221A61674B00225A61654B0022E0
:101F50009A61644B4FF44052DA61624800F0ECFA47
:101F60000346002B01D0FFF761FF7B685D4ADA640E
:101F70005C4A7B6853625D4B5D4A1A605B4B102282
:101F80005A605A4B00229A60584B8022DA60574BB5
:101F900000221A61554B00225A61544B00229A616B
:101FA000524B4FF40052DA61504800F0C5FA034634
:101FB000002B01D0FFF73AFF7B684C4A9A644B4AEA
:101FC0007B68536284E07B681B684A4A93427FD1F6
:101FD000424BDB69414A43F48043D3613F4BDB69A9
:101FE00003F48043FB60FB683C4B9B693B4A43F036
:101FF00008039361394B9B6903F00803BB60BB681E
:102000004FF42043BB610223FB6103237B6207F192
:1020100018031946384800F0B9FC4FF48043BB61FF
:102020000023FB6100233B6207F118031946324885
:1020300000F0ACFC314B324A1A60304B00225A603F
:102040002E4B00229A602D4B8022DA602B4B00220F
:102050001A612A4B00225A61284B00229A61274BB1
:102060004FF44052DA61254800F066FA0346002B2F
:1020700001D0FFF7DBFE7B68204ADA641F4A7B68E9
:102080005362204B204A1A601E4B10225A601D4B8F
:1020900000229A601B4B8022DA601A4B00221A61E0
:1020A000184B00225A61174B00229A61154B4FF4CE
:1020B0000052DA61134800F03FFA0346002B01D0CA
:1020C000FFF7B4FE7B680F4A9A640E4A7B6853623E
:1020D00000BF2837BD4680BD0030014000100240DF
:1020E000000801409C1E00201C000240E01E002051
:1020F0003000024000380040000C0140241F002046
:1021000044000240681F00205800024080B58EB095
:1021100000AF78600023FB620023BB62002387F8D6
:102120003330344BDB69334A43F00403D361314B22
:10213000DB6903F00403FB60FB6807F1100207F1A1
:1021400014031146184601F0CDF93B6AFB62FB6AA5
:10215000002B03D101F0B2F9786304E001F0AEF98D
:1021600003465B007B637B6B234AA2FB03239B0C30
:10217000013BBB62214B224A1A60204B40F2E732FE
:10218000DA601E4ABB6A53601C4B00221A611B4B6B
:1021900000229A60194B00229A61184802F0CDFA89
:1021A000034687F8333097F83330002B1BD11348A0
:1021B00002F01CFB034687F8333097F83330002BCE
:1021C00011D11E2000F0A9F97B680F2B08D800223E
:1021D00079681E2000F085F90A4A7B68136002E0E6
:1021E000012387F8333097F8333018463837BD4627
:1021F00080BD00BF0010024083DE1B43143F00205F
:10220000000800403C00002080B400AF00BFFDE7A4
:1022100080B400AF00BFFDE780B400AF00BFFDE7B2
:1022200080B400AF00BFFDE780B400AF00BFFDE7A2
:1022300080B400AF00BFBD4680BC704780B500AF22
:10224000012000F059FD00BF80BD80B500AF022025
:1022500000F052FD00BF80BD80B500AF024800F025
:1022600061FA00BF80BD00BF9C1E002080B500AF9A
:10227000024800F057FA00BF80BD00BFE01E0020FA
:1022800080B500AF024800F04DFA00BF80BD00BF2E
:10229000241F002080B500AF024800F043FA00BFC1
:1022A00080BD00BF681F002080B500AF024802F06B
:1022B000EFFA00BF80BD00BF143F002080B400AF24
:1022C00000BFBD4680BC7047FFF7F8FF0B480C49C4
:1022D0000C4A002302E0D458C4500433C4188C4282
:1022E000F9D3094A094C002301E013600432A242E9
:1022F000FBD305F0A7FBFEF73DFF70470000002071
:1023000098000020387D000898000020F445002047
:10231000FEE7000080B500AF084B1B68074A43F09A
:1023200010031360032000F0D1F80F20FFF7EEFE3A
:10233000FFF782FD0023184680BD00BF0020024049
:1023400080B400AF054B1B781A46054B1B6813443D
:10235000034A136000BFBD4680BC704740000020A8
:102360005C3F002080B400AF024B1B681846BD469E
:1023700080BC70475C3F002080B485B000AF7860BF
:102380007B6803F00703FB600C4BDB68BB60BA683B
:102390004FF6FF031340BB60FB681A02BB68134390
:1023A00043F0BF6343F40033BB60044ABB68D360AF
:1023B00000BF1437BD4680BC704700BF00ED00E091
:1023C00080B400AF044BDB681B0A03F00703184618
:1023D000BD4680BC704700BF00ED00E080B483B014
:1023E00000AF0346FB7197F90730002B0BDBFB793D
:1023F00003F01F02064997F907305B09012000FA34
:1024000002F241F8232000BF0C37BD4680BC704764
:1024100000E100E080B483B000AF03463960FB7197
:1024200097F90730002B0ADB3B68DAB20C4997F9C1
:1024300007301201D2B20B4483F800230AE03B6854
:10244000DAB20849FB7903F00F03043B1201D2B260
:102450000B441A7600BF0C37BD4680BC704700BFE6
:1024600000E100E000ED00E080B489B000AFF8606A
:10247000B9607A60FB6803F00703FB61FB69C3F195
:102480000703042B28BF0423BB61FB690433062B1D
:1024900002D9FB69033B00E000237B614FF0FF3270
:1024A000BB6902FA03F3DA43BB681A407B699A40BE
:1024B0004FF0FF317B6901FA03F3D9437B680B408E
:1024C000134318462437BD4680BC704780B582B0A0
:1024D00000AF78607868FFF74FFF00BF0837BD4650
:1024E00080BD80B586B000AF0346B9607A60FB73EB
:1024F00000237B61FFF764FF78617A68B9687869C7
:10250000FFF7B2FF024697F90F3011461846FFF762
:1025100081FF00BF1837BD4680BD80B582B000AFD7
:102520000346FB7197F907301846FFF757FF00BFC6
:102530000837BD4680BD000080B485B000AF78602C
:102540000023FB607B68002B01D1012343E07B6803
:102550001B681A46224B1344224AA2FB03231B0981
:102560009A007B681A647B681F4ADA637B680222E0
:1025700083F821207B681B681B68FB60FB6823F4E1
:102580007F5323F03003FB607B685A687B689B684D
:102590001A437B68DB681A437B681B691A437B68B4
:1025A0005B691A437B689B691A437B68DB69134349
:1025B000FA681343FB607B681B68FA681A607B68E3
:1025C00000229A637B68012283F821207B68002225
:1025D00083F82020002318461437BD4680BC70477E
:1025E000F8FFFDBFCDCCCCCC0000024080B586B05A
:1025F00000AFF860B9607A603B600023FB75FB6850
:1026000093F82030012B01D102234BE0FB6801221B
:1026100083F82020FB6893F82130DBB2012B3AD1FC
:10262000FB68022283F82120FB6800229A63FB6882
:102630001B681A68FB681B6822F001021A603B687D
:102640007A68B968F86800F073F9FB68DB6A002BF8
:1026500008D0FB681B681A68FB681B6842F00E0212
:102660001A600FE0FB681B681A68FB681B6822F0A1
:1026700004021A60FB681B681A68FB681B6842F05A
:102680000A021A60FB681B681A68FB681B6842F044
:1026900001021A6005E0FB68002283F82020022373
:1026A000FB75FB7D18461837BD4680BD80B485B0EC
:1026B00000AF78600023FB737B6893F82130DBB2B6
:1026C000022B08D07B6804229A637B68002283F87F
:1026D0002020012320E07B681B681A687B681B6848
:1026E00022F00E021A607B681B681A687B681B6800
:1026F00022F001021A607B681A6C7B68DB6B012197
:1027000001FA02F25A607B68012283F821207B687B
:10271000002283F82020FB7B18461437BD4680BC7E
:102720007047000080B584B000AF78607B68DB6BD9
:102730001B68FB607B681B681B68BB607B681B6C4D
:1027400004229A40FB681340002B4FD0BB6803F073
:102750000403002B4AD07B681B681B6803F020032E
:10276000002B07D17B681B681A687B681B6822F006
:1027700004021A607B681B68664A934229D07B6812
:102780001B68654A934222D07B681B68634A934268
:102790001AD07B681B68624A934212D07B681B6820
:1027A000604A93420AD07B681B685F4A934202D119
:1027B0004FF480030EE04FF080630BE04FF4802372
:1027C00008E04FF4804305E04FF4806302E04023CB
:1027D00000E00423554A53607B68DB6A002B00F05D
:1027E00094807B68DB6A786898478EE07B681B6C16
:1027F00002229A40FB681340002B56D0BB6803F0BE
:102800000203002B51D07B681B681B6803F0200378
:10281000002B0BD17B681B681A687B681B6822F051
:102820000A021A607B68012283F821207B681B68FA
:10283000384A934229D07B681B68374A934222D09A
:102840007B681B68354A93421AD07B681B68344A00
:10285000934212D07B681B68324A93420AD07B684D
:102860001B68314A934202D14FF400130EE04FF03F
:1028700000730BE04FF4003308E04FF4005305E021
:102880004FF4007302E0202300E00223274A536044
:102890007B68002283F820207B689B6A002B34D061
:1028A0007B689B6A786898472FE07B681B6C0822DE
:1028B0009A40FB681340002B28D0BB6803F0080344
:1028C000002B23D07B681B681A687B681B6822F08A
:1028D0000E021A607B681A6C7B68DB6B012101FABF
:1028E00002F25A607B6801229A637B68012283F8B6
:1028F00021207B68002283F820207B681B6B002B43
:1029000004D07B681B6B7868984700BF00BF103706
:10291000BD4680BD080002401C000240300002405D
:1029200044000240580002406C0002400000024097
:1029300080B485B000AFF860B9607A603B60FB6836
:102940001A6CFB68DB6B012101FA02F25A60FB682A
:102950001B683A685A60FB685B68102B08D1FB68FB
:102960001B687A689A60FB681B68BA68DA6007E0DF
:10297000FB681B68BA689A60FB681B687A68DA6053
:1029800000BF1437BD4680BC7047000080B48BB0D8
:1029900000AF7860396000237B6200233B6269E10D
:1029A00001227B6A02FA03F3FB613B681B68FA6948
:1029B0001340BB61BA69FB699A4240F058813B6899
:1029C0005B689A4A93425ED0984A934275D8984A77
:1029D000934258D0964A93426FD8964A934252D027
:1029E000944A934269D8944A93424CD0924A934273
:1029F00063D8924A934246D0904A93425DD8122BB4
:102A00002AD8122B59D801A252F823F0872A00089D
:102A1000612A0008732A0008B52A0008BB2A0008AA
:102A2000BB2A0008BB2A0008BB2A0008BB2A0008F2
:102A3000BB2A0008BB2A0008BB2A0008BB2A0008E2
:102A4000BB2A0008BB2A0008BB2A0008BB2A0008D2
:102A5000692A00087D2A0008794A934213D02CE0A5
:102A60003B68DB683B6229E03B68DB6804333B6220
:102A700024E03B68DB6808333B621FE03B68DB68AF
:102A80000C333B621AE03B689B68002B02D10423A5
:102A90003B6213E03B689B68012B05D108233B6236
:102AA0007B68FA691A6109E008233B627B68FA696E
:102AB0005A6103E000233B6200E000BFBB69FF2BCB
:102AC00001D87B6801E07B6804337B61BB69FF2B25
:102AD00002D87B6A9B0002E07B6A083B9B003B615B
:102AE0007B691A680F213B6901FA03F3DB431A4043
:102AF000396A3B6901FA03F31A437B691A603B6840
:102B00005B6803F08053002B00F0B1804D4B9B6954
:102B10004C4A43F0010393614A4B9B6903F0010364
:102B2000BB60BB68484A7B6A9B08023352F823307B
:102B3000FB607B6A03F003039B000F2202FA03F39E
:102B4000DB43FA681340FB607B68404A934213D032
:102B50007B683F4A93420DD07B683E4A934207D040
:102B60007B683D4A934201D1032306E0042304E03D
:102B7000022302E0012300E000237A6A02F003024C
:102B800092009340FA681343FB602F497B6A9B08CD
:102B90000233FA6841F823203B685B6803F4801332
:102BA000002B06D02D4B9A682C49BB6913438B60D0
:102BB00006E02A4B9A68BB69DB43284913408B60C7
:102BC0003B685B6803F40013002B06D0234BDA68E4
:102BD0002249BB691343CB6006E0204BDA68BB692E
:102BE000DB431E491340CB603B685B6803F4003352
:102BF000002B06D0194B5A681849BB6913434B6028
:102C000006E0164B5A68BB69DB43144913404B601E
:102C10003B685B6803F48033002B21D00F4B1A68AC
:102C20000E49BB6913430B6021E000BF0000321066
:102C300000003110000022100000211000001210CE
:102C40000000111000100240000001400008014087
:102C5000000C01400010014000140140000401403C
:102C60000B4B1A68BB69DB43094913400B607B6A55
:102C700001337B623B681A687B6A22FA03F3002BFC
:102C80007FF48EAE00BF00BF2C37BD4680BC7047BE
:102C90000004014080B483B000AF78600B467B80B5
:102CA00013467B707B78002B03D07A887B681A618F
:102CB00003E07B881A047B681A6100BF0C37BD46AD
:102CC00080BC704780B485B000AF78600B467B80D5
:102CD0007B68DB68FB607A88FB6813401A04FB683A
:102CE000D9437B880B401A437B681A6100BF1437B5
:102CF000BD4680BC7047000080B582B000AF03467F
:102D0000FB80084B5A69FB881340002B06D0054A0C
:102D1000FB885361FB881846FEF7A6F800BF08370A
:102D2000BD4680BD0004014080B586B000AF78602C
:102D30007B68002B01D1012372E27B681B6803F0E2
:102D40000103002B00F08780924B5B6803F00C03BB
:102D5000042B0CD08F4B5B6803F00C03082B12D1B3
:102D60008C4B5B6803F48033B3F5803F0BD1894B08
:102D70001B6803F40033002B6CD07B685B68002B6E
:102D800068D101234CE27B685B68B3F5803F06D1D4
:102D9000804B1B687F4A43F4803313602EE07B68CE
:102DA0005B68002B0CD17B4B1B687A4A23F4803381
:102DB0001360784B1B68774A23F4802313601DE06F
:102DC0007B685B68B3F5A02F0CD1724B1B68714A0E
:102DD00043F4802313606F4B1B686E4A43F48033C7
:102DE00013600BE06B4B1B686A4A23F4803313605B
:102DF000684B1B68674A23F4802313607B685B6819
:102E0000002B13D0FFF7AEFA386108E0FFF7AAFAFB
:102E100002463B69D31A642B01D9032300E25D4BC0
:102E20001B6803F40033002BF0D014E0FFF79AFA8C
:102E3000386108E0FFF796FA02463B69D31A642B23
:102E400001D90323ECE1534B1B6803F40033002B3F
:102E5000F0D100E000BF7B681B6803F00203002B89
:102E600063D04C4B5B6803F00C03002B0BD0494B39
:102E70005B6803F00C03082B1CD1464B5B6803F422
:102E80008033002B16D1434B1B6803F00203002B49
:102E900005D07B681B69012B01D00123C0E13D4BAC
:102EA0001B6823F0F8027B685B69DB003949134338
:102EB0000B603AE07B681B69002B20D0364B012267
:102EC0001A60FFF74FFA386108E0FFF74BFA024645
:102ED0003B69D31A022B01D90323A1E12D4B1B68B7
:102EE00003F00203002BF0D02A4B1B6823F0F802FA
:102EF0007B685B69DB00274913430B6015E0264BB9
:102F000000221A60FFF72EFA386108E0FFF72AFA6C
:102F100002463B69D31A022B01D9032380E11D4BE2
:102F20001B6803F00203002BF0D17B681B6803F0E1
:102F30000803002B3AD07B689B69002B19D0174BF4
:102F400001221A60FFF70EFA386108E0FFF70AFA6B
:102F500002463B69D31A022B01D9032360E10D4BD2
:102F60005B6A03F00203002BF0D0012000F0EAFAC4
:102F70001CE00A4B00221A60FFF7F4F938610FE0F9
:102F8000FFF7F0F902463B69D31A022B08D9032355
:102F900046E100BF0010024000004242800442426D
:102FA000924B5B6A03F00203002BE9D17B681B683C
:102FB00003F00403002B00F0A6800023FB758B4B6D
:102FC000DB6903F08053002B0DD1884BDB69874A06
:102FD00043F08053D361854BDB6903F08053BB60C2
:102FE000BB680123FB75824B1B6803F48073002BC5
:102FF00018D17F4B1B687E4A43F480731360FFF740
:10300000B1F9386108E0FFF7ADF902463B69D31A20
:10301000642B01D9032303E1754B1B6803F4807310
:10302000002BF0D07B68DB68012B06D16F4B1B6A4D
:103030006E4A43F0010313622DE07B68DB68002BCE
:103040000CD16A4B1B6A694A23F001031362674B78
:103050001B6A664A23F0040313621CE07B68DB688A
:10306000052B0CD1614B1B6A604A43F004031362C9
:103070005E4B1B6A5D4A43F0010313620BE05B4B3E
:103080001B6A5A4A23F001031362584B1B6A574AC2
:1030900023F0040313627B68DB68002B15D0FFF775
:1030A00061F938610AE0FFF75DF902463B69D31A1E
:1030B00041F28832934201D90323B1E04B4B1B6AA2
:1030C00003F00203002BEED014E0FFF74BF9386158
:1030D0000AE0FFF747F902463B69D31A41F288320A
:1030E000934201D903239BE0404B1B6A03F0020388
:1030F000002BEED1FB7D012B05D13C4BDB693B4A1C
:1031000023F08053D3617B68DB69002B00F087805C
:10311000364B5B6803F00C03082B61D07B68DB69DE
:10312000022B46D1334B00221A60FFF71BF938619E
:1031300008E0FFF717F902463B69D31A022B01D9C1
:1031400003236DE0294B1B6803F00073002BF0D1C3
:103150007B681B6AB3F5803F08D1244B5B6823F47E
:1031600000327B689B68214913434B601F4B5B68AF
:1031700023F474127B68196A7B685B6A0B431B49F2
:1031800013434B601B4B01221A60FFF7EBF83861C9
:1031900008E0FFF7E7F802463B69D31A022B01D992
:1031A00003233DE0114B1B6803F00073002BF0D0AC
:1031B00035E0104B00221A60FFF7D4F8386108E0C0
:1031C000FFF7D0F802463B69D31A022B01D903233B
:1031D00026E0064B1B6803F00073002BF0D11EE0C5
:1031E0007B68DB69012B07D1012319E00010024045
:1031F00000700040600042420B4B5B68FB60FB6864
:1032000003F480327B681B6A9A4206D1FB6803F4A0
:1032100070127B685B6A9A4201D0012300E00023B0
:1032200018461837BD4680BD0010024080B584B0F6
:1032300000AF786039607B68002B01D10123D0E0BA
:103240006A4B1B6803F007033A689A4210D9674B30
:103250001B6823F0070265493B6813430B60634B0F
:103260001B6803F007033A689A4201D00123B8E0D3
:103270007B681B6803F00203002B20D07B681B686F
:1032800003F00403002B05D0594B5B68584A43F404
:10329000E06353607B681B6803F00803002B05D0D4
:1032A000534B5B68524A43F460535360504B5B6826
:1032B00023F0F0027B689B684D4913434B607B68A9
:1032C0001B6803F00103002B40D07B685B68012B77
:1032D00007D1474B1B6803F40033002B15D10123A2
:1032E0007FE07B685B68022B07D1414B1B6803F0D2
:1032F0000073002B09D1012373E03D4B1B6803F0E1
:103300000203002B01D101236BE0394B5B6823F0F2
:1033100003027B685B68364913434B60FFF722F872
:10332000F8600AE0FFF71EF80246FB68D31A41F284
:103330008832934201D9032353E02D4B5B6803F09D
:103340000C027B685B689B009A42EBD1274B1B68A1
:1033500003F007033A689A4210D2244B1B6823F00B
:10336000070222493B6813430B60204B1B6803F0A4
:1033700007033A689A4201D0012332E07B681B6858
:1033800003F00403002B08D0194B5B6823F4E062C0
:103390007B68DB68164913434B607B681B6803F04E
:1033A0000803002B09D0124B5B6823F460527B6842
:1033B0001B69DB000E4913434B6000F021F8024605
:1033C0000B4B5B681B0903F00F030A49CB5C22FA25
:1033D00003F3094A1360094B1B681846FEF796FE73
:1033E000002318461037BD4680BD00BF00200240B4
:1033F00000100240047D0008380000203C0000203E
:1034000080B487B000AF0023FB600023BB600023C3
:103410007B6100237B6000233B611E4B5B68FB608C
:10342000FB6803F00C03042B02D0082B03D027E029
:10343000194B3B6127E0FB689B0C03F00F03174A15
:10344000D35C7B60FB6803F48033002B10D0114BFE
:103450005B685B0C03F00103114AD35CBB607B68C3
:103460000D4A03FB02F2BB68B2FBF3F37B6104E09D
:103470007B680C4A02FB03F37B617B693B6102E0E2
:10348000054B3B6100BF3B6918461C37BD4680BCFD
:10349000704700BF0010024000127A001C7D000837
:1034A0002C7D000800093D0080B400AF024B1B6872
:1034B0001846BD4680BC70473800002080B500AF7C
:1034C000FFF7F2FF0246054B5B681B0A03F0070398
:1034D0000349CB5C22FA03F3184680BD001002407A
:1034E000147D000880B483B000AF786039607B68D9
:1034F0000F221A60114B5B6803F003027B685A606D
:103500000E4B5B6803F0F0027B689A600B4B5B68C4
:1035100003F4E0627B68DA60084B5B68DB0803F465
:10352000E0627B681A61064B1B6803F007023B6888
:103530001A6000BF0C37BD4680BC704700100240C7
:103540000020024080B485B000AF78600A4B1B6851
:103550000A4AA2FB03235B0A7A6802FB03F3FB60BF
:1035600000BFFB685A1EFA60002BF9D100BF00BFF4
:103570001437BD4680BC704738000020D34D621020
:1035800080B582B000AF78607B68002B01D1012349
:1035900076E07B685B6A002B08D17B685B68B3F5DB
:1035A000827F09D07B680022DA6105E07B68002217
:1035B0001A617B6800225A617B6800229A627B68EC
:1035C00093F85130DBB2002B06D17B68002283F8E0
:1035D00050207868FEF768FC7B68022283F851204F
:1035E0007B681B681A687B681B6822F040021A60BF
:1035F0007B685B6803F482727B689B6803F4044316
:103600001A437B68DB6803F400631A437B681B6919
:1036100003F002031A437B685B6903F001031A435A
:103620007B689B6903F400731A437B68DB6903F0D2
:1036300038031A437B681B6A03F0800342EA0301E4
:103640007B689B6A03F400527B681B680A431A601C
:103650007B689B691A0C7B681B6802F004025A6045
:103660007B681B68DA697B681B6822F40062DA6198
:103670007B6800225A657B68012283F85120002371
:1036800018460837BD4680BD80B588B000AFF860E9
:10369000B9603B601346FB80FEF764FEF861FB886F
:1036A0007B83FB6893F85130DBB2012B01D00223FE
:1036B0002AE1BB68002B02D0FB88002B01D101233B
:1036C00022E1FB6893F85030012B01D102231BE16A
:1036D000FB68012283F85020FB68032283F8512005
:1036E000FB6800225A65FB68BA681A63FB68FA88AF
:1036F0009A86FB68FA88DA86FB6800229A63FB6880
:1037000000229A87FB680022DA87FB6800225A644D
:10371000FB6800221A64FB689B68B3F5004F0FD169
:10372000FB681B681A68FB681B6822F040021A607D
:10373000FB681B681A68FB681B6842F480421A60C9
:10374000FB681B681B6803F04003402B07D0FB6835
:103750001B681A68FB681B6842F040021A60FB682D
:10376000DB68B3F5006F52D1FB685B68002B02D0B9
:103770007B8B012B45D1FB681B6B1A88FB681B6890
:10378000DA60FB681B6B9A1CFB681A63FB68DB8EB4
:103790009BB2013B9AB2FB68DA8632E0FB681B6899
:1037A0009B6803F00203022B12D1FB681B6B1A8883
:1037B000FB681B68DA60FB681B6B9A1CFB681A636A
:1037C000FB68DB8E9BB2013B9AB2FB68DA8618E09D
:1037D000FEF7C8FD0246FB69D31A3A689A4203D83D
:1037E0003B68B3F1FF3F02D13B68002B09D1FB6876
:1037F000012283F85120FB68002283F85020032324
:1038000082E0FB68DB8E9BB2002BC7D153E0FB68E4
:103810005B68002B02D07B8B012B47D1FB681A6BB6
:10382000FB681B680C3312781A70FB681B6B5A1C00
:10383000FB681A63FB68DB8E9BB2013B9AB2FB68A4
:10384000DA8633E0FB681B689B6803F00203022BF7
:1038500013D1FB681A6BFB681B680C3312781A7063
:10386000FB681B6B5A1CFB681A63FB68DB8E9BB200
:10387000013B9AB2FB68DA8618E0FEF773FD024658
:10388000FB69D31A3A689A4203D83B68B3F1FF3F09
:1038900002D13B68002B09D1FB68012283F851203B
:1038A000FB68002283F8502003232DE0FB68DB8EA9
:1038B0009BB2002BC6D1FA693968F86800F00CFF9A
:1038C0000346002B02D0FB6820225A65FB689B68E8
:1038D000002B0AD100237B61FB681B68DB687B61DE
:1038E000FB681B689B687B617B69FB68012283F82E
:1038F0005120FB68002283F85020FB685B6D002B91
:1039000001D0012300E0002318462037BD4680BDCA
:1039100080B588B002AFF860B9603B601346FB80A9
:10392000FB6893F85130DBB2012B01D0022304E194
:10393000FB685B68B3F5827F12D1FB689B68002B44
:103940000ED1FB68042283F85120FA883B6800936B
:103950001346BA68B968F86800F0F3F80346ECE07B
:10396000FEF700FD7861BB68002B02D0FB88002BBE
:1039700001D10123E1E0FB6893F85030012B01D124
:103980000223DAE0FB68012283F85020FB6804225E
:1039900083F85120FB6800225A65FB68BA689A6375
:1039A000FB68FA889A87FB68FA88DA87FB68002246
:1039B0001A63FB6800229A86FB680022DA86FB689D
:1039C00000221A64FB6800225A64FB689B68B3F506
:1039D000004F0FD1FB681B681A68FB681B6822F058
:1039E00040021A60FB681B681A68FB681B6822F4B7
:1039F00080421A60FB681B681B6803F04003402B81
:103A000007D0FB681B681A68FB681B6842F040021D
:103A10001A60FB68DB68002B70D135E0FB681B681F
:103A20009B6803F00103012B15D1FB681B6803F1B0
:103A30000C02FB689B6B1278D2B21A70FB689B6B0E
:103A40005A1CFB689A63FB68DB8F9BB2013B9AB2FE
:103A5000FB68DA8718E0FEF785FC02467B69D31A1B
:103A60003A689A4203D83B68B3F1FF3F02D13B6802
:103A7000002B09D1FB68012283F85120FB6800224A
:103A800083F85020032358E0FB68DB8F9BB2002BA8
:103A9000C4D138E0FB681B689B6803F00103012B6D
:103AA00013D1FB681B68DA68FB689B6B92B21A80C3
:103AB000FB689B6B9A1CFB689A63FB68DB8F9BB26D
:103AC000013B9AB2FB68DA8718E0FEF74BFC02462E
:103AD0007B69D31A3A689A4203D83B68B3F1FF3F37
:103AE00002D13B68002B09D1FB68012283F85120E9
:103AF000FB68002283F8502003231EE0FB68DB8F65
:103B00009BB2002BC6D17A693968F86800F092FD43
:103B10000346002B02D0FB6820225A65FB68012275
:103B200083F85120FB68002283F85020FB685B6D0E
:103B3000002B01D0012300E0002318461837BD46B2
:103B400080BD80B58AB000AFF860B9607A607B80D4
:103B500001237B62FEF706FC3862FB6893F8513064
:103B6000FB77FB685B68BB617B88FB82FB7F012B7B
:103B70000CD0BB69B3F5827F06D1FB689B68002B34
:103B800002D1FB7F042B01D002237FE1BB68002B15
:103B900005D07B68002B02D07B88002B01D101234C
:103BA00074E1FB6893F85030012B01D102236DE1E1
:103BB000FB68012283F85020FB6893F85130DBB298
:103BC000042B03D0FB68052283F85120FB680022F8
:103BD0005A65FB687A689A63FB687A88DA87FB68BB
:103BE0007A889A87FB68BA681A63FB687A88DA86EB
:103BF000FB687A889A86FB6800221A64FB680022B8
:103C00005A64FB681B681B6803F04003402B07D015
:103C1000FB681B681A68FB681B6842F040021A6068
:103C2000FB68DB68B3F5006F7ED1FB685B68002B37
:103C300002D0FB8A012B6CD1FB681B6B1A88FB68D6
:103C40001B68DA60FB681B6B9A1CFB681A63FB68D5
:103C5000DB8E9BB2013B9AB2FB68DA8659E0FB68C7
:103C60001B689B6803F00203022B1BD1FB68DB8EF1
:103C70009BB2002B16D07B6A012B13D1FB681B6B08
:103C80001A88FB681B68DA60FB681B6B9A1CFB6870
:103C90001A63FB68DB8E9BB2013B9AB2FB68DA8643
:103CA00000237B62FB681B689B6803F00103012B08
:103CB00019D1FB68DB8F9BB2002B14D0FB681B680B
:103CC000DA68FB689B6B92B21A80FB689B6B9A1C4C
:103CD000FB689A63FB68DB8F9BB2013B9AB2FB687F
:103CE000DA8701237B62FEF73DFB02463B6AD31A6B
:103CF0003A6B9A420DD83B6BB3F1FF3F09D0FB689A
:103D0000012283F85120FB68002283F8502003230E
:103D1000BCE0FB68DB8E9BB2002BA0D1FB68DB8F85
:103D20009BB2002B9BD182E0FB685B68002B02D02A
:103D3000FB8A012B71D1FB681A6BFB681B680C3383
:103D400012781A70FB681B6B5A1CFB681A63FB68BD
:103D5000DB8E9BB2013B9AB2FB68DA865DE0FB68C2
:103D60001B689B6803F00203022B1CD1FB68DB8EEF
:103D70009BB2002B17D07B6A012B14D1FB681A6B06
:103D8000FB681B680C3312781A70FB681B6B5A1C9B
:103D9000FB681A63FB68DB8E9BB2013B9AB2FB683F
:103DA000DA8600237B62FB681B689B6803F00103D3
:103DB000012B19D1FB68DB8F9BB2002B14D0FB6861
:103DC0001B68DA68FB689B6BD2B21A70FB689B6B4E
:103DD0005A1CFB689A63FB68DB8F9BB2013B9AB26B
:103DE000FB68DA8701237B62FEF7BCFA02463B6A76
:103DF000D31A3A6B9A4203D83B6BB3F1FF3F02D11F
:103E00003B6B002B09D1FB68012283F85120FB6832
:103E1000002283F85020032338E0FB68DB8E9BB23E
:103E2000002B9CD1FB68DB8F9BB2002B97D13A6AA9
:103E3000396BF86800F050FC0346002B08D0FB6893
:103E400020225A65FB68002283F8502001231DE0E0
:103E5000FB689B68002B0AD100233B61FB681B6851
:103E6000DB683B61FB681B689B683B613B69FB68E7
:103E7000012283F85120FB68002283F85020FB6860
:103E80005B6D002B01D0012300E00023184628378A
:103E9000BD4680BD80B584B000AFF860B960134600
:103EA000FB80FB6893F85130DBB2012B01D0022379
:103EB00097E0BB68002B02D0FB88002B01D10123C7
:103EC0008FE0FB6893F85030012B01D1022388E08A
:103ED000FB68012283F85020FB68032283F85120FD
:103EE000FB6800225A65FB68BA681A63FB68FA88A7
:103EF0009A86FB68FA88DA86FB6800229A63FB6878
:103F000000225A64FB6800221A64FB6800229A8728
:103F1000FB680022DA87FB689B68B3F5004F0FD17E
:103F2000FB681B681A68FB681B6822F040021A6075
:103F3000FB681B681A68FB681B6842F480421A60C1
:103F4000FB689B6C294ADA62FB689B6C284A9A6280
:103F5000FB689B6C274A1A63FB689B6C00225A63C0
:103F6000FB68986CFB681B6B1946FB681B680C337D
:103F70001A46FB68DB8E9BB2FEF738FB0346002B2C
:103F80000BD0FB685B6D43F01002FB685A65FB6861
:103F9000002283F85020012323E0FB681B681B6884
:103FA00003F04003402B07D0FB681B681A68FB68CE
:103FB0001B6842F040021A60FB68002283F8502020
:103FC000FB681B685A68FB681B6842F020025A6055
:103FD000FB681B685A68FB681B6842F002025A6063
:103FE000002318461037BD4680BD00BF914400082D
:103FF000B7420008E544000880B586B000AFF8601D
:10400000B9607A607B80FB6893F85130FB75FB6880
:104010005B683B61FB7D012B0CD03B69B3F5827F74
:1040200006D1FB689B68002B02D1FB7D042B01D0DD
:104030000223CFE0BB68002B05D07B68002B02D0A9
:104040007B88002B01D10123C4E0FB6893F850303A
:10405000012B01D10223BDE0FB68012283F850202F
:10406000FB6893F85130DBB2042B03D0FB680522C8
:1040700083F85120FB6800225A65FB68BA681A630E
:10408000FB687A889A86FB687A88DA86FB687A68A1
:104090009A63FB687A889A87FB687A88DA87FB6874
:1040A00000221A64FB6800225A64FB6893F85130BE
:1040B000DBB2042B08D1FB68DB6C484ADA62FB6890
:1040C000DB6C474A9A6207E0FB68DB6C454ADA62C0
:1040D000FB68DB6C444A9A62FB68DB6C434A1A63F8
:1040E000FB68DB6C00225A63FB68D86CFB681B68BA
:1040F0000C331946FB689B6B1A46FB68DB8F9BB23F
:10410000FEF774FA0346002B0BD0FB685B6D43F09F
:104110001002FB685A65FB68002283F850200123D7
:1041200058E0FB681B685A68FB681B6842F0010294
:104130005A60FB689B6C0022DA62FB689B6C002271
:104140009A62FB689B6C00221A63FB689B6C0022DE
:104150005A63FB68986CFB681B6B1946FB681B680D
:104160000C331A46FB68DB8E9BB2FEF73FFA034620
:10417000002B0BD0FB685B6D43F01002FB685A65A7
:10418000FB68002283F85020012323E0FB681B68B2
:104190001B6803F04003402B07D0FB681B681A68BC
:1041A000FB681B6842F040021A60FB68002283F83B
:1041B0005020FB681B685A68FB681B6842F02002AD
:1041C0005A60FB681B685A68FB681B6842F0020271
:1041D0005A60002318461837BD4680BDAD4400081C
:1041E0005D430008C944000803440008E544000892
:1041F00080B584B000AF78600023FB737B689B6C54
:10420000002B0FD07B689B6C1846FEF74FFA0346D5
:10421000002B07D07B685B6D43F010027B685A650A
:104220000123FB737B68DB6C002B0FD07B68DB6C9E
:104230001846FEF73BFA0346002B07D07B685B6D00
:1042400043F010027B685A650123FB737B681B688F
:104250005A687B681B6822F003025A607B6801225F
:1042600083F85120FB7B18461037BD4680BD80B4D3
:1042700083B000AF786000BF0C37BD4680BC70478C
:1042800080B483B000AF786000BF0C37BD4680BCFF
:10429000704780B483B000AF786000BF0C37BD4674
:1042A00080BC704780B483B000AF786000BF0C372B
:1042B000BD4680BC704780B586B000AF78607B6833
:1042C0005B6A7B61FEF74EF838617B681B681B6890
:1042D00003F02003202B3BD07B691B685A687B6965
:1042E0001B6822F020025A607B691B685A687B6950
:1042F0001B6822F002025A603A696421786900F072
:10430000EBF90346002B05D07B695B6D43F020027F
:104310007B695A657B699B68002B0AD10023FB608F
:104320007B691B68DB68FB607B691B689B68FB60C3
:10433000FB687B690022DA867B69012283F85120C1
:104340007B695B6D002B03D07869FCF757FE02E0B8
:104350007869FCF70DFE1837BD4680BD80B584B086
:1043600000AF78607B685B6AFB60FDF7FBFFB860BD
:104370007B681B681B6803F02003202B3BD0FB6885
:104380001B685A68FB681B6822F020025A60FB68B1
:104390009B68002B0DD1FB685B68B3F5827F08D169
:1043A000FB681B685A68FB681B6822F003025A60AE
:1043B00007E0FB681B685A68FB681B6822F0010273
:1043C0005A60BA686421F86800F034F90346002B9B
:1043D00002D0FB6820225A65FB680022DA87FB685E
:1043E000012283F85120FB685B6D002B03D0F86835
:1043F000FCF704FE02E0F868FFF739FF1037BD460E
:1044000080BD80B584B000AF78607B685B6AFB607C
:10441000FDF7A8FFB8607B681B681B6803F02003EA
:10442000202B2FD0FB681B685A68FB681B6822F0A2
:1044300020025A60BA686421F86800F04DF903461A
:10444000002B05D0FB685B6D43F02002FB685A65CA
:10445000FB681B685A68FB681B6822F003025A60FD
:10446000FB680022DA86FB680022DA87FB680122FB
:1044700083F85120FB685B6D002B03D0F868FCF7D4
:10448000BDFD02E0F868FCF72DFD1037BD4680BD8C
:1044900080B584B000AF78607B685B6AFB60F868C9
:1044A000FFF7EEFE00BF1037BD4680BD80B584B07B
:1044B00000AF78607B685B6AFB60F868FFF7E9FE35
:1044C00000BF1037BD4680BD80B584B000AF7860B6
:1044D0007B685B6AFB60F868FFF7E4FE00BF10379B
:1044E000BD4680BD80B584B000AF78607B685B6AF4
:1044F000FB60FB681B685A68FB681B6822F00302BC
:104500005A60FB685B6D43F01002FB685A65FB68FC
:10451000012283F85120F868FCF770FD00BF1037C6
:10452000BD4680BD80B588B000AFF860B9603B6023
:104530001346FB71FDF716FF0246BB6A9B1A3A68E9
:104540001344FB61FDF70EFFB861394B1B685B013B
:104550001B0DFA6902FB03F37B6154E03B68B3F186
:10456000FF3F50D0FDF7FEFE0246BB69D31AFA6941
:104570009A4202D9FB69002B3DD1FB681B685A683F
:10458000FB681B6822F0E0025A60FB685B68B3F5C9
:10459000827F11D1FB689B68B3F5004F04D0FB68A4
:1045A0009B68B3F5806F07D1FB681B681A68FB68CE
:1045B0001B6822F040021A60FB689B6AB3F5005F3B
:1045C0000FD1FB681B681A68FB681B6822F4005255
:1045D0001A60FB681B681A68FB681B6842F400528B
:1045E0001A60FB68012283F85120FB68002283F8DF
:1045F0005020032317E07B69002B01D10023FB61CE
:104600007B69013B7B61FB681B689A68BB68134050
:10461000BA689A420CBF01230023DBB21A46FB7929
:104620009A429BD1002318462037BD4680BD00BF6B
:104630003800002080B586B002AFF860B9607A60BB
:10464000FB685B68B3F5827F11D1FB689B68B3F5AB
:10465000004F04D0FB689B68B3F5806F07D1FB68FF
:104660001B681A68FB681B6822F040021A60FB682E
:104670005B68B3F5827F17D1FB689B68B3F5806FE9
:1046800012D17B680093BB6800220121F868FFF714
:1046900049FF0346002B1AD0FB685B6D43F02002F4
:1046A000FB685A65032313E07B680093BB68002214
:1046B0008021F868FFF736FF0346002B07D0FB6820
:1046C0005B6D43F02002FB685A65032300E0002382
:1046D00018461037BD4680BD80B586B002AFF86081
:1046E000B9607A607B680093BB6801220221F86898
:1046F000FFF718FF0346002B07D0FB685B6D43F004
:104700002002FB685A65032313E07B680093BB68B3
:1047100000228021F868FFF705FF0346002B07D031
:10472000FB685B6D43F02002FB685A65032300E0E1
:10473000002318461037BD4680BD80B582B000AF5B
:1047400078607B68002B01D1012341E07B6893F8FE
:104750003D30DBB2002B06D17B68002283F83C2081
:10476000786800F039F87B68022283F83D207B6886
:104770001A687B6804331946104600F09DF97B687F
:10478000012283F846207B68012283F83E207B6863
:10479000012283F83F207B68012283F840207B6858
:1047A000012283F841207B68012283F842207B6844
:1047B000012283F843207B68012283F844207B6830
:1047C000012283F845207B68012283F83D200023E5
:1047D00018460837BD4680BD80B483B000AF78600E
:1047E00000BF0C37BD4680BC7047000080B485B068
:1047F00000AF78607B6893F83D30DBB2012B01D0CD
:1048000001233AE07B68022283F83D207B681B6825
:10481000DA687B681B6842F00102DA607B681B681B
:10482000184A93420ED07B681B68B3F1804F09D0C1
:104830007B681B68144A934204D07B681B68134A48
:10484000934211D17B681B689B6803F00703FB60F0
:10485000FB68062B10D07B681B681A687B681B6896
:1048600042F001021A6007E07B681B681A687B68E7
:104870001B6842F001021A60002318461437BD4637
:1048800080BC7047002C014000040040000800403C
:1048900080B584B000AF78607B681B68DB68FB6024
:1048A0007B681B681B69BB60BB6803F00203002BBD
:1048B00020D0FB6803F00203002B1BD07B681B6831
:1048C0006FF002021A617B6801221A777B681B680D
:1048D0009B6903F00303002B03D0786800F0D1F844
:1048E00005E0786800F0C4F8786800F0D3F87B68D9
:1048F00000221A77BB6803F00403002B20D0FB686A
:1049000003F00403002B1BD07B681B686FF00402CC
:104910001A617B6802221A777B681B689B6903F423
:104920004073002B03D0786800F0ABF805E078689E
:1049300000F09EF8786800F0ADF87B6800221A77E6
:10494000BB6803F00803002B20D0FB6803F00803CA
:10495000002B1BD07B681B686FF008021A617B6814
:1049600004221A777B681B68DB6903F00303002BC2
:1049700003D0786800F085F805E0786800F078F8F2
:10498000786800F087F87B6800221A77BB6803F02C
:104990001003002B20D0FB6803F01003002B1BD06A
:1049A0007B681B686FF010021A617B6808221A7717
:1049B0007B681B68DB6903F44073002B03D07868C5
:1049C00000F05FF805E0786800F052F8786800F0D1
:1049D00061F87B6800221A77BB6803F00103002BA3
:1049E0000CD0FB6803F00103002B07D07B681B6829
:1049F0006FF001021A617868FDF706FABB6803F0F0
:104A00008003002B0CD0FB6803F08003002B07D041
:104A10007B681B686FF080021A61786800F0C3F849
:104A2000BB6803F04003002B0CD0FB6803F040038D
:104A3000002B07D07B681B686FF040021A61786812
:104A400000F031F8BB6803F02003002B0CD0FB68AA
:104A500003F02003002B07D07B681B686FF0200257
:104A60001A61786800F096F800BF1037BD4680BD27
:104A700080B483B000AF786000BF0C37BD4680BC07
:104A8000704780B483B000AF786000BF0C37BD467C
:104A900080BC704780B483B000AF786000BF0C3733
:104AA000BD4680BC704780B483B000AF786000BF63
:104AB0000C37BD4680BC704780B485B000AF7860CD
:104AC00039607B681B68FB607B682F4A93420BD080
:104AD0007B68B3F1804F07D07B682C4A934203D0A8
:104AE0007B682B4A934208D1FB6823F07003FB607C
:104AF0003B685B68FA681343FB607B68224A934219
:104B00000BD07B68B3F1804F07D07B681F4A93427C
:104B100003D07B681E4A934208D1FB6823F440739C
:104B2000FB603B68DB68FA681343FB60FB6823F0BB
:104B300080023B685B691343FB607B68FA681A601C
:104B40003B689A687B68DA623B681A687B689A629D
:104B50007B680D4A934203D13B681A697B681A63EC
:104B60007B6801225A617B681B6903F00103002BFB
:104B700005D07B681B6923F001027B681A6100BFC6
:104B80001437BD4680BC7047002C01400004004033
:104B90000008004080B483B000AF786000BF0C37DD
:104BA000BD4680BC704780B483B000AF786000BF62
:104BB0000C37BD4680BC704780B485B000AF03465B
:104BC000FB800023FB60B7F90630842B05D0B7F9D2
:104BD0000620FB6813440333FB60FB681846143758
:104BE000BD4680BC704780B483B000AFEFF305834F
:104BF0007B607B68002B14BF01230023DBB21846C7
:104C00000C37BD4680BC704780B500AF01F080FC1A
:104C10000023184680BDF0B589B004AF78603960D4
:104C20007B685B69002B20D07B689B69002B1CD0C4
:104C30007B685C687B681D687B681E697B68B3F96C
:104C400008301846FFF7B8FF01467B685B697A6851
:104C500092690292019300913B68324629462046B0
:104C600001F071FA0346FB601CE07B685C687B68BE
:104C70001D687B681B699EB27B68B3F908301846D3
:104C8000FFF79AFF024607F10C03019300923B687D
:104C900032462946204601F0B6FA0346012B01D0E0
:104CA000002300E0FB6818461437BD46F0BD80B510
:104CB00084B000AF78607B68FB60FB68002B01D09C
:104CC000FB6800E00123184601F0ECFB00231846C6
:104CD0001037BD4680BD80B582B000AF78607B687C
:104CE0005B68002B07D07B685B681946012000F0E9
:104CF00044FC034603E0012000F027FC034618466D
:104D00000837BD4680BD000080B584B000AF786034
:104D100039600023BB607B68002B01D180233AE01F
:104D20000023FB603B68B3F1FF3F03D14FF0FF333B
:104D3000FB6009E03B68002B06D03B68FB60FB682A
:104D4000002B01D10123FB60FFF74DFF0346002B31
:104D500017D007F108031A460021786801F04AF8D5
:104D60000346012B01D0FF2315E0BB68002B11D0B7
:104D70000B4B4FF080521A60BFF34F8FBFF36F8F12
:104D800008E0F968786800F025FF0346012B01D0A0
:104D9000FF2300E0002318461037BD4680BD00BF4A
:104DA00004ED00E080B584B000AF78600023FB60C4
:104DB0000023BB60FFF717FF0346002B16D007F157
:104DC00008031946786800F093FD0346012B01D0D3
:104DD000FF2317E0BB68002B13D00C4B4FF0805221
:104DE0001A60BFF34F8FBFF36F8F0AE000230022DA
:104DF0000021786800F0DCFB0346012B01D0FF2383
:104E0000FB60FB6818461037BD4680BD04ED00E02E
:104E100080B586B002AF786039607B685B68002B34
:104E20000FD03B68012B0AD17B685B68032200929C
:104E300000220021012000F097FA034616E000232B
:104E400014E03B68012B10D103220021012000F067
:104E500008FBF860FB68002B05D00023002200212E
:104E6000F86800F0A5FBFB6800E000231846103747
:104E7000BD4680BD80B584B000AF78603960002346
:104E8000BB607B68002B01D180233AE00023FB60EC
:104E90003B68B3F1FF3F03D14FF0FF33FB6009E004
:104EA0003B68002B06D03B68FB60FB68002B01D100
:104EB0000123FB60FFF797FE0346002B17D007F195
:104EC00008031A460021786800F094FF0346012B7E
:104ED00001D0FF2315E0BB68002B11D00B4B4FF026
:104EE00080521A60BFF34F8FBFF36F8F08E0F968ED
:104EF000786800F06FFE0346012B01D0FF2300E02D
:104F0000002318461037BD4680BD00BF04ED00E009
:104F100080B584B000AF78600023FB600023BB60E5
:104F2000FFF761FE0346002B16D007F10803194670
:104F3000786800F0DDFC0346012B01D0FF2317E069
:104F4000BB68002B13D00C4B4FF080521A60BFF39C
:104F50004F8FBFF36F8F0AE0002300220021786893
:104F600000F026FB0346012B01D0FF23FB60FB680A
:104F700018461037BD4680BD04ED00E090B585B001
:104F800002AF786039607B689B68002B11D07B682A
:104F9000DB68002B0DD07B6818687B6859687B68DC
:104FA0009A687B68DB680024009400F0DDF9034612
:104FB00008E07B6818687B685B680022194600F08F
:104FC00050FA034618460C37BD4690BD80B586B0F2
:104FD00000AFF860B9607A6000233B617B687B6159
:104FE0007B69002B01D101237B61FFF7FCFD0346A8
:104FF000002B18D007F1100207F108010023F86810
:1050000000F0D8FB0346012B01D0FF2318E03B69D9
:10501000002B14D00C4B4FF080521A60BFF34F8F0F
:10502000BFF36F8F0BE007F1080100237A69F8687E
:1050300000F0BEFA0346012B01D0FF2300E000235D
:1050400018461837BD4680BD04ED00E090B58BB022
:1050500000AFF860B9607A60BB68FB610023BB6198
:10506000BB68002B0AD180237B61FB681C4607F1DB
:10507000140393E8070084E8070054E000233B6230
:1050800000237B627B68B3F1FF3F03D14FF0FF3316
:105090007B6209E07B68002B06D07B687B627B6AC1
:1050A000002B01D101237B62FFF79DFD0346002BFE
:1050B0001CD007F1200207F1140304331946B86825
:1050C00000F098FE0346012B02D110237B6101E022
:1050D00000237B613B6A002B1DD0154B4FF08052A3
:1050E0001A60BFF34F8FBFF36F8F14E007F1140303
:1050F00004337A6A1946B86800F08AFC0346012B2B
:1051000002D110237B6106E07B6A002B01D10023D2
:1051100000E040237B61FB681C4607F1140393E821
:10512000070084E80700F8682C37BD4690BD00BF33
:1051300004ED00E080B483B000AF78607B6803F1D9
:1051400008027B685A607B684FF0FF329A607B6888
:1051500003F108027B68DA607B6803F108027B6870
:105160001A617B6800221A6000BF0C37BD4680BC04
:10517000704780B483B000AF78607B6800221A610A
:1051800000BF0C37BD4680BC704780B485B000AF0F
:10519000786039607B685B68FB603B68FA685A60DE
:1051A000FB689A683B689A60FB689B683A685A603B
:1051B000FB683A689A603B687A681A617B681B688A
:1051C0005A1C7B681A6000BF1437BD4680BC70470C
:1051D00080B485B000AF786039603B681B68BB6005
:1051E000BB68B3F1FF3F03D17B681B69FB600CE038
:1051F0007B680833FB6002E0FB685B68FB60FB6870
:105200005B681B68BA689A42F6D2FB685A683B68CA
:105210005A603B685B683A689A603B68FA689A60D3
:10522000FB683A685A603B687A681A617B681B6859
:105230005A1C7B681A6000BF1437BD4680BC70479B
:1052400080B485B000AF78607B681B69FB607B68C9
:105250005B687A6892689A607B689B687A68526833
:105260005A60FB685B687A689A4203D17B689A68E7
:10527000FB685A607B6800221A61FB681B685A1E33
:10528000FB681A60FB681B6818461437BD4680BC73
:105290007047000080B584B000AF786039607B68EB
:1052A000FB60FB68002B0BD14FF0500383F3118898
:1052B000BFF36F8FBFF34F8FBB6000BF00BFFDE731
:1052C00002F05CF8FB681A68FB68DB6BF968096C34
:1052D00001FB03F31A44FB689A60FB6800229A639F
:1052E000FB681A68FB685A60FB681A68FB68DB6B2E
:1052F000013BF968096C01FB03F31A44FB68DA60AF
:10530000FB68FF2283F84420FB68FF2283F84520D6
:105310003B68002B14D1FB681B69002B1AD0FB687B
:105320001033184601F04CFB0346002B12D00D4BF6
:105330004FF080521A60BFF34F8FBFF36F8F09E0B9
:10534000FB6810331846FFF7F5FEFB682433184658
:10535000FFF7F0FE02F042F8012318461037BD4671
:1053600080BD00BF04ED00E080B58EB002AFF860F4
:10537000B9607A603B60FB68002B0BD14FF05003A3
:1053800083F31188BFF36F8FBFF34F8FBB6200BFF2
:1053900000BFFDE73B68002B0BD14FF0500383F3B8
:1053A0001188BFF36F8FBFF34F8F7B6200BF00BFC9
:1053B000FDE77B68002B02D0BB68002B01D00123E6
:1053C00000E00023002B0BD14FF0500383F3118832
:1053D000BFF36F8FBFF34F8F3B6200BF00BFFDE78E
:1053E0007B68002B02D1BB68002B01D1012300E0B8
:1053F0000023002B0BD14FF0500383F31188BFF330
:105400006F8FBFF34F8FFB6100BF00BFFDE74823E5
:105410007B617B69482B0BD04FF0500383F31188DD
:10542000BFF36F8FBFF34F8FBB6100BF00BFFDE7BE
:105430007B693B68FB62FB6A002B0DD0FB6A012293
:1054400083F8462097F83820FB6A009313467A6861
:10545000B968F86800F040F8FB6A18463037BD4676
:1054600080BD80B58AB002AFF860B9601346FB71A9
:10547000FB68002B0BD14FF0500383F31188BFF36F
:105480006F8FBFF34F8F3B6100BF00BFFDE7FB682D
:10549000BA6802FB03F3FB61FB694833184602F06C
:1054A0006FF8B861BB69002B11D0BB697B617B6968
:1054B00048337B61BB69002283F84620FA79BB69D7
:1054C000009313467A69B968F86800F005F8BB697B
:1054D00018462037BD4680BD80B584B000AFF86067
:1054E000B9607A60FB70BB68002B03D1BB69BA69F5
:1054F0001A6002E0BB697A681A60BB69FA68DA630D
:10550000BB69BA681A640121B869FFF7C3FE00BF1E
:105510001037BD4680BD80B582B000AF78607B6833
:10552000002B0ED07B6800229A607B6800221A60F4
:105530007B680022DA60002300220021786800F0F6
:1055400037F800BF0837BD4680BD80B586B000AFD4
:105550000346FB7101237B6100233B61FB791A4603
:1055600039697869FFF77DFFF860F868FFF7D3FFC6
:10557000FB6818461837BD4680BD80B588B002AFBD
:1055800003463960FB7101237B6100233B61FB799A
:1055900000933B68002239697869FFF7E5FEF860FF
:1055A000F868FFF7B8FFFB6818461837BD4680BD9E
:1055B00080B58EB000AFF860B9607A603B600023C0
:1055C0007B63FB683B633B6B002B0BD14FF05003BD
:1055D00083F31188BFF36F8FBFF34F8FBB6200BFA0
:1055E00000BFFDE7BB68002B03D13B6B1B6C002B9E
:1055F00001D1012300E00023002B0BD14FF0500319
:1056000083F31188BFF36F8FBFF34F8F7B6200BFAF
:1056100000BFFDE73B68022B03D13B6BDB6B012B2B
:1056200001D1012300E00023002B0BD14FF05003E8
:1056300083F31188BFF36F8FBFF34F8F3B6200BFBF
:1056400000BFFDE701F082FB0346002B02D17B681F
:10565000002B01D1012300E00023002B0BD14FF0E0
:10566000500383F31188BFF36F8FBFF34F8FFB613C
:1056700000BF00BFFDE701F081FE3B6B9A6B3B6B07
:10568000DB6B9A4202D33B68022B29D13A68B96896
:10569000386B00F048FCF8623B6B5B6A002B10D063
:1056A0003B6B2433184601F08BF90346002B13D0D3
:1056B0003F4B4FF080521A60BFF34F8FBFF36F8F95
:1056C0000AE0FB6A002B07D0394B4FF080521A607A
:1056D000BFF34F8FBFF36F8F01F080FE012363E0B4
:1056E0007B68002B03D101F079FE00235CE07B6B2B
:1056F000002B06D107F11403184601F0C5F9012368
:105700007B6301F06BFE00F06DFF01F037FE3B6B39
:1057100093F844305BB2B3F1FF3F03D13B6B0022FF
:1057200083F844203B6B93F845305BB2B3F1FF3F05
:1057300003D13B6B002283F8452001F04FFE3A1D58
:1057400007F114031146184601F0B4F90346002B83
:1057500024D1386B00F0DFFC0346002B18D03B6BE4
:1057600010337A681146184601F004F9386B00F0DE
:105770006AFC00F045FF0346002B7FF47CAF0C4B26
:105780004FF080521A60BFF34F8FBFF36F8F72E7F5
:10579000386B00F058FC00F033FF6CE7386B00F01A
:1057A00052FC00F02DFF002318463837BD4680BD5F
:1057B00004ED00E080B590B000AFF860B9607A60A9
:1057C0003B60FB68BB63BB6B002B0BD14FF05003FE
:1057D00083F31188BFF36F8FBFF34F8FBB6200BF9E
:1057E00000BFFDE7BB68002B03D1BB6B1B6C002B1C
:1057F00001D1012300E00023002B0BD14FF0500317
:1058000083F31188BFF36F8FBFF34F8F7B6200BFAD
:1058100000BFFDE73B68022B03D1BB6BDB6B012BA9
:1058200001D1012300E00023002B0BD14FF05003E6
:1058300083F31188BFF36F8FBFF34F8F3B6200BFBD
:1058400000BFFDE701F05CFEEFF311824FF0500363
:1058500083F31188BFF36F8FBFF34F8FFA61BB6182
:10586000FB697B63BB6B9A6BBB6BDB6B9A4202D3AE
:105870003B68022B2FD1BB6B93F8453087F8333050
:10588000BB6B9B6BFB623A68B968B86B00F04BFB73
:1058900097F93330B3F1FF3F12D1BB6B5B6A002B3A
:1058A00016D0BB6B2433184601F08AF80346002B50
:1058B0000ED07B68002B0BD07B6801221A6007E0BA
:1058C00097F833300133DBB25AB2BB6B83F8452013
:1058D0000123FB6301E00023FB637B6B7B617B693E
:1058E00083F3118800BFFB6B18464037BD4680BD6F
:1058F00080B58EB000AF786039607B683B633B6BEE
:10590000002B0BD14FF0500383F31188BFF36F8F3F
:10591000BFF34F8F3B6200BF00BFFDE73B6B1B6CCB
:10592000002B0BD04FF0500383F31188BFF36F8F20
:10593000BFF34F8FFB6100BF00BFFDE73B6B1B68F0
:10594000002B03D13B6B9B68002B01D1012300E0AE
:105950000023002B0BD14FF0500383F31188BFF3CA
:105960006F8FBFF34F8FBB6100BF00BFFDE701F03A
:10597000C7FDEFF311824FF0500383F31188BFF39B
:105980006F8FBFF34F8F7A613B617B69FB623B6B2B
:105990009B6BBB623B6BDB6BBA6A9A422BD23B6B55
:1059A00093F8453087F82730BB6A5A1C3B6B9A63E3
:1059B00097F92730B3F1FF3F12D13B6B5B6A002BA5
:1059C00016D03B6B2433184600F0FAFF0346002B39
:1059D0000ED03B68002B0BD03B6801221A6007E019
:1059E00097F827300133DBB25AB23B6B83F845207E
:1059F00001237B6301E000237B63FB6AFB60FB68A0
:105A000083F3118800BF7B6B18463837BD4680BDD5
:105A100080B58CB000AFF860B9607A600023FB629B
:105A2000FB68BB62BB6A002B0BD14FF0500383F3C2
:105A30001188BFF36F8FBFF34F8F3B6200BF00BF72
:105A4000FDE7BB68002B03D1BB6A1B6C002B01D1A7
:105A5000012300E00023002B0BD14FF0500383F310
:105A60001188BFF36F8FBFF34F8FFB6100BF00BF83
:105A7000FDE701F06BF90346002B02D17B68002B98
:105A800001D1012300E00023002B0BD14FF0500384
:105A900083F31188BFF36F8FBFF34F8FBB6100BFDC
:105AA00000BFFDE701F06AFCBB6A9B6B7B627B6A0F
:105AB000002B1FD0B968B86A00F09FFA7B6A5A1EA3
:105AC000BB6A9A63BB6A1B69002B0FD0BB6A103399
:105AD000184600F075FF0346002B07D03C4B4FF0F3
